{
  "_format": "hh-sol-artifact-1",
  "contractName": "AdminList",
  "sourceName": "contracts/fleaMarket.sol",
  "abi": [
    {
      "inputs": [
        {
          "internalType": "uint256",
          "name": "",
          "type": "uint256"
        }
      ],
      "name": "adminList",
      "outputs": [
        {
          "internalType": "address",
          "name": "",
          "type": "address"
        }
      ],
      "stateMutability": "view",
      "type": "function"
    },
    {
      "inputs": [
        {
          "internalType": "string",
          "name": "userName",
          "type": "string"
        },
        {
          "internalType": "string",
          "name": "password",
          "type": "string"
        },
        {
          "internalType": "string",
          "name": "adminNumber",
          "type": "string"
        },
        {
          "internalType": "string",
          "name": "phone",
          "type": "string"
        },
        {
          "internalType": "bool",
          "name": "gender",
          "type": "bool"
        }
      ],
      "name": "createAdmin",
      "outputs": [],
      "stateMutability": "nonpayable",
      "type": "function"
    },
    {
      "inputs": [
        {
          "internalType": "address",
          "name": "",
          "type": "address"
        }
      ],
      "name": "creatorAdminMap",
      "outputs": [
        {
          "internalType": "address",
          "name": "",
          "type": "address"
        }
      ],
      "stateMutability": "view",
      "type": "function"
    },
    {
      "inputs": [
        {
          "internalType": "address",
          "name": "_address",
          "type": "address"
        }
      ],
      "name": "getAdminAddress",
      "outputs": [
        {
          "internalType": "address",
          "name": "",
          "type": "address"
        }
      ],
      "stateMutability": "view",
      "type": "function"
    },
    {
      "inputs": [],
      "name": "getAdminList",
      "outputs": [
        {
          "internalType": "address[]",
          "name": "",
          "type": "address[]"
        }
      ],
      "stateMutability": "view",
      "type": "function"
    },
    {
      "inputs": [
        {
          "internalType": "string",
          "name": "userName",
          "type": "string"
        }
      ],
      "name": "getPasswordHashByUsername",
      "outputs": [
        {
          "internalType": "string",
          "name": "",
          "type": "string"
        }
      ],
      "stateMutability": "view",
      "type": "function"
    },
    {
      "inputs": [
        {
          "internalType": "address",
          "name": "adminAddr",
          "type": "address"
        }
      ],
      "name": "isAdmin",
      "outputs": [
        {
          "internalType": "bool",
          "name": "",
          "type": "bool"
        }
      ],
      "stateMutability": "view",
      "type": "function"
    },
    {
      "inputs": [
        {
          "internalType": "address",
          "name": "account",
          "type": "address"
        }
      ],
      "name": "isNotRegistered",
      "outputs": [
        {
          "internalType": "bool",
          "name": "",
          "type": "bool"
        }
      ],
      "stateMutability": "view",
      "type": "function"
    },
    {
      "inputs": [
        {
          "internalType": "string",
          "name": "userName",
          "type": "string"
        },
        {
          "internalType": "string",
          "name": "password",
          "type": "string"
        }
      ],
      "name": "verifyPwd",
      "outputs": [
        {
          "internalType": "bool",
          "name": "",
          "type": "bool"
        }
      ],
      "stateMutability": "view",
      "type": "function"
    }
  ],
  "bytecode": "0x608060405234801561001057600080fd5b50611a4b806100206000396000f3fe60806040523480156200001157600080fd5b50600436106200009f5760003560e01c8063a12bbc3d116200006e578063a12bbc3d146200013d578063ad17fcb51462000156578063d8c251b51462000185578063d9f774fc14620001b5578063e09ce2dc14620001ce57600080fd5b806311117fc814620000a457806324d7806c14620000d857806349c1b61714620001005780639e31a3ee1462000126575b600080fd5b620000bb620000b53660046200076d565b620001fa565b6040516001600160a01b0390911681526020015b60405180910390f35b620000ef620000e936600462000787565b62000225565b6040519015158152602001620000cf565b62000117620001113660046200088a565b62000296565b604051620000cf919062000917565b620000ef620001373660046200092c565b62000412565b620001546200014e366004620009a9565b62000586565b005b620000bb6200016736600462000787565b6001600160a01b039081166000908152600160205260409020541690565b620000ef6200019636600462000787565b6001600160a01b03908116600090815260016020526040902054161590565b620001bf6200069e565b604051620000cf919062000a7a565b620000bb620001df36600462000787565b6001602052600090815260409020546001600160a01b031681565b600081815481106200020b57600080fd5b6000918252602090912001546001600160a01b0316905081565b6000805b6000548110156200028d57826001600160a01b03166000828154811062000254576200025462000ac9565b6000918252602090912001546001600160a01b031603620002785750600192915050565b80620002848162000adf565b91505062000229565b50600092915050565b606060005b600054811015620003d2576000808281548110620002bd57620002bd62000ac9565b6000918252602082200154604080516370019b3560e01b815290516001600160a01b039092169350620003459284926370019b359260048082019392918290030181865afa15801562000314573d6000803e3d6000fd5b505050506040513d6000823e601f3d908101601f191682016040526200033e919081019062000b07565b8562000702565b15620003bc57806001600160a01b031663047cced36040518163ffffffff1660e01b8152600401600060405180830381865afa1580156200038a573d6000803e3d6000fd5b505050506040513d6000823e601f3d908101601f19168201604052620003b4919081019062000b07565b949350505050565b5080620003c98162000adf565b9150506200029b565b5060405162461bcd60e51b815260206004820152600f60248201526e10591b5a5b881b9bdd08199bdd5b99608a1b60448201526064015b60405180910390fd5b336000818152600160205260408120549091906001600160a01b0316620004735760405162461bcd60e51b815260206004820152601460248201527310591b5a5b881b9bdd081c9959da5cdd195c995960621b604482015260640162000409565b6001600160a01b038082166000908152600160205260408082205481516370019b3560e01b815291519316928392620005029284926370019b35926004808401939192918290030181865afa158015620004d1573d6000803e3d6000fd5b505050506040513d6000823e601f3d908101601f19168201604052620004fb919081019062000b07565b8762000702565b80156200057c575060405163b2f0651760e01b81526001600160a01b0382169063b2f06517906200053890889060040162000917565b602060405180830381865afa15801562000556573d6000803e3d6000fd5b505050506040513d601f19601f820116820180604052508101906200057c919062000b87565b9695505050505050565b336000818152600160205260409020546001600160a01b031615620005ee5760405162461bcd60e51b815260206004820152601a60248201527f4163636f756e7420616c72656164792072656769737465726564000000000000604482015260640162000409565b600081878787878760405162000604906200075f565b620006159695949392919062000ba7565b604051809103906000f08015801562000632573d6000803e3d6000fd5b5060008054600181810183557f290decd9548b62a8d60345a988386fc84ba6bc95484008f6362f93160ef3e56390910180546001600160a01b039485166001600160a01b0319918216811790925595909316825260205260409020805490931617909155505050505050565b60606000805480602002602001604051908101604052809291908181526020018280548015620006f857602002820191906000526020600020905b81546001600160a01b03168152600190910190602001808311620006d9575b5050505050905090565b60008160405160200162000717919062000c23565b604051602081830303815290604052805190602001208360405160200162000740919062000c23565b6040516020818303038152906040528051906020012014905092915050565b610dd48062000c4283390190565b6000602082840312156200078057600080fd5b5035919050565b6000602082840312156200079a57600080fd5b81356001600160a01b0381168114620007b257600080fd5b9392505050565b634e487b7160e01b600052604160045260246000fd5b604051601f8201601f1916810167ffffffffffffffff81118282101715620007fb57620007fb620007b9565b604052919050565b600067ffffffffffffffff821115620008205762000820620007b9565b50601f01601f191660200190565b600082601f8301126200084057600080fd5b813562000857620008518262000803565b620007cf565b8181528460208386010111156200086d57600080fd5b816020850160208301376000918101602001919091529392505050565b6000602082840312156200089d57600080fd5b813567ffffffffffffffff811115620008b557600080fd5b620003b4848285016200082e565b60005b83811015620008e0578181015183820152602001620008c6565b50506000910152565b6000815180845262000903816020860160208601620008c3565b601f01601f19169290920160200192915050565b602081526000620007b26020830184620008e9565b600080604083850312156200094057600080fd5b823567ffffffffffffffff808211156200095957600080fd5b62000967868387016200082e565b935060208501359150808211156200097e57600080fd5b506200098d858286016200082e565b9150509250929050565b8015158114620009a657600080fd5b50565b600080600080600060a08688031215620009c257600080fd5b853567ffffffffffffffff80821115620009db57600080fd5b620009e989838a016200082e565b9650602088013591508082111562000a0057600080fd5b62000a0e89838a016200082e565b9550604088013591508082111562000a2557600080fd5b62000a3389838a016200082e565b9450606088013591508082111562000a4a57600080fd5b5062000a59888289016200082e565b925050608086013562000a6c8162000997565b809150509295509295909350565b6020808252825182820181905260009190848201906040850190845b8181101562000abd5783516001600160a01b03168352928401929184019160010162000a96565b50909695505050505050565b634e487b7160e01b600052603260045260246000fd5b60006001820162000b0057634e487b7160e01b600052601160045260246000fd5b5060010190565b60006020828403121562000b1a57600080fd5b815167ffffffffffffffff81111562000b3257600080fd5b8201601f8101841362000b4457600080fd5b805162000b55620008518262000803565b81815285602083850101111562000b6b57600080fd5b62000b7e826020830160208601620008c3565b95945050505050565b60006020828403121562000b9a57600080fd5b8151620007b28162000997565b6001600160a01b038716815260c06020820181905260009062000bcd90830188620008e9565b828103604084015262000be18188620008e9565b9050828103606084015262000bf78187620008e9565b9050828103608084015262000c0d8186620008e9565b91505082151560a0830152979650505050505050565b6000825162000c37818460208701620008c3565b919091019291505056fe60806040523480156200001157600080fd5b5060405162000dd438038062000dd483398101604081905262000034916200019b565b600080546001600160a01b0319166001600160a01b03881617905560016200005d868262000308565b5060026200006c858262000308565b5060036200007b848262000308565b5060046200008a838262000308565b506005805460ff191691151591909117905550620003d49350505050565b80516001600160a01b0381168114620000c057600080fd5b919050565b634e487b7160e01b600052604160045260246000fd5b600082601f830112620000ed57600080fd5b81516001600160401b03808211156200010a576200010a620000c5565b604051601f8301601f19908116603f01168101908282118183101715620001355762000135620000c5565b816040528381526020925086838588010111156200015257600080fd5b600091505b8382101562000176578582018301518183018401529082019062000157565b600093810190920192909252949350505050565b80518015158114620000c057600080fd5b60008060008060008060c08789031215620001b557600080fd5b620001c087620000a8565b60208801519096506001600160401b0380821115620001de57600080fd5b620001ec8a838b01620000db565b965060408901519150808211156200020357600080fd5b620002118a838b01620000db565b955060608901519150808211156200022857600080fd5b620002368a838b01620000db565b945060808901519150808211156200024d57600080fd5b506200025c89828a01620000db565b9250506200026d60a088016200018a565b90509295509295509295565b600181811c908216806200028e57607f821691505b602082108103620002af57634e487b7160e01b600052602260045260246000fd5b50919050565b601f8211156200030357600081815260208120601f850160051c81016020861015620002de5750805b601f850160051c820191505b81811015620002ff57828155600101620002ea565b5050505b505050565b81516001600160401b03811115620003245762000324620000c5565b6200033c8162000335845462000279565b84620002b5565b602080601f8311600181146200037457600084156200035b5750858301515b600019600386901b1c1916600185901b178555620002ff565b600085815260208120601f198616915b82811015620003a55788860151825594840194600190910190840162000384565b5085821015620003c45787850151600019600388901b60f8161c191681555b5050505050600190811b01905550565b6109f080620003e46000396000f3fe608060405234801561001057600080fd5b50600436106100a95760003560e01c80638da5cb5b116100715780638da5cb5b1461012b5780639284f4971461013e578063b2f0651714610146578063c3d5fd3914610159578063dbce14dc14610171578063e78436c01461018457600080fd5b8063047cced3146100ae5780634afb08a6146100cc57806370019b35146100e157806379caad86146100e9578063893d20e814610106575b600080fd5b6100b661018c565b6040516100c391906105da565b60405180910390f35b6100df6100da366004610697565b61021e565b005b6100b6610261565b6005546100f69060ff1681565b60405190151581526020016100c3565b6000546001600160a01b03165b6040516001600160a01b0390911681526020016100c3565b600054610113906001600160a01b031681565b6100b66102ef565b6100f6610154366004610697565b6102fc565b610161610355565b6040516100c394939291906106d4565b6100df61017f366004610721565b610524565b6100b661057d565b60606002805461019b9061079e565b80601f01602080910402602001604051908101604052809291908181526020018280546101c79061079e565b80156102145780601f106101e957610100808354040283529160200191610214565b820191906000526020600020905b8154815290600101906020018083116101f757829003601f168201915b5050505050905090565b6000546001600160a01b031633146102515760405162461bcd60e51b8152600401610248906107d8565b60405180910390fd5b600261025d8282610868565b5050565b6001805461026e9061079e565b80601f016020809104026020016040519081016040528092919081815260200182805461029a9061079e565b80156102e75780601f106102bc576101008083540402835291602001916102e7565b820191906000526020600020905b8154815290600101906020018083116102ca57829003601f168201915b505050505081565b6004805461026e9061079e565b600060026040516020016103109190610928565b6040516020818303038152906040528051906020012082604051602001610337919061099e565b60405160208183030381529060405280519060200120149050919050565b60608060606000600160036004600560009054906101000a900460ff1683805461037e9061079e565b80601f01602080910402602001604051908101604052809291908181526020018280546103aa9061079e565b80156103f75780601f106103cc576101008083540402835291602001916103f7565b820191906000526020600020905b8154815290600101906020018083116103da57829003601f168201915b5050505050935082805461040a9061079e565b80601f01602080910402602001604051908101604052809291908181526020018280546104369061079e565b80156104835780601f1061045857610100808354040283529160200191610483565b820191906000526020600020905b81548152906001019060200180831161046657829003601f168201915b505050505092508180546104969061079e565b80601f01602080910402602001604051908101604052809291908181526020018280546104c29061079e565b801561050f5780601f106104e45761010080835404028352916020019161050f565b820191906000526020600020905b8154815290600101906020018083116104f257829003601f168201915b50505050509150935093509350935090919293565b6000546001600160a01b0316331461054e5760405162461bcd60e51b8152600401610248906107d8565b600161055a8482610868565b5060046105678382610868565b506005805460ff19169115159190911790555050565b6003805461026e9061079e565b60005b838110156105a557818101518382015260200161058d565b50506000910152565b600081518084526105c681602086016020860161058a565b601f01601f19169290920160200192915050565b6020815260006105ed60208301846105ae565b9392505050565b634e487b7160e01b600052604160045260246000fd5b600082601f83011261061b57600080fd5b813567ffffffffffffffff80821115610636576106366105f4565b604051601f8301601f19908116603f0116810190828211818310171561065e5761065e6105f4565b8160405283815286602085880101111561067757600080fd5b836020870160208301376000602085830101528094505050505092915050565b6000602082840312156106a957600080fd5b813567ffffffffffffffff8111156106c057600080fd5b6106cc8482850161060a565b949350505050565b6080815260006106e760808301876105ae565b82810360208401526106f981876105ae565b9050828103604084015261070d81866105ae565b915050821515606083015295945050505050565b60008060006060848603121561073657600080fd5b833567ffffffffffffffff8082111561074e57600080fd5b61075a8783880161060a565b9450602086013591508082111561077057600080fd5b5061077d8682870161060a565b9250506040840135801515811461079357600080fd5b809150509250925092565b600181811c908216806107b257607f821691505b6020821081036107d257634e487b7160e01b600052602260045260246000fd5b50919050565b60208082526021908201527f4f6e6c79206f776e65722063616e2063616c6c20746869732066756e6374696f6040820152603760f91b606082015260800190565b601f82111561086357600081815260208120601f850160051c810160208610156108405750805b601f850160051c820191505b8181101561085f5782815560010161084c565b5050505b505050565b815167ffffffffffffffff811115610882576108826105f4565b61089681610890845461079e565b84610819565b602080601f8311600181146108cb57600084156108b35750858301515b600019600386901b1c1916600185901b17855561085f565b600085815260208120601f198616915b828110156108fa578886015182559484019460019091019084016108db565b50858210156109185787850151600019600388901b60f8161c191681555b5050505050600190811b01905550565b60008083546109368161079e565b6001828116801561094e576001811461096357610992565b60ff1984168752821515830287019450610992565b8760005260208060002060005b858110156109895781548a820152908401908201610970565b50505082870194505b50929695505050505050565b600082516109b081846020870161058a565b919091019291505056fea26469706673582212209a8c1e3bb52191a40b7c800663f6ecb34586fba3f3ae53297ac61b00f961b8eb64736f6c63430008140033a2646970667358221220405c9833bc50e908acd0d2586314187876b777de8a539711d629f49321db3a3864736f6c63430008140033",
  "linkReferences": {},
  "deployedLinkReferences": {}
}