{
  "_format": "hh-sol-artifact-1",
  "contractName": "EvaluationList",
  "sourceName": "contracts/fleaMarket.sol",
  "abi": [
    {
      "inputs": [
        {
          "internalType": "address",
          "name": "evaluationer",
          "type": "address"
        },
        {
          "internalType": "uint256",
          "name": "productId",
          "type": "uint256"
        },
        {
          "internalType": "uint8",
          "name": "rating",
          "type": "uint8"
        },
        {
          "internalType": "string",
          "name": "comment",
          "type": "string"
        },
        {
          "internalType": "string",
          "name": "imageHash",
          "type": "string"
        },
        {
          "internalType": "bool",
          "name": "isMerchant",
          "type": "bool"
        }
      ],
      "name": "addEvaluation",
      "outputs": [],
      "stateMutability": "nonpayable",
      "type": "function"
    },
    {
      "inputs": [
        {
          "internalType": "address",
          "name": "merchantAddr",
          "type": "address"
        }
      ],
      "name": "getMerchantEvaluations",
      "outputs": [
        {
          "components": [
            {
              "internalType": "address",
              "name": "evaluationer",
              "type": "address"
            },
            {
              "internalType": "uint256",
              "name": "productId",
              "type": "uint256"
            },
            {
              "internalType": "uint8",
              "name": "rating",
              "type": "uint8"
            },
            {
              "internalType": "string",
              "name": "comment",
              "type": "string"
            },
            {
              "internalType": "string",
              "name": "imageHash",
              "type": "string"
            },
            {
              "internalType": "uint256",
              "name": "timestamp",
              "type": "uint256"
            }
          ],
          "internalType": "struct EvaluationList.Evaluation[]",
          "name": "",
          "type": "tuple[]"
        }
      ],
      "stateMutability": "view",
      "type": "function"
    },
    {
      "inputs": [
        {
          "internalType": "address",
          "name": "merchantAddr",
          "type": "address"
        }
      ],
      "name": "getMerchantRating",
      "outputs": [
        {
          "internalType": "uint256",
          "name": "",
          "type": "uint256"
        }
      ],
      "stateMutability": "view",
      "type": "function"
    },
    {
      "inputs": [
        {
          "internalType": "address",
          "name": "userAddr",
          "type": "address"
        }
      ],
      "name": "getUserEvaluations",
      "outputs": [
        {
          "components": [
            {
              "internalType": "address",
              "name": "evaluationer",
              "type": "address"
            },
            {
              "internalType": "uint256",
              "name": "productId",
              "type": "uint256"
            },
            {
              "internalType": "uint8",
              "name": "rating",
              "type": "uint8"
            },
            {
              "internalType": "string",
              "name": "comment",
              "type": "string"
            },
            {
              "internalType": "string",
              "name": "imageHash",
              "type": "string"
            },
            {
              "internalType": "uint256",
              "name": "timestamp",
              "type": "uint256"
            }
          ],
          "internalType": "struct EvaluationList.Evaluation[]",
          "name": "",
          "type": "tuple[]"
        }
      ],
      "stateMutability": "view",
      "type": "function"
    },
    {
      "inputs": [
        {
          "internalType": "address",
          "name": "userAddr",
          "type": "address"
        }
      ],
      "name": "getUserRating",
      "outputs": [
        {
          "internalType": "uint256",
          "name": "",
          "type": "uint256"
        }
      ],
      "stateMutability": "view",
      "type": "function"
    },
    {
      "inputs": [
        {
          "internalType": "address",
          "name": "",
          "type": "address"
        },
        {
          "internalType": "uint256",
          "name": "",
          "type": "uint256"
        }
      ],
      "name": "merchantEvaluations",
      "outputs": [
        {
          "internalType": "address",
          "name": "evaluationer",
          "type": "address"
        },
        {
          "internalType": "uint256",
          "name": "productId",
          "type": "uint256"
        },
        {
          "internalType": "uint8",
          "name": "rating",
          "type": "uint8"
        },
        {
          "internalType": "string",
          "name": "comment",
          "type": "string"
        },
        {
          "internalType": "string",
          "name": "imageHash",
          "type": "string"
        },
        {
          "internalType": "uint256",
          "name": "timestamp",
          "type": "uint256"
        }
      ],
      "stateMutability": "view",
      "type": "function"
    },
    {
      "inputs": [
        {
          "internalType": "address",
          "name": "",
          "type": "address"
        },
        {
          "internalType": "uint256",
          "name": "",
          "type": "uint256"
        }
      ],
      "name": "userEvaluations",
      "outputs": [
        {
          "internalType": "address",
          "name": "evaluationer",
          "type": "address"
        },
        {
          "internalType": "uint256",
          "name": "productId",
          "type": "uint256"
        },
        {
          "internalType": "uint8",
          "name": "rating",
          "type": "uint8"
        },
        {
          "internalType": "string",
          "name": "comment",
          "type": "string"
        },
        {
          "internalType": "string",
          "name": "imageHash",
          "type": "string"
        },
        {
          "internalType": "uint256",
          "name": "timestamp",
          "type": "uint256"
        }
      ],
      "stateMutability": "view",
      "type": "function"
    }
  ],
  "bytecode": "0x608060405234801561001057600080fd5b50610e83806100206000396000f3fe608060405234801561001057600080fd5b506004361061007d5760003560e01c80638fcc8cf71161005b5780638fcc8cf7146100dd578063bad6d7f314610102578063c60e818914610115578063d952c8491461012857600080fd5b80632c1bf6d914610082578063460168c3146100975780636cca33f0146100bd575b600080fd5b610095610090366004610a15565b61013b565b005b6100aa6100a5366004610ac4565b610329565b6040519081526020015b60405180910390f35b6100d06100cb366004610ac4565b6103c5565b6040516100b49190610b2c565b6100f06100eb366004610bed565b610594565b6040516100b496959493929190610c17565b6100d0610110366004610ac4565b610707565b6100aa610123366004610ac4565b6108cd565b6100f0610136366004610bed565b61093a565b60058460ff1611156101935760405162461bcd60e51b815260206004820152601e60248201527f526174696e67206d757374206265206265747765656e203020616e6420350000604482015260640160405180910390fd5b60006040518060c00160405280886001600160a01b031681526020018781526020018660ff168152602001858152602001848152602001428152509050811561027b576001600160a01b0387811660009081526001602081815260408084208054808501825590855293829020865160069095020180546001600160a01b031916949095169390931784558401519083015582015160028201805460ff191660ff909216919091179055606082015182919060038201906102549082610cf6565b50608082015160048201906102699082610cf6565b5060a082015181600501555050610320565b6001600160a01b0387811660009081526020818152604080832080546001808201835591855293839020865160069095020180546001600160a01b03191694909516939093178455908401519183019190915582015160028201805460ff191660ff909216919091179055606082015182919060038201906102fd9082610cf6565b50608082015160048201906103129082610cf6565b5060a0820151816005015550505b50505050505050565b6001600160a01b038116600090815260208190526040812080548290815b818110156103965783818154811061036157610361610db6565b60009182526020909120600260069092020101546103829060ff1684610de2565b92508061038e81610dfb565b915050610347565b50600081116103a65760006103bc565b806103b283600a610e14565b6103bc9190610e2b565b95945050505050565b6001600160a01b038116600090815260208181526040808320805482518185028101850190935280835260609492939192909184015b828210156105895760008481526020908190206040805160c0810182526006860290920180546001600160a01b03168352600181015493830193909352600283015460ff169082015260038201805491929160608401919061045c90610c6d565b80601f016020809104026020016040519081016040528092919081815260200182805461048890610c6d565b80156104d55780601f106104aa576101008083540402835291602001916104d5565b820191906000526020600020905b8154815290600101906020018083116104b857829003601f168201915b505050505081526020016004820180546104ee90610c6d565b80601f016020809104026020016040519081016040528092919081815260200182805461051a90610c6d565b80156105675780601f1061053c57610100808354040283529160200191610567565b820191906000526020600020905b81548152906001019060200180831161054a57829003601f168201915b50505050508152602001600582015481525050815260200190600101906103fb565b505050509050919050565b600160205281600052604060002081815481106105b057600080fd5b600091825260209091206006909102018054600182015460028301546003840180546001600160a01b03909416965091945060ff1692916105f090610c6d565b80601f016020809104026020016040519081016040528092919081815260200182805461061c90610c6d565b80156106695780601f1061063e57610100808354040283529160200191610669565b820191906000526020600020905b81548152906001019060200180831161064c57829003601f168201915b50505050509080600401805461067e90610c6d565b80601f01602080910402602001604051908101604052809291908181526020018280546106aa90610c6d565b80156106f75780601f106106cc576101008083540402835291602001916106f7565b820191906000526020600020905b8154815290600101906020018083116106da57829003601f168201915b5050505050908060050154905086565b6001600160a01b0381166000908152600160209081526040808320805482518185028101850190935280835260609492939192909184015b828210156105895760008481526020908190206040805160c0810182526006860290920180546001600160a01b03168352600181015493830193909352600283015460ff16908201526003820180549192916060840191906107a090610c6d565b80601f01602080910402602001604051908101604052809291908181526020018280546107cc90610c6d565b80156108195780601f106107ee57610100808354040283529160200191610819565b820191906000526020600020905b8154815290600101906020018083116107fc57829003601f168201915b5050505050815260200160048201805461083290610c6d565b80601f016020809104026020016040519081016040528092919081815260200182805461085e90610c6d565b80156108ab5780601f10610880576101008083540402835291602001916108ab565b820191906000526020600020905b81548152906001019060200180831161088e57829003601f168201915b505050505081526020016005820154815250508152602001906001019061073f565b6001600160a01b038116600090815260016020526040812080548290815b818110156103965783818154811061090557610905610db6565b60009182526020909120600260069092020101546109269060ff1684610de2565b92508061093281610dfb565b9150506108eb565b600060205281600052604060002081815481106105b057600080fd5b80356001600160a01b038116811461096d57600080fd5b919050565b634e487b7160e01b600052604160045260246000fd5b600082601f83011261099957600080fd5b813567ffffffffffffffff808211156109b4576109b4610972565b604051601f8301601f19908116603f011681019082821181831017156109dc576109dc610972565b816040528381528660208588010111156109f557600080fd5b836020870160208301376000602085830101528094505050505092915050565b60008060008060008060c08789031215610a2e57600080fd5b610a3787610956565b955060208701359450604087013560ff81168114610a5457600080fd5b9350606087013567ffffffffffffffff80821115610a7157600080fd5b610a7d8a838b01610988565b94506080890135915080821115610a9357600080fd5b50610aa089828a01610988565b92505060a08701358015158114610ab657600080fd5b809150509295509295509295565b600060208284031215610ad657600080fd5b610adf82610956565b9392505050565b6000815180845260005b81811015610b0c57602081850181015186830182015201610af0565b506000602082860101526020601f19601f83011685010191505092915050565b60006020808301818452808551808352604092508286019150828160051b87010184880160005b83811015610bdf57888303603f19018552815180516001600160a01b0316845287810151888501528681015160ff168785015260608082015160c08287018190529190610ba283880182610ae6565b9250505060808083015186830382880152610bbd8382610ae6565b60a0948501519790940196909652505094870194925090860190600101610b53565b509098975050505050505050565b60008060408385031215610c0057600080fd5b610c0983610956565b946020939093013593505050565b60018060a01b038716815285602082015260ff8516604082015260c060608201526000610c4760c0830186610ae6565b8281036080840152610c598186610ae6565b9150508260a0830152979650505050505050565b600181811c90821680610c8157607f821691505b602082108103610ca157634e487b7160e01b600052602260045260246000fd5b50919050565b601f821115610cf157600081815260208120601f850160051c81016020861015610cce5750805b601f850160051c820191505b81811015610ced57828155600101610cda565b5050505b505050565b815167ffffffffffffffff811115610d1057610d10610972565b610d2481610d1e8454610c6d565b84610ca7565b602080601f831160018114610d595760008415610d415750858301515b600019600386901b1c1916600185901b178555610ced565b600085815260208120601f198616915b82811015610d8857888601518255948401946001909101908401610d69565b5085821015610da65787850151600019600388901b60f8161c191681555b5050505050600190811b01905550565b634e487b7160e01b600052603260045260246000fd5b634e487b7160e01b600052601160045260246000fd5b80820180821115610df557610df5610dcc565b92915050565b600060018201610e0d57610e0d610dcc565b5060010190565b8082028115828204841417610df557610df5610dcc565b600082610e4857634e487b7160e01b600052601260045260246000fd5b50049056fea26469706673582212203ab0fc7ee19a65351943e660644c42355c00ac7942acd8c53df33b24d137cec164736f6c63430008140033",
  "linkReferences": {},
  "deployedLinkReferences": {}
}