{
  "_format": "hh-sol-artifact-1",
  "contractName": "MerchantList",
  "sourceName": "contracts/fleaMarket.sol",
  "abi": [
    {
      "inputs": [
        {
          "internalType": "address",
          "name": "_ProductList",
          "type": "address"
        },
        {
          "internalType": "string",
          "name": "userName",
          "type": "string"
        },
        {
          "internalType": "string",
          "name": "password",
          "type": "string"
        },
        {
          "internalType": "string",
          "name": "phone",
          "type": "string"
        },
        {
          "internalType": "string",
          "name": "merchantNo",
          "type": "string"
        }
      ],
      "name": "createMerchant",
      "outputs": [],
      "stateMutability": "nonpayable",
      "type": "function"
    },
    {
      "inputs": [
        {
          "internalType": "address",
          "name": "",
          "type": "address"
        }
      ],
      "name": "creatorMerchantMap",
      "outputs": [
        {
          "internalType": "address",
          "name": "",
          "type": "address"
        }
      ],
      "stateMutability": "view",
      "type": "function"
    },
    {
      "inputs": [
        {
          "internalType": "address",
          "name": "_address",
          "type": "address"
        }
      ],
      "name": "getMerchantAddress",
      "outputs": [
        {
          "internalType": "address",
          "name": "",
          "type": "address"
        }
      ],
      "stateMutability": "view",
      "type": "function"
    },
    {
      "inputs": [],
      "name": "getMerchantList",
      "outputs": [
        {
          "internalType": "address[]",
          "name": "",
          "type": "address[]"
        }
      ],
      "stateMutability": "view",
      "type": "function"
    },
    {
      "inputs": [
        {
          "internalType": "string",
          "name": "userName",
          "type": "string"
        }
      ],
      "name": "getPasswordHashByUsername",
      "outputs": [
        {
          "internalType": "string",
          "name": "",
          "type": "string"
        }
      ],
      "stateMutability": "view",
      "type": "function"
    },
    {
      "inputs": [
        {
          "internalType": "address",
          "name": "merchantAddr",
          "type": "address"
        }
      ],
      "name": "isMerchant",
      "outputs": [
        {
          "internalType": "bool",
          "name": "",
          "type": "bool"
        }
      ],
      "stateMutability": "view",
      "type": "function"
    },
    {
      "inputs": [
        {
          "internalType": "address",
          "name": "account",
          "type": "address"
        }
      ],
      "name": "isNotRegistered",
      "outputs": [
        {
          "internalType": "bool",
          "name": "",
          "type": "bool"
        }
      ],
      "stateMutability": "view",
      "type": "function"
    },
    {
      "inputs": [
        {
          "internalType": "uint256",
          "name": "",
          "type": "uint256"
        }
      ],
      "name": "merchantList",
      "outputs": [
        {
          "internalType": "address",
          "name": "",
          "type": "address"
        }
      ],
      "stateMutability": "view",
      "type": "function"
    },
    {
      "inputs": [
        {
          "internalType": "string",
          "name": "userName",
          "type": "string"
        },
        {
          "internalType": "string",
          "name": "password",
          "type": "string"
        }
      ],
      "name": "verifyPwd",
      "outputs": [
        {
          "internalType": "bool",
          "name": "",
          "type": "bool"
        }
      ],
      "stateMutability": "view",
      "type": "function"
    }
  ],
  "bytecode": "0x608060405234801561001057600080fd5b50611c16806100206000396000f3fe60806040523480156200001157600080fd5b50600436106200009f5760003560e01c80637bb6e743116200006e5780637bb6e743146200013f5780639cb95ad314620001585780639e31a3ee1462000184578063d2d518b4146200019b578063d8c251b514620001ca57600080fd5b80631a2f716714620000a45780631b795d5614620000d0578063313beb55146200010057806349c1b6171462000119575b600080fd5b620000bb620000b536600462000791565b620001fa565b60405190151581526020015b60405180910390f35b620000e7620000e1366004620007b6565b62000266565b6040516001600160a01b039091168152602001620000c7565b6200010a62000291565b604051620000c79190620007d0565b620001306200012a366004620008f0565b620002f5565b604051620000c791906200097d565b620001566200015036600462000992565b62000474565b005b620000e76200016936600462000791565b6001602052600090815260409020546001600160a01b031681565b620000bb6200019536600462000a5f565b6200058c565b620000e7620001ac36600462000791565b6001600160a01b039081166000908152600160205260409020541690565b620000bb620001db36600462000791565b6001600160a01b03908116600090815260016020526040902054161590565b6000805b6000548110156200025d57600081815481106200021f576200021f62000aca565b6000918252602090912001546001600160a01b0390811690841603620002485750600192915050565b80620002548162000ae0565b915050620001fe565b50600092915050565b600081815481106200027757600080fd5b6000918252602090912001546001600160a01b0316905081565b60606000805480602002602001604051908101604052809291908181526020018280548015620002eb57602002820191906000526020600020905b81546001600160a01b03168152600190910190602001808311620002cc575b5050505050905090565b606060005b600054811015620004315760008082815481106200031c576200031c62000aca565b6000918252602082200154604080516370019b3560e01b815290516001600160a01b039092169350620003a49284926370019b359260048082019392918290030181865afa15801562000373573d6000803e3d6000fd5b505050506040513d6000823e601f3d908101601f191682016040526200039d919081019062000b08565b8562000709565b156200041b57806001600160a01b031663047cced36040518163ffffffff1660e01b8152600401600060405180830381865afa158015620003e9573d6000803e3d6000fd5b505050506040513d6000823e601f3d908101601f1916820160405262000413919081019062000b08565b949350505050565b5080620004288162000ae0565b915050620002fa565b5060405162461bcd60e51b815260206004820152601260248201527113595c98da185b9d081b9bdd08199bdd5b9960721b60448201526064015b60405180910390fd5b336000818152600160205260409020546001600160a01b031615620004dc5760405162461bcd60e51b815260206004820152601a60248201527f4163636f756e7420616c7265616479207265676973746572656400000000000060448201526064016200046b565b6000868287878787604051620004f29062000766565b620005039695949392919062000b88565b604051809103906000f08015801562000520573d6000803e3d6000fd5b5060008054600181810183557f290decd9548b62a8d60345a988386fc84ba6bc95484008f6362f93160ef3e56390910180546001600160a01b039485166001600160a01b0319918216811790925595909316825260205260409020805490931617909155505050505050565b336000818152600160205260408120549091906001600160a01b0316620005f65760405162461bcd60e51b815260206004820152601760248201527f4d65726368616e74206e6f74207265676973746572656400000000000000000060448201526064016200046b565b6001600160a01b038082166000908152600160205260408082205481516370019b3560e01b815291519316928392620006859284926370019b35926004808401939192918290030181865afa15801562000654573d6000803e3d6000fd5b505050506040513d6000823e601f3d908101601f191682016040526200067e919081019062000b08565b8762000709565b8015620006ff575060405163b2f0651760e01b81526001600160a01b0382169063b2f0651790620006bb9088906004016200097d565b602060405180830381865afa158015620006d9573d6000803e3d6000fd5b505050506040513d601f19601f82011682018060405250810190620006ff919062000c03565b9695505050505050565b6000816040516020016200071e919062000c27565b604051602081830303815290604052805190602001208360405160200162000747919062000c27565b6040516020818303038152906040528051906020012014905092915050565b610f9b8062000c4683390190565b80356001600160a01b03811681146200078c57600080fd5b919050565b600060208284031215620007a457600080fd5b620007af8262000774565b9392505050565b600060208284031215620007c957600080fd5b5035919050565b6020808252825182820181905260009190848201906040850190845b81811015620008135783516001600160a01b031683529284019291840191600101620007ec565b50909695505050505050565b634e487b7160e01b600052604160045260246000fd5b604051601f8201601f1916810167ffffffffffffffff811182821017156200086157620008616200081f565b604052919050565b600067ffffffffffffffff8211156200088657620008866200081f565b50601f01601f191660200190565b600082601f830112620008a657600080fd5b8135620008bd620008b78262000869565b62000835565b818152846020838601011115620008d357600080fd5b816020850160208301376000918101602001919091529392505050565b6000602082840312156200090357600080fd5b813567ffffffffffffffff8111156200091b57600080fd5b620004138482850162000894565b60005b83811015620009465781810151838201526020016200092c565b50506000910152565b600081518084526200096981602086016020860162000929565b601f01601f19169290920160200192915050565b602081526000620007af60208301846200094f565b600080600080600060a08688031215620009ab57600080fd5b620009b68662000774565b9450602086013567ffffffffffffffff80821115620009d457600080fd5b620009e289838a0162000894565b95506040880135915080821115620009f957600080fd5b62000a0789838a0162000894565b9450606088013591508082111562000a1e57600080fd5b62000a2c89838a0162000894565b9350608088013591508082111562000a4357600080fd5b5062000a528882890162000894565b9150509295509295909350565b6000806040838503121562000a7357600080fd5b823567ffffffffffffffff8082111562000a8c57600080fd5b62000a9a8683870162000894565b9350602085013591508082111562000ab157600080fd5b5062000ac08582860162000894565b9150509250929050565b634e487b7160e01b600052603260045260246000fd5b60006001820162000b0157634e487b7160e01b600052601160045260246000fd5b5060010190565b60006020828403121562000b1b57600080fd5b815167ffffffffffffffff81111562000b3357600080fd5b8201601f8101841362000b4557600080fd5b805162000b56620008b78262000869565b81815285602083850101111562000b6c57600080fd5b62000b7f82602083016020860162000929565b95945050505050565b6001600160a01b0387811682528616602082015260c06040820181905260009062000bb6908301876200094f565b828103606084015262000bca81876200094f565b9050828103608084015262000be081866200094f565b905082810360a084015262000bf681856200094f565b9998505050505050505050565b60006020828403121562000c1657600080fd5b81518015158114620007af57600080fd5b6000825162000c3b81846020870162000929565b919091019291505056fe60806040523480156200001157600080fd5b5060405162000f9b38038062000f9b833981016040819052620000349162000194565b600080546001600160a01b038088166001600160a01b0319928316179092556001805492891692909116919091179055600262000072858262000301565b50600362000081848262000301565b50612710600455600562000096838262000301565b506006620000a5828262000301565b50505050505050620003cd565b80516001600160a01b0381168114620000ca57600080fd5b919050565b634e487b7160e01b600052604160045260246000fd5b600082601f830112620000f757600080fd5b81516001600160401b0380821115620001145762000114620000cf565b604051601f8301601f19908116603f011681019082821181831017156200013f576200013f620000cf565b816040528381526020925086838588010111156200015c57600080fd5b600091505b8382101562000180578582018301518183018401529082019062000161565b600093810190920192909252949350505050565b60008060008060008060c08789031215620001ae57600080fd5b620001b987620000b2565b9550620001c960208801620000b2565b60408801519095506001600160401b0380821115620001e757600080fd5b620001f58a838b01620000e5565b955060608901519150808211156200020c57600080fd5b6200021a8a838b01620000e5565b945060808901519150808211156200023157600080fd5b6200023f8a838b01620000e5565b935060a08901519150808211156200025657600080fd5b506200026589828a01620000e5565b9150509295509295509295565b600181811c908216806200028757607f821691505b602082108103620002a857634e487b7160e01b600052602260045260246000fd5b50919050565b601f821115620002fc57600081815260208120601f850160051c81016020861015620002d75750805b601f850160051c820191505b81811015620002f857828155600101620002e3565b5050505b505050565b81516001600160401b038111156200031d576200031d620000cf565b62000335816200032e845462000272565b84620002ae565b602080601f8311600181146200036d5760008415620003545750858301515b600019600386901b1c1916600185901b178555620002f8565b600085815260208120601f198616915b828110156200039e578886015182559484019460019091019084016200037d565b5085821015620003bd5787850151600019600388901b60f8161c191681555b5050505050600190811b01905550565b610bbe80620003dd6000396000f3fe608060405234801561001057600080fd5b50600436106100cf5760003560e01c80636418dca81161008c5780638da5cb5b116100665780638da5cb5b1461018f5780639284f497146101a2578063b2f06517146101aa578063bfd72ecd146101cd57600080fd5b80636418dca81461016e57806370019b3514610176578063893d20e81461017e57600080fd5b8063047cced3146100d457806307452e76146100f25780630f5fb3d41461010757806312065fe014610132578063171b0188146101485780634afb08a61461015b575b600080fd5b6100dc6101e4565b6040516100e99190610703565b60405180910390f35b6101056101003660046107c0565b610276565b005b60015461011a906001600160a01b031681565b6040516001600160a01b0390911681526020016100e9565b61013a6102d5565b6040519081526020016100e9565b610105610156366004610848565b61031c565b610105610169366004610861565b6103be565b6100dc6103f8565b6100dc610486565b6000546001600160a01b031661011a565b60005461011a906001600160a01b031681565b6100dc610493565b6101bd6101b8366004610861565b6104a0565b60405190151581526020016100e9565b6101d56104f9565b6040516100e99392919061089e565b6060600380546101f3906108e1565b80601f016020809104026020016040519081016040528092919081815260200182805461021f906108e1565b801561026c5780601f106102415761010080835404028352916020019161026c565b820191906000526020600020905b81548152906001019060200180831161024f57829003601f168201915b5050505050905090565b6000546001600160a01b031633146102a95760405162461bcd60e51b81526004016102a09061091b565b60405180910390fd5b60026102b584826109ab565b5060056102c283826109ab565b5060066102cf82826109ab565b50505050565b600080546001600160a01b03163314806102f957506001546001600160a01b031633145b6103155760405162461bcd60e51b81526004016102a090610a6b565b5060045490565b6000546001600160a01b031633148061033f57506001546001600160a01b031633145b61035b5760405162461bcd60e51b81526004016102a090610a6b565b60008160045461036b9190610ac0565b136103aa5760405162461bcd60e51b815260206004820152600f60248201526e496e76616c69642062616c616e636560881b60448201526064016102a0565b806004546103b89190610ac0565b60045550565b6000546001600160a01b031633146103e85760405162461bcd60e51b81526004016102a09061091b565b60036103f482826109ab565b5050565b60068054610405906108e1565b80601f0160208091040260200160405190810160405280929190818152602001828054610431906108e1565b801561047e5780601f106104535761010080835404028352916020019161047e565b820191906000526020600020905b81548152906001019060200180831161046157829003601f168201915b505050505081565b60028054610405906108e1565b60058054610405906108e1565b600060036040516020016104b49190610af6565b60405160208183030381529060405280519060200120826040516020016104db9190610b6c565b60405160208183030381529060405280519060200120149050919050565b6060806060600260056006828054610510906108e1565b80601f016020809104026020016040519081016040528092919081815260200182805461053c906108e1565b80156105895780601f1061055e57610100808354040283529160200191610589565b820191906000526020600020905b81548152906001019060200180831161056c57829003601f168201915b5050505050925081805461059c906108e1565b80601f01602080910402602001604051908101604052809291908181526020018280546105c8906108e1565b80156106155780601f106105ea57610100808354040283529160200191610615565b820191906000526020600020905b8154815290600101906020018083116105f857829003601f168201915b50505050509150808054610628906108e1565b80601f0160208091040260200160405190810160405280929190818152602001828054610654906108e1565b80156106a15780601f10610676576101008083540402835291602001916106a1565b820191906000526020600020905b81548152906001019060200180831161068457829003601f168201915b50505050509050925092509250909192565b60005b838110156106ce5781810151838201526020016106b6565b50506000910152565b600081518084526106ef8160208601602086016106b3565b601f01601f19169290920160200192915050565b60208152600061071660208301846106d7565b9392505050565b634e487b7160e01b600052604160045260246000fd5b600082601f83011261074457600080fd5b813567ffffffffffffffff8082111561075f5761075f61071d565b604051601f8301601f19908116603f011681019082821181831017156107875761078761071d565b816040528381528660208588010111156107a057600080fd5b836020870160208301376000602085830101528094505050505092915050565b6000806000606084860312156107d557600080fd5b833567ffffffffffffffff808211156107ed57600080fd5b6107f987838801610733565b9450602086013591508082111561080f57600080fd5b61081b87838801610733565b9350604086013591508082111561083157600080fd5b5061083e86828701610733565b9150509250925092565b60006020828403121561085a57600080fd5b5035919050565b60006020828403121561087357600080fd5b813567ffffffffffffffff81111561088a57600080fd5b61089684828501610733565b949350505050565b6060815260006108b160608301866106d7565b82810360208401526108c381866106d7565b905082810360408401526108d781856106d7565b9695505050505050565b600181811c908216806108f557607f821691505b60208210810361091557634e487b7160e01b600052602260045260246000fd5b50919050565b60208082526021908201527f4f6e6c79206f776e65722063616e2063616c6c20746869732066756e6374696f6040820152603760f91b606082015260800190565b601f8211156109a657600081815260208120601f850160051c810160208610156109835750805b601f850160051c820191505b818110156109a25782815560010161098f565b5050505b505050565b815167ffffffffffffffff8111156109c5576109c561071d565b6109d9816109d384546108e1565b8461095c565b602080601f831160018114610a0e57600084156109f65750858301515b600019600386901b1c1916600185901b1785556109a2565b600085815260208120601f198616915b82811015610a3d57888601518255948401946001909101908401610a1e565b5085821015610a5b5787850151600019600388901b60f8161c191681555b5050505050600190811b01905550565b60208082526035908201527f4f6e6c79206f776e6572206f722073797374656d20636f6e747261637473206360408201527430b71031b0b636103a3434b990333ab731ba34b7b760591b606082015260800190565b8082018281126000831280158216821582161715610aee57634e487b7160e01b600052601160045260246000fd5b505092915050565b6000808354610b04816108e1565b60018281168015610b1c5760018114610b3157610b60565b60ff1984168752821515830287019450610b60565b8760005260208060002060005b85811015610b575781548a820152908401908201610b3e565b50505082870194505b50929695505050505050565b60008251610b7e8184602087016106b3565b919091019291505056fea264697066735822122088c89740f7c19f3ca173ee204ac3f03b2f2ec5d9854c6f11caa2fa4dc113d09164736f6c63430008140033a264697066735822122091ca8f02bc331c682a2d4f2c1a41ca5aad3cd853b4f2a4af5fcd898e413ca81164736f6c63430008140033",
  "linkReferences": {},
  "deployedLinkReferences": {}
}