{
  "_format": "hh-sol-artifact-1",
  "contractName": "Merchant",
  "sourceName": "contracts/fleaMarket.sol",
  "abi": [
    {
      "inputs": [
        {
          "internalType": "address",
          "name": "_ProductList",
          "type": "address"
        },
        {
          "internalType": "address",
          "name": "_owner",
          "type": "address"
        },
        {
          "internalType": "string",
          "name": "_userName",
          "type": "string"
        },
        {
          "internalType": "string",
          "name": "_password",
          "type": "string"
        },
        {
          "internalType": "string",
          "name": "_phone",
          "type": "string"
        },
        {
          "internalType": "string",
          "name": "_merchantNo",
          "type": "string"
        }
      ],
      "stateMutability": "nonpayable",
      "type": "constructor"
    },
    {
      "inputs": [],
      "name": "getBalance",
      "outputs": [
        {
          "internalType": "uint256",
          "name": "",
          "type": "uint256"
        }
      ],
      "stateMutability": "view",
      "type": "function"
    },
    {
      "inputs": [],
      "name": "getMerchantInfo",
      "outputs": [
        {
          "internalType": "string",
          "name": "",
          "type": "string"
        },
        {
          "internalType": "string",
          "name": "",
          "type": "string"
        },
        {
          "internalType": "string",
          "name": "",
          "type": "string"
        }
      ],
      "stateMutability": "view",
      "type": "function"
    },
    {
      "inputs": [],
      "name": "getOwner",
      "outputs": [
        {
          "internalType": "address",
          "name": "",
          "type": "address"
        }
      ],
      "stateMutability": "view",
      "type": "function"
    },
    {
      "inputs": [],
      "name": "getPasswordHash",
      "outputs": [
        {
          "internalType": "string",
          "name": "",
          "type": "string"
        }
      ],
      "stateMutability": "view",
      "type": "function"
    },
    {
      "inputs": [],
      "name": "merchantNo",
      "outputs": [
        {
          "internalType": "string",
          "name": "",
          "type": "string"
        }
      ],
      "stateMutability": "view",
      "type": "function"
    },
    {
      "inputs": [
        {
          "internalType": "string",
          "name": "_userName",
          "type": "string"
        },
        {
          "internalType": "string",
          "name": "_phone",
          "type": "string"
        },
        {
          "internalType": "string",
          "name": "_merchantNo",
          "type": "string"
        }
      ],
      "name": "modifyMerchantInfo",
      "outputs": [],
      "stateMutability": "nonpayable",
      "type": "function"
    },
    {
      "inputs": [],
      "name": "owner",
      "outputs": [
        {
          "internalType": "address",
          "name": "",
          "type": "address"
        }
      ],
      "stateMutability": "view",
      "type": "function"
    },
    {
      "inputs": [],
      "name": "phone",
      "outputs": [
        {
          "internalType": "string",
          "name": "",
          "type": "string"
        }
      ],
      "stateMutability": "view",
      "type": "function"
    },
    {
      "inputs": [],
      "name": "productList",
      "outputs": [
        {
          "internalType": "address",
          "name": "",
          "type": "address"
        }
      ],
      "stateMutability": "view",
      "type": "function"
    },
    {
      "inputs": [
        {
          "internalType": "string",
          "name": "_pwd",
          "type": "string"
        }
      ],
      "name": "pwdRight",
      "outputs": [
        {
          "internalType": "bool",
          "name": "",
          "type": "bool"
        }
      ],
      "stateMutability": "view",
      "type": "function"
    },
    {
      "inputs": [
        {
          "internalType": "int256",
          "name": "increment",
          "type": "int256"
        }
      ],
      "name": "updateBalance",
      "outputs": [],
      "stateMutability": "nonpayable",
      "type": "function"
    },
    {
      "inputs": [
        {
          "internalType": "string",
          "name": "newPwd",
          "type": "string"
        }
      ],
      "name": "updatePassword",
      "outputs": [],
      "stateMutability": "nonpayable",
      "type": "function"
    },
    {
      "inputs": [],
      "name": "userName",
      "outputs": [
        {
          "internalType": "string",
          "name": "",
          "type": "string"
        }
      ],
      "stateMutability": "view",
      "type": "function"
    }
  ],
  "bytecode": "0x60806040523480156200001157600080fd5b5060405162000f9b38038062000f9b833981016040819052620000349162000194565b600080546001600160a01b038088166001600160a01b0319928316179092556001805492891692909116919091179055600262000072858262000301565b50600362000081848262000301565b50612710600455600562000096838262000301565b506006620000a5828262000301565b50505050505050620003cd565b80516001600160a01b0381168114620000ca57600080fd5b919050565b634e487b7160e01b600052604160045260246000fd5b600082601f830112620000f757600080fd5b81516001600160401b0380821115620001145762000114620000cf565b604051601f8301601f19908116603f011681019082821181831017156200013f576200013f620000cf565b816040528381526020925086838588010111156200015c57600080fd5b600091505b8382101562000180578582018301518183018401529082019062000161565b600093810190920192909252949350505050565b60008060008060008060c08789031215620001ae57600080fd5b620001b987620000b2565b9550620001c960208801620000b2565b60408801519095506001600160401b0380821115620001e757600080fd5b620001f58a838b01620000e5565b955060608901519150808211156200020c57600080fd5b6200021a8a838b01620000e5565b945060808901519150808211156200023157600080fd5b6200023f8a838b01620000e5565b935060a08901519150808211156200025657600080fd5b506200026589828a01620000e5565b9150509295509295509295565b600181811c908216806200028757607f821691505b602082108103620002a857634e487b7160e01b600052602260045260246000fd5b50919050565b601f821115620002fc57600081815260208120601f850160051c81016020861015620002d75750805b601f850160051c820191505b81811015620002f857828155600101620002e3565b5050505b505050565b81516001600160401b038111156200031d576200031d620000cf565b62000335816200032e845462000272565b84620002ae565b602080601f8311600181146200036d5760008415620003545750858301515b600019600386901b1c1916600185901b178555620002f8565b600085815260208120601f198616915b828110156200039e578886015182559484019460019091019084016200037d565b5085821015620003bd5787850151600019600388901b60f8161c191681555b5050505050600190811b01905550565b610bbe80620003dd6000396000f3fe608060405234801561001057600080fd5b50600436106100cf5760003560e01c80636418dca81161008c5780638da5cb5b116100665780638da5cb5b1461018f5780639284f497146101a2578063b2f06517146101aa578063bfd72ecd146101cd57600080fd5b80636418dca81461016e57806370019b3514610176578063893d20e81461017e57600080fd5b8063047cced3146100d457806307452e76146100f25780630f5fb3d41461010757806312065fe014610132578063171b0188146101485780634afb08a61461015b575b600080fd5b6100dc6101e4565b6040516100e99190610703565b60405180910390f35b6101056101003660046107c0565b610276565b005b60015461011a906001600160a01b031681565b6040516001600160a01b0390911681526020016100e9565b61013a6102d5565b6040519081526020016100e9565b610105610156366004610848565b61031c565b610105610169366004610861565b6103be565b6100dc6103f8565b6100dc610486565b6000546001600160a01b031661011a565b60005461011a906001600160a01b031681565b6100dc610493565b6101bd6101b8366004610861565b6104a0565b60405190151581526020016100e9565b6101d56104f9565b6040516100e99392919061089e565b6060600380546101f3906108e1565b80601f016020809104026020016040519081016040528092919081815260200182805461021f906108e1565b801561026c5780601f106102415761010080835404028352916020019161026c565b820191906000526020600020905b81548152906001019060200180831161024f57829003601f168201915b5050505050905090565b6000546001600160a01b031633146102a95760405162461bcd60e51b81526004016102a09061091b565b60405180910390fd5b60026102b584826109ab565b5060056102c283826109ab565b5060066102cf82826109ab565b50505050565b600080546001600160a01b03163314806102f957506001546001600160a01b031633145b6103155760405162461bcd60e51b81526004016102a090610a6b565b5060045490565b6000546001600160a01b031633148061033f57506001546001600160a01b031633145b61035b5760405162461bcd60e51b81526004016102a090610a6b565b60008160045461036b9190610ac0565b136103aa5760405162461bcd60e51b815260206004820152600f60248201526e496e76616c69642062616c616e636560881b60448201526064016102a0565b806004546103b89190610ac0565b60045550565b6000546001600160a01b031633146103e85760405162461bcd60e51b81526004016102a09061091b565b60036103f482826109ab565b5050565b60068054610405906108e1565b80601f0160208091040260200160405190810160405280929190818152602001828054610431906108e1565b801561047e5780601f106104535761010080835404028352916020019161047e565b820191906000526020600020905b81548152906001019060200180831161046157829003601f168201915b505050505081565b60028054610405906108e1565b60058054610405906108e1565b600060036040516020016104b49190610af6565b60405160208183030381529060405280519060200120826040516020016104db9190610b6c565b60405160208183030381529060405280519060200120149050919050565b6060806060600260056006828054610510906108e1565b80601f016020809104026020016040519081016040528092919081815260200182805461053c906108e1565b80156105895780601f1061055e57610100808354040283529160200191610589565b820191906000526020600020905b81548152906001019060200180831161056c57829003601f168201915b5050505050925081805461059c906108e1565b80601f01602080910402602001604051908101604052809291908181526020018280546105c8906108e1565b80156106155780601f106105ea57610100808354040283529160200191610615565b820191906000526020600020905b8154815290600101906020018083116105f857829003601f168201915b50505050509150808054610628906108e1565b80601f0160208091040260200160405190810160405280929190818152602001828054610654906108e1565b80156106a15780601f10610676576101008083540402835291602001916106a1565b820191906000526020600020905b81548152906001019060200180831161068457829003601f168201915b50505050509050925092509250909192565b60005b838110156106ce5781810151838201526020016106b6565b50506000910152565b600081518084526106ef8160208601602086016106b3565b601f01601f19169290920160200192915050565b60208152600061071660208301846106d7565b9392505050565b634e487b7160e01b600052604160045260246000fd5b600082601f83011261074457600080fd5b813567ffffffffffffffff8082111561075f5761075f61071d565b604051601f8301601f19908116603f011681019082821181831017156107875761078761071d565b816040528381528660208588010111156107a057600080fd5b836020870160208301376000602085830101528094505050505092915050565b6000806000606084860312156107d557600080fd5b833567ffffffffffffffff808211156107ed57600080fd5b6107f987838801610733565b9450602086013591508082111561080f57600080fd5b61081b87838801610733565b9350604086013591508082111561083157600080fd5b5061083e86828701610733565b9150509250925092565b60006020828403121561085a57600080fd5b5035919050565b60006020828403121561087357600080fd5b813567ffffffffffffffff81111561088a57600080fd5b61089684828501610733565b949350505050565b6060815260006108b160608301866106d7565b82810360208401526108c381866106d7565b905082810360408401526108d781856106d7565b9695505050505050565b600181811c908216806108f557607f821691505b60208210810361091557634e487b7160e01b600052602260045260246000fd5b50919050565b60208082526021908201527f4f6e6c79206f776e65722063616e2063616c6c20746869732066756e6374696f6040820152603760f91b606082015260800190565b601f8211156109a657600081815260208120601f850160051c810160208610156109835750805b601f850160051c820191505b818110156109a25782815560010161098f565b5050505b505050565b815167ffffffffffffffff8111156109c5576109c561071d565b6109d9816109d384546108e1565b8461095c565b602080601f831160018114610a0e57600084156109f65750858301515b600019600386901b1c1916600185901b1785556109a2565b600085815260208120601f198616915b82811015610a3d57888601518255948401946001909101908401610a1e565b5085821015610a5b5787850151600019600388901b60f8161c191681555b5050505050600190811b01905550565b60208082526035908201527f4f6e6c79206f776e6572206f722073797374656d20636f6e747261637473206360408201527430b71031b0b636103a3434b990333ab731ba34b7b760591b606082015260800190565b8082018281126000831280158216821582161715610aee57634e487b7160e01b600052601160045260246000fd5b505092915050565b6000808354610b04816108e1565b60018281168015610b1c5760018114610b3157610b60565b60ff1984168752821515830287019450610b60565b8760005260208060002060005b85811015610b575781548a820152908401908201610b3e565b50505082870194505b50929695505050505050565b60008251610b7e8184602087016106b3565b919091019291505056fea264697066735822122088c89740f7c19f3ca173ee204ac3f03b2f2ec5d9854c6f11caa2fa4dc113d09164736f6c63430008140033",
  "linkReferences": {},
  "deployedLinkReferences": {}
}