{
  "_format": "hh-sol-artifact-1",
  "contractName": "ProductList",
  "sourceName": "contracts/fleaMarket.sol",
  "abi": [
    {
      "inputs": [
        {
          "internalType": "address",
          "name": "userListAddr",
          "type": "address"
        },
        {
          "internalType": "address",
          "name": "evaluationListAddr",
          "type": "address"
        },
        {
          "internalType": "uint256",
          "name": "productId",
          "type": "uint256"
        },
        {
          "internalType": "uint8",
          "name": "rating",
          "type": "uint8"
        },
        {
          "internalType": "string",
          "name": "comment",
          "type": "string"
        },
        {
          "internalType": "string",
          "name": "imageHash",
          "type": "string"
        },
        {
          "internalType": "bool",
          "name": "isMerchant",
          "type": "bool"
        }
      ],
      "name": "addEvaluation",
      "outputs": [],
      "stateMutability": "nonpayable",
      "type": "function"
    },
    {
      "inputs": [
        {
          "internalType": "uint256",
          "name": "productId",
          "type": "uint256"
        }
      ],
      "name": "addFavorite",
      "outputs": [],
      "stateMutability": "nonpayable",
      "type": "function"
    },
    {
      "inputs": [
        {
          "internalType": "address",
          "name": "AdminListAddr",
          "type": "address"
        },
        {
          "internalType": "address",
          "name": "AdminAddr",
          "type": "address"
        },
        {
          "internalType": "uint256",
          "name": "productId",
          "type": "uint256"
        },
        {
          "internalType": "bool",
          "name": "takeAction",
          "type": "bool"
        }
      ],
      "name": "evaluationReport",
      "outputs": [],
      "stateMutability": "nonpayable",
      "type": "function"
    },
    {
      "inputs": [],
      "name": "getAllProductReports",
      "outputs": [
        {
          "components": [
            {
              "internalType": "uint256",
              "name": "productId",
              "type": "uint256"
            },
            {
              "internalType": "address",
              "name": "reporter",
              "type": "address"
            },
            {
              "internalType": "string",
              "name": "reason",
              "type": "string"
            },
            {
              "internalType": "uint256",
              "name": "timestamp",
              "type": "uint256"
            }
          ],
          "internalType": "struct ProductList.Report[]",
          "name": "",
          "type": "tuple[]"
        }
      ],
      "stateMutability": "view",
      "type": "function"
    },
    {
      "inputs": [],
      "name": "getAllProducts",
      "outputs": [
        {
          "components": [
            {
              "internalType": "uint256",
              "name": "Id",
              "type": "uint256"
            },
            {
              "internalType": "address",
              "name": "merchant",
              "type": "address"
            },
            {
              "internalType": "string",
              "name": "name",
              "type": "string"
            },
            {
              "internalType": "string",
              "name": "description",
              "type": "string"
            },
            {
              "internalType": "string",
              "name": "category",
              "type": "string"
            },
            {
              "internalType": "uint256",
              "name": "price",
              "type": "uint256"
            },
            {
              "internalType": "uint256",
              "name": "quantity",
              "type": "uint256"
            },
            {
              "internalType": "string",
              "name": "imageHash",
              "type": "string"
            },
            {
              "internalType": "uint256",
              "name": "timestamp",
              "type": "uint256"
            },
            {
              "internalType": "bool",
              "name": "isValid",
              "type": "bool"
            }
          ],
          "internalType": "struct ProductList.Product[]",
          "name": "",
          "type": "tuple[]"
        }
      ],
      "stateMutability": "view",
      "type": "function"
    },
    {
      "inputs": [],
      "name": "getLastProductId",
      "outputs": [
        {
          "internalType": "uint256",
          "name": "",
          "type": "uint256"
        }
      ],
      "stateMutability": "view",
      "type": "function"
    },
    {
      "inputs": [
        {
          "internalType": "address",
          "name": "evaluationListAddr",
          "type": "address"
        },
        {
          "internalType": "address",
          "name": "merchantAddr",
          "type": "address"
        }
      ],
      "name": "getMerchantRating",
      "outputs": [
        {
          "internalType": "uint256",
          "name": "",
          "type": "uint256"
        }
      ],
      "stateMutability": "view",
      "type": "function"
    },
    {
      "inputs": [
        {
          "internalType": "address",
          "name": "userAddr",
          "type": "address"
        }
      ],
      "name": "getMerchantsByUser",
      "outputs": [
        {
          "internalType": "address[]",
          "name": "",
          "type": "address[]"
        }
      ],
      "stateMutability": "view",
      "type": "function"
    },
    {
      "inputs": [
        {
          "internalType": "uint256",
          "name": "productId",
          "type": "uint256"
        }
      ],
      "name": "getProductById",
      "outputs": [
        {
          "components": [
            {
              "internalType": "uint256",
              "name": "Id",
              "type": "uint256"
            },
            {
              "internalType": "address",
              "name": "merchant",
              "type": "address"
            },
            {
              "internalType": "string",
              "name": "name",
              "type": "string"
            },
            {
              "internalType": "string",
              "name": "description",
              "type": "string"
            },
            {
              "internalType": "string",
              "name": "category",
              "type": "string"
            },
            {
              "internalType": "uint256",
              "name": "price",
              "type": "uint256"
            },
            {
              "internalType": "uint256",
              "name": "quantity",
              "type": "uint256"
            },
            {
              "internalType": "string",
              "name": "imageHash",
              "type": "string"
            },
            {
              "internalType": "uint256",
              "name": "timestamp",
              "type": "uint256"
            },
            {
              "internalType": "bool",
              "name": "isValid",
              "type": "bool"
            }
          ],
          "internalType": "struct ProductList.Product",
          "name": "",
          "type": "tuple"
        }
      ],
      "stateMutability": "view",
      "type": "function"
    },
    {
      "inputs": [
        {
          "internalType": "address",
          "name": "merchant",
          "type": "address"
        }
      ],
      "name": "getProductIdsByMerchant",
      "outputs": [
        {
          "internalType": "uint256[]",
          "name": "",
          "type": "uint256[]"
        }
      ],
      "stateMutability": "view",
      "type": "function"
    },
    {
      "inputs": [
        {
          "internalType": "uint256",
          "name": "productId",
          "type": "uint256"
        }
      ],
      "name": "getProductReports",
      "outputs": [
        {
          "components": [
            {
              "internalType": "uint256",
              "name": "productId",
              "type": "uint256"
            },
            {
              "internalType": "address",
              "name": "reporter",
              "type": "address"
            },
            {
              "internalType": "string",
              "name": "reason",
              "type": "string"
            },
            {
              "internalType": "uint256",
              "name": "timestamp",
              "type": "uint256"
            }
          ],
          "internalType": "struct ProductList.Report[]",
          "name": "",
          "type": "tuple[]"
        }
      ],
      "stateMutability": "view",
      "type": "function"
    },
    {
      "inputs": [
        {
          "internalType": "address",
          "name": "merchantAddr",
          "type": "address"
        }
      ],
      "name": "getProductsByMerchant",
      "outputs": [
        {
          "components": [
            {
              "internalType": "uint256",
              "name": "Id",
              "type": "uint256"
            },
            {
              "internalType": "address",
              "name": "merchant",
              "type": "address"
            },
            {
              "internalType": "string",
              "name": "name",
              "type": "string"
            },
            {
              "internalType": "string",
              "name": "description",
              "type": "string"
            },
            {
              "internalType": "string",
              "name": "category",
              "type": "string"
            },
            {
              "internalType": "uint256",
              "name": "price",
              "type": "uint256"
            },
            {
              "internalType": "uint256",
              "name": "quantity",
              "type": "uint256"
            },
            {
              "internalType": "string",
              "name": "imageHash",
              "type": "string"
            },
            {
              "internalType": "uint256",
              "name": "timestamp",
              "type": "uint256"
            },
            {
              "internalType": "bool",
              "name": "isValid",
              "type": "bool"
            }
          ],
          "internalType": "struct ProductList.Product[]",
          "name": "",
          "type": "tuple[]"
        }
      ],
      "stateMutability": "view",
      "type": "function"
    },
    {
      "inputs": [],
      "name": "getRecordList",
      "outputs": [
        {
          "internalType": "uint256[]",
          "name": "",
          "type": "uint256[]"
        }
      ],
      "stateMutability": "view",
      "type": "function"
    },
    {
      "inputs": [
        {
          "internalType": "address",
          "name": "userAddr",
          "type": "address"
        }
      ],
      "name": "getTransactionHistory",
      "outputs": [
        {
          "components": [
            {
              "internalType": "address",
              "name": "user",
              "type": "address"
            },
            {
              "internalType": "address",
              "name": "merchant",
              "type": "address"
            },
            {
              "internalType": "uint256",
              "name": "productId",
              "type": "uint256"
            },
            {
              "internalType": "uint256",
              "name": "quantity",
              "type": "uint256"
            },
            {
              "internalType": "uint256",
              "name": "totalPrice",
              "type": "uint256"
            },
            {
              "internalType": "uint256",
              "name": "timestamp",
              "type": "uint256"
            }
          ],
          "internalType": "struct ProductList.Transaction[]",
          "name": "",
          "type": "tuple[]"
        }
      ],
      "stateMutability": "view",
      "type": "function"
    },
    {
      "inputs": [],
      "name": "getUserFavorites",
      "outputs": [
        {
          "components": [
            {
              "internalType": "uint256",
              "name": "Id",
              "type": "uint256"
            },
            {
              "internalType": "address",
              "name": "merchant",
              "type": "address"
            },
            {
              "internalType": "string",
              "name": "name",
              "type": "string"
            },
            {
              "internalType": "string",
              "name": "description",
              "type": "string"
            },
            {
              "internalType": "string",
              "name": "category",
              "type": "string"
            },
            {
              "internalType": "uint256",
              "name": "price",
              "type": "uint256"
            },
            {
              "internalType": "uint256",
              "name": "quantity",
              "type": "uint256"
            },
            {
              "internalType": "string",
              "name": "imageHash",
              "type": "string"
            },
            {
              "internalType": "uint256",
              "name": "timestamp",
              "type": "uint256"
            },
            {
              "internalType": "bool",
              "name": "isValid",
              "type": "bool"
            }
          ],
          "internalType": "struct ProductList.Product[]",
          "name": "",
          "type": "tuple[]"
        }
      ],
      "stateMutability": "view",
      "type": "function"
    },
    {
      "inputs": [
        {
          "internalType": "address",
          "name": "evaluationListAddr",
          "type": "address"
        },
        {
          "internalType": "address",
          "name": "userAddr",
          "type": "address"
        }
      ],
      "name": "getUserRating",
      "outputs": [
        {
          "internalType": "uint256",
          "name": "",
          "type": "uint256"
        }
      ],
      "stateMutability": "view",
      "type": "function"
    },
    {
      "inputs": [
        {
          "internalType": "uint256",
          "name": "",
          "type": "uint256"
        },
        {
          "internalType": "uint256",
          "name": "",
          "type": "uint256"
        }
      ],
      "name": "productReports",
      "outputs": [
        {
          "internalType": "uint256",
          "name": "productId",
          "type": "uint256"
        },
        {
          "internalType": "address",
          "name": "reporter",
          "type": "address"
        },
        {
          "internalType": "string",
          "name": "reason",
          "type": "string"
        },
        {
          "internalType": "uint256",
          "name": "timestamp",
          "type": "uint256"
        }
      ],
      "stateMutability": "view",
      "type": "function"
    },
    {
      "inputs": [
        {
          "internalType": "address",
          "name": "merchantListAddr",
          "type": "address"
        },
        {
          "internalType": "address",
          "name": "merchantAddr",
          "type": "address"
        },
        {
          "internalType": "string",
          "name": "_name",
          "type": "string"
        },
        {
          "internalType": "string",
          "name": "_description",
          "type": "string"
        },
        {
          "internalType": "string",
          "name": "_category",
          "type": "string"
        },
        {
          "internalType": "uint256",
          "name": "_price",
          "type": "uint256"
        },
        {
          "internalType": "uint256",
          "name": "_quantity",
          "type": "uint256"
        },
        {
          "internalType": "string",
          "name": "_imageHash",
          "type": "string"
        }
      ],
      "name": "publishProduct",
      "outputs": [],
      "stateMutability": "nonpayable",
      "type": "function"
    },
    {
      "inputs": [
        {
          "internalType": "address",
          "name": "evaluationListAddr",
          "type": "address"
        },
        {
          "internalType": "address",
          "name": "userListAddr",
          "type": "address"
        },
        {
          "internalType": "address",
          "name": "userAddr",
          "type": "address"
        },
        {
          "internalType": "uint256",
          "name": "_Id",
          "type": "uint256"
        },
        {
          "internalType": "uint256",
          "name": "_number",
          "type": "uint256"
        }
      ],
      "name": "purchaseProduct",
      "outputs": [],
      "stateMutability": "nonpayable",
      "type": "function"
    },
    {
      "inputs": [
        {
          "internalType": "uint256",
          "name": "productId",
          "type": "uint256"
        }
      ],
      "name": "removeFavorite",
      "outputs": [],
      "stateMutability": "nonpayable",
      "type": "function"
    },
    {
      "inputs": [
        {
          "internalType": "address",
          "name": "merchantListAddr",
          "type": "address"
        },
        {
          "internalType": "address",
          "name": "merchantAddr",
          "type": "address"
        },
        {
          "internalType": "uint256",
          "name": "_Id",
          "type": "uint256"
        }
      ],
      "name": "removeProduct",
      "outputs": [],
      "stateMutability": "nonpayable",
      "type": "function"
    },
    {
      "inputs": [
        {
          "internalType": "uint256",
          "name": "productId",
          "type": "uint256"
        },
        {
          "internalType": "string",
          "name": "reason",
          "type": "string"
        }
      ],
      "name": "reportProduct",
      "outputs": [],
      "stateMutability": "nonpayable",
      "type": "function"
    },
    {
      "inputs": [
        {
          "internalType": "address",
          "name": "",
          "type": "address"
        },
        {
          "internalType": "uint256",
          "name": "",
          "type": "uint256"
        }
      ],
      "name": "userTransactions",
      "outputs": [
        {
          "internalType": "address",
          "name": "user",
          "type": "address"
        },
        {
          "internalType": "address",
          "name": "merchant",
          "type": "address"
        },
        {
          "internalType": "uint256",
          "name": "productId",
          "type": "uint256"
        },
        {
          "internalType": "uint256",
          "name": "quantity",
          "type": "uint256"
        },
        {
          "internalType": "uint256",
          "name": "totalPrice",
          "type": "uint256"
        },
        {
          "internalType": "uint256",
          "name": "timestamp",
          "type": "uint256"
        }
      ],
      "stateMutability": "view",
      "type": "function"
    }
  ],
  "bytecode": "0x608060405234801561001057600080fd5b50613976806100206000396000f3fe608060405234801561001057600080fd5b506004361061014d5760003560e01c80635dc1645b116100c3578063b0efa0751161007c578063b0efa075146102de578063b842ec44146102e6578063cc6da4af14610331578063d20cf0e814610344578063d800df5e14610364578063de0a43ac1461036c57600080fd5b80635dc1645b1461025a578063654863d01461026f57806366dd948c146102825780636de6b5af146102955780636e25199e146102a857806390d87a17146102cb57600080fd5b80633203b1e0116101155780633203b1e0146101be5780633f70c2b4146101df578063488ede8b146101ff5780634cbb1e1a146102125780634ec2d288146102325780635404470b1461025257600080fd5b806302ee3a52146101525780630aeb4140146101705780630b3d85eb1461018557806325ecf81e146101985780633106f8ef146101ab575b600080fd5b61015a61037f565b6040516101679190612f49565b60405180910390f35b61018361017e366004612fab565b61072f565b005b610183610193366004612fe9565b610833565b6101836101a6366004612fab565b61096a565b6101836101b9366004613043565b6109bd565b6101d16101cc366004613096565b610b27565b604051908152602001610167565b6101f26101ed366004612fab565b610ba1565b60405161016791906130cf565b6101d161020d366004613096565b610e7f565b6102256102203660046130e9565b610eb2565b6040516101679190613106565b6102456102403660046130e9565b611038565b604051610167919061314a565b610225611197565b6102626111ef565b604051610167919061318b565b61018361027d3660046132c5565b6114aa565b6101836102903660046133a7565b6116b6565b61015a6102a33660046130e9565b611d4b565b6102bb6102b6366004613402565b61218e565b6040516101679493929190613424565b6101836102d936600461345f565b61226a565b6101d161232d565b6102f96102f43660046134a6565b61235f565b604080516001600160a01b039788168152969095166020870152938501929092526060840152608083015260a082015260c001610167565b61026261033f366004612fab565b6123bf565b6103576103523660046130e9565b6124ed565b60405161016791906134d2565b61015a61259b565b61018361037a366004613556565b612912565b60606000805b6000548110156103af578161039981613628565b92505080806103a790613628565b915050610385565b5060008167ffffffffffffffff8111156103cb576103cb613222565b60405190808252806020026020018201604052801561040457816020015b6103f1612d2d565b8152602001906001900390816103e95790505b5090506000915060005b600054811015610728576001600080838154811061042e5761042e613641565b6000918252602080832090910154835282810193909352604091820190208151610140810183528154815260018201546001600160a01b031693810193909352600281018054919284019161048290613657565b80601f01602080910402602001604051908101604052809291908181526020018280546104ae90613657565b80156104fb5780601f106104d0576101008083540402835291602001916104fb565b820191906000526020600020905b8154815290600101906020018083116104de57829003601f168201915b5050505050815260200160038201805461051490613657565b80601f016020809104026020016040519081016040528092919081815260200182805461054090613657565b801561058d5780601f106105625761010080835404028352916020019161058d565b820191906000526020600020905b81548152906001019060200180831161057057829003601f168201915b505050505081526020016004820180546105a690613657565b80601f01602080910402602001604051908101604052809291908181526020018280546105d290613657565b801561061f5780601f106105f45761010080835404028352916020019161061f565b820191906000526020600020905b81548152906001019060200180831161060257829003601f168201915b50505050508152602001600582015481526020016006820154815260200160078201805461064c90613657565b80601f016020809104026020016040519081016040528092919081815260200182805461067890613657565b80156106c55780601f1061069a576101008083540402835291602001916106c5565b820191906000526020600020905b8154815290600101906020018083116106a857829003601f168201915b50505091835250506008820154602082015260099091015460ff16151560409091015282518390859081106106fc576106fc613641565b6020026020010181905250828061071290613628565b935050808061072090613628565b91505061040e565b5092915050565b60008181526001602052604090206009015460ff166107695760405162461bcd60e51b815260040161076090613691565b60405180910390fd5b336000908152600260205260408120905b815481101561082e578282828154811061079657610796613641565b90600052602060002001540361081c57815482906107b6906001906136d7565b815481106107c6576107c6613641565b90600052602060002001548282815481106107e3576107e3613641565b906000526020600020018190555081805480610801576108016136ea565b60019003818190600052602060002001600090559055505050565b8061082681613628565b91505061077a565b505050565b60008181526001602052604090206009015460ff1661085157600080fd5b6000829050336001600160a01b0316816001600160a01b0316638da5cb5b6040518163ffffffff1660e01b8152600401602060405180830381865afa15801561089e573d6000803e3d6000fd5b505050506040513d601f19601f820116820180604052508101906108c29190613700565b6001600160a01b0316146108d557600080fd5b604051631a2f716760e01b81526001600160a01b038481166004830152859190821690631a2f716790602401602060405180830381865afa15801561091e573d6000803e3d6000fd5b505050506040513d601f19601f82011682018060405250810190610942919061371d565b61094b57600080fd5b50506000908152600160205260409020600901805460ff191690555050565b60008181526001602052604090206009015460ff1661099b5760405162461bcd60e51b815260040161076090613691565b3360009081526002602090815260408220805460018101825590835291200155565b60008281526001602052604090206009015460ff166109ee5760405162461bcd60e51b815260040161076090613691565b6000839050336001600160a01b0316816001600160a01b0316638da5cb5b6040518163ffffffff1660e01b8152600401602060405180830381865afa158015610a3b573d6000803e3d6000fd5b505050506040513d601f19601f82011682018060405250810190610a5f9190613700565b6001600160a01b031614610a7257600080fd5b604051630935e01b60e21b81526001600160a01b0385811660048301528691908216906324d7806c90602401602060405180830381865afa158015610abb573d6000803e3d6000fd5b505050506040513d601f19601f82011682018060405250810190610adf919061371d565b610ae857600080fd5b8215610b08576000848152600160205260409020600901805460ff191690555b6000848152600360205260408120610b1f91612d8b565b505050505050565b60405163c60e818960e01b81526001600160a01b038281166004830152600091849182169063c60e8189906024015b602060405180830381865afa158015610b73573d6000803e3d6000fd5b505050506040513d601f19601f82011682018060405250810190610b97919061373a565b9150505b92915050565b610ba9612d2d565b60008281526001602052604090206009015460ff16610bc757600080fd5b60008281526001602081815260409283902083516101408101855281548152928101546001600160a01b031691830191909152600281018054919384929084019190610c1290613657565b80601f0160208091040260200160405190810160405280929190818152602001828054610c3e90613657565b8015610c8b5780601f10610c6057610100808354040283529160200191610c8b565b820191906000526020600020905b815481529060010190602001808311610c6e57829003601f168201915b50505050508152602001600382018054610ca490613657565b80601f0160208091040260200160405190810160405280929190818152602001828054610cd090613657565b8015610d1d5780601f10610cf257610100808354040283529160200191610d1d565b820191906000526020600020905b815481529060010190602001808311610d0057829003601f168201915b50505050508152602001600482018054610d3690613657565b80601f0160208091040260200160405190810160405280929190818152602001828054610d6290613657565b8015610daf5780601f10610d8457610100808354040283529160200191610daf565b820191906000526020600020905b815481529060010190602001808311610d9257829003601f168201915b505050505081526020016005820154815260200160068201548152602001600782018054610ddc90613657565b80601f0160208091040260200160405190810160405280929190818152602001828054610e0890613657565b8015610e555780601f10610e2a57610100808354040283529160200191610e55565b820191906000526020600020905b815481529060010190602001808311610e3857829003601f168201915b50505091835250506008820154602082015260099091015460ff1615156040909101529392505050565b60405163460168c360e01b81526001600160a01b038281166004830152600091849182169063460168c390602401610b56565b60606000805b600054811015610f2f57836001600160a01b031660016000808481548110610ee257610ee2613641565b600091825260208083209091015483528201929092526040019020600101546001600160a01b031603610f1d5781610f1981613628565b9250505b80610f2781613628565b915050610eb8565b5060008167ffffffffffffffff811115610f4b57610f4b613222565b604051908082528060200260200182016040528015610f74578160200160208202803683370190505b5090506000915060005b60005481101561103057846001600160a01b031660016000808481548110610fa857610fa8613641565b600091825260208083209091015483528201929092526040019020600101546001600160a01b03160361101e5760008181548110610fe857610fe8613641565b9060005260206000200154828480610fff90613628565b95508151811061101157611011613641565b6020026020010181815250505b8061102881613628565b915050610f7e565b509392505050565b6001600160a01b0381166000908152600460209081526040808320805482518185028101850190935280835260609493849084015b828210156110e35760008481526020908190206040805160c0810182526006860290920180546001600160a01b0390811684526001808301549091168486015260028201549284019290925260038101546060840152600481015460808401526005015460a0830152908352909201910161106d565b5050505090506000815167ffffffffffffffff81111561110557611105613222565b60405190808252806020026020018201604052801561112e578160200160208202803683370190505b50905060005b82518110156110305782818151811061114f5761114f613641565b60200260200101516020015182828151811061116d5761116d613641565b6001600160a01b03909216602092830291909101909101528061118f81613628565b915050611134565b606060008054806020026020016040519081016040528092919081815260200182805480156111e557602002820191906000526020600020905b8154815260200190600101908083116111d1575b5050505050905090565b60606000805b600054811015611251576003600080838154811061121557611215613641565b90600052602060002001548152602001908152602001600020805490508261123d9190613753565b91508061124981613628565b9150506111f5565b5060008167ffffffffffffffff81111561126d5761126d613222565b6040519080825280602002602001820160405280156112d257816020015b6112bf60405180608001604052806000815260200160006001600160a01b0316815260200160608152602001600081525090565b81526020019060019003908161128b5790505b5090506000805b6000548110156114a1576000600360008084815481106112fb576112fb613641565b90600052602060002001548152602001908152602001600020805480602002602001604051908101604052809291908181526020016000905b8282101561142257600084815260209081902060408051608081018252600486029092018054835260018101546001600160a01b0316938301939093526002830180549293929184019161138790613657565b80601f01602080910402602001604051908101604052809291908181526020018280546113b390613657565b80156114005780601f106113d557610100808354040283529160200191611400565b820191906000526020600020905b8154815290600101906020018083116113e357829003601f168201915b5050505050815260200160038201548152505081526020019060010190611334565b50505050905060005b815181101561148c5781818151811061144657611446613641565b602002602001015185858151811061146057611460613641565b6020026020010181905250838061147690613628565b945050808061148490613628565b91505061142b565b5050808061149990613628565b9150506112d9565b50909392505050565b6000879050336001600160a01b0316816001600160a01b0316638da5cb5b6040518163ffffffff1660e01b8152600401602060405180830381865afa1580156114f7573d6000803e3d6000fd5b505050506040513d601f19601f8201168201806040525081019061151b9190613700565b6001600160a01b03161461152e57600080fd5b604051631a2f716760e01b81526001600160a01b0389811660048301528a9190821690631a2f716790602401602060405180830381865afa158015611577573d6000803e3d6000fd5b505050506040513d601f19601f8201168201806040525081019061159b919061371d565b6115a457600080fd5b600080546115b35760016115ea565b600080546115c3906001906136d7565b815481106115d3576115d3613641565b906000526020600020015460016115ea9190613753565b60008054600180820183557f290decd9548b62a8d60345a988386fc84ba6bc95484008f6362f93160ef3e5639091018390558282526020819052604090912082815590810180546001600160a01b0319166001600160a01b038e16179055909150600281016116598b826137ac565b50600381016116688a826137ac565b506004810161167789826137ac565b5060058101879055600681018690556007810161169486826137ac565b50426008820155600901805460ff191660011790555050505050505050505050565b60008281526001602052604090206009015460ff166116e75760405162461bcd60e51b815260040161076090613691565b6000839050806001600160a01b0316638da5cb5b6040518163ffffffff1660e01b8152600401602060405180830381865afa15801561172a573d6000803e3d6000fd5b505050506040513d601f19601f8201168201806040525081019061174e9190613700565b6001600160a01b0316336001600160a01b0316146117a75760405162461bcd60e51b815260206004820152601660248201527521b0b63632b91034b9903737ba103a3432903ab9b2b960511b6044820152606401610760565b604051634209fff160e01b81526001600160a01b038581166004830152869190821690634209fff190602401602060405180830381865afa1580156117f0573d6000803e3d6000fd5b505050506040513d601f19601f82011682018060405250810190611814919061371d565b6118595760405162461bcd60e51b8152602060048201526016602482015275155cd95c881a5cc81b9bdd081c9959da5cdd195c995960521b6044820152606401610760565b6000848152600160205260409020836118b45760405162461bcd60e51b815260206004820152601b60248201527f5468652070726f64756374206973206e6f742073656c656374656400000000006044820152606401610760565b60008160050154856118c6919061386c565b905080846001600160a01b03166312065fe06040518163ffffffff1660e01b8152600401602060405180830381865afa158015611907573d6000803e3d6000fd5b505050506040513d601f19601f8201168201806040525081019061192b919061373a565b1161196f5760405162461bcd60e51b8152602060048201526014602482015273496e73756666696369656e742062616c616e636560601b6044820152606401610760565b60018201546001600160a01b0390811690851663171b018861199084613883565b6040518263ffffffff1660e01b81526004016119ae91815260200190565b600060405180830381600087803b1580156119c857600080fd5b505af11580156119dc573d6000803e3d6000fd5b50506040516302e3603160e31b8152600481018590526001600160a01b038416925063171b01889150602401600060405180830381600087803b158015611a2257600080fd5b505af1158015611a36573d6000803e3d6000fd5b5050505085836006016000828254611a4e91906136d7565b9250508190555060006040518060c001604052808a6001600160a01b031681526020018560010160009054906101000a90046001600160a01b03166001600160a01b03168152602001898152602001888152602001848152602001428152509050600460008a6001600160a01b03166001600160a01b0316815260200190815260200160002081908060018154018082558091505060019003906000526020600020906006020160009091909190915060008201518160000160006101000a8154816001600160a01b0302191690836001600160a01b0316021790555060208201518160010160006101000a8154816001600160a01b0302191690836001600160a01b0316021790555060408201518160020155606082015181600301556080820151816004015560a082015181600501555050600460008560010160009054906101000a90046001600160a01b03166001600160a01b03166001600160a01b0316815260200190815260200160002081908060018154018082558091505060019003906000526020600020906006020160009091909190915060008201518160000160006101000a8154816001600160a01b0302191690836001600160a01b0316021790555060208201518160010160006101000a8154816001600160a01b0302191690836001600160a01b0316021790555060408201518160020155606082015181600301556080820151816004015560a08201518160050155505060008b9050806001600160a01b0316632c1bf6d960008b6000806040518563ffffffff1660e01b8152600401611ca5949392919061389f565b600060405180830381600087803b158015611cbf57600080fd5b505af1158015611cd3573d6000803e3d6000fd5b5050604051632c1bf6d960e01b81526001600160a01b0384169250632c1bf6d99150611d0b906000908d90829060019060040161389f565b600060405180830381600087803b158015611d2557600080fd5b505af1158015611d39573d6000803e3d6000fd5b50505050505050505050505050505050565b60606000805b600054811015611dc857836001600160a01b031660016000808481548110611d7b57611d7b613641565b600091825260208083209091015483528201929092526040019020600101546001600160a01b031603611db65781611db281613628565b9250505b80611dc081613628565b915050611d51565b5060008167ffffffffffffffff811115611de457611de4613222565b604051908082528060200260200182016040528015611e1d57816020015b611e0a612d2d565b815260200190600190039081611e025790505b5090506000915060005b60005481101561103057846001600160a01b031660016000808481548110611e5157611e51613641565b600091825260208083209091015483528201929092526040019020600101546001600160a01b03160361217c5760016000808381548110611e9457611e94613641565b6000918252602080832090910154835282810193909352604091820190208151610140810183528154815260018201546001600160a01b0316938101939093526002810180549192840191611ee890613657565b80601f0160208091040260200160405190810160405280929190818152602001828054611f1490613657565b8015611f615780601f10611f3657610100808354040283529160200191611f61565b820191906000526020600020905b815481529060010190602001808311611f4457829003601f168201915b50505050508152602001600382018054611f7a90613657565b80601f0160208091040260200160405190810160405280929190818152602001828054611fa690613657565b8015611ff35780601f10611fc857610100808354040283529160200191611ff3565b820191906000526020600020905b815481529060010190602001808311611fd657829003601f168201915b5050505050815260200160048201805461200c90613657565b80601f016020809104026020016040519081016040528092919081815260200182805461203890613657565b80156120855780601f1061205a57610100808354040283529160200191612085565b820191906000526020600020905b81548152906001019060200180831161206857829003601f168201915b5050505050815260200160058201548152602001600682015481526020016007820180546120b290613657565b80601f01602080910402602001604051908101604052809291908181526020018280546120de90613657565b801561212b5780601f106121005761010080835404028352916020019161212b565b820191906000526020600020905b81548152906001019060200180831161210e57829003601f168201915b50505091835250506008820154602082015260099091015460ff161515604090910152825183908590811061216257612162613641565b6020026020010181905250828061217890613628565b9350505b8061218681613628565b915050611e27565b600360205281600052604060002081815481106121aa57600080fd5b60009182526020909120600490910201805460018201546002830180549295506001600160a01b039091169350906121e190613657565b80601f016020809104026020016040519081016040528092919081815260200182805461220d90613657565b801561225a5780601f1061222f5761010080835404028352916020019161225a565b820191906000526020600020905b81548152906001019060200180831161223d57829003601f168201915b5050505050908060030154905084565b60008281526001602052604090206009015460ff1661229b5760405162461bcd60e51b815260040161076090613691565b60408051608081018252838152336020808301918252828401858152426060850152600087815260038352948520805460018082018355918752929095208451600490930201918255915193810180546001600160a01b0319166001600160a01b03909516949094179093555190918291600282019061231b90826137ac565b50606082015181600301555050505050565b60008054819061233f906001906136d7565b8154811061234f5761234f613641565b9060005260206000200154905090565b6004602052816000526040600020818154811061237b57600080fd5b60009182526020909120600690910201805460018201546002830154600384015460048501546005909501546001600160a01b039485169750929093169450929086565b606060036000838152602001908152602001600020805480602002602001604051908101604052809291908181526020016000905b828210156124e257600084815260209081902060408051608081018252600486029092018054835260018101546001600160a01b0316938301939093526002830180549293929184019161244790613657565b80601f016020809104026020016040519081016040528092919081815260200182805461247390613657565b80156124c05780601f10612495576101008083540402835291602001916124c0565b820191906000526020600020905b8154815290600101906020018083116124a357829003601f168201915b50505050508152602001600382015481525050815260200190600101906123f4565b505050509050919050565b6001600160a01b0381166000908152600460209081526040808320805482518185028101850190935280835260609492939192909184015b828210156124e25760008481526020908190206040805160c0810182526006860290920180546001600160a01b0390811684526001808301549091168486015260028201549284019290925260038101546060840152600481015460808401526005015460a08301529083529092019101612525565b33600090815260026020526040812080546060929067ffffffffffffffff8111156125c8576125c8613222565b60405190808252806020026020018201604052801561260157816020015b6125ee612d2d565b8152602001906001900390816125e65790505b50905060005b8254811015610728576001600084838154811061262657612626613641565b6000918252602080832090910154835282810193909352604091820190208151610140810183528154815260018201546001600160a01b031693810193909352600281018054919284019161267a90613657565b80601f01602080910402602001604051908101604052809291908181526020018280546126a690613657565b80156126f35780601f106126c8576101008083540402835291602001916126f3565b820191906000526020600020905b8154815290600101906020018083116126d657829003601f168201915b5050505050815260200160038201805461270c90613657565b80601f016020809104026020016040519081016040528092919081815260200182805461273890613657565b80156127855780601f1061275a57610100808354040283529160200191612785565b820191906000526020600020905b81548152906001019060200180831161276857829003601f168201915b5050505050815260200160048201805461279e90613657565b80601f01602080910402602001604051908101604052809291908181526020018280546127ca90613657565b80156128175780601f106127ec57610100808354040283529160200191612817565b820191906000526020600020905b8154815290600101906020018083116127fa57829003601f168201915b50505050508152602001600582015481526020016006820154815260200160078201805461284490613657565b80601f016020809104026020016040519081016040528092919081815260200182805461287090613657565b80156128bd5780601f10612892576101008083540402835291602001916128bd565b820191906000526020600020905b8154815290600101906020018083116128a057829003601f168201915b50505091835250506008820154602082015260099091015460ff16151560409091015282518390839081106128f4576128f4613641565b6020026020010181905250808061290a90613628565b915050612607565b60008581526001602052604090206009015460ff166129435760405162461bcd60e51b815260040161076090613691565b60058460ff1611156129975760405162461bcd60e51b815260206004820152601e60248201527f526174696e67206d757374206265206265747765656e203020616e64203500006044820152606401610760565b6000858152600160208190526040822090810154899289929181906001600160a01b03168615612af1576040516326b424e960e11b81523360048201526001600160a01b03871690634d6849d290602401602060405180830381865afa158015612a05573d6000803e3d6000fd5b505050506040513d601f19601f82011682018060405250810190612a299190613700565b91506001600160a01b03821615612ae8576001600160a01b0382166000908152600460205260408120905b8154811015612ae5578c828281548110612a7057612a70613641565b906000526020600020906006020160020154148015612ac55750826001600160a01b0316828281548110612aa657612aa6613641565b60009182526020909120600160069092020101546001600160a01b0316145b15612ad35760019450612ae5565b80612add81613628565b915050612a54565b50505b60019250612bcd565b6001600160a01b0381166000908152600460205260408120905b8154811015612bca578c828281548110612b2757612b27613641565b906000526020600020906006020160020154148015612b7c5750826001600160a01b0316828281548110612b5d57612b5d613641565b60009182526020909120600160069092020101546001600160a01b0316145b15612bb857818181548110612b9357612b93613641565b6000918252602090912060069091020154600195506001600160a01b03169350612bca565b80612bc281613628565b915050612b0b565b50505b82612c405760405162461bcd60e51b815260206004820152603a60248201527f4f6e6c79207061727469636970616e7473206f6620746865207472616e73616360448201527f74696f6e2063616e2061646420616e206576616c756174696f6e0000000000006064820152608401610760565b8615612cb457604051632c1bf6d960e01b81526001600160a01b03861690632c1bf6d990612c7d9084908f908f908f908f906001906004016138e8565b600060405180830381600087803b158015612c9757600080fd5b505af1158015612cab573d6000803e3d6000fd5b50505050612d1e565b604051632c1bf6d960e01b81526001600160a01b03861690632c1bf6d990612ceb9085908f908f908f908f906000906004016138e8565b600060405180830381600087803b158015612d0557600080fd5b505af1158015612d19573d6000803e3d6000fd5b505050505b50505050505050505050505050565b6040518061014001604052806000815260200160006001600160a01b03168152602001606081526020016060815260200160608152602001600081526020016000815260200160608152602001600081526020016000151581525090565b5080546000825560040290600052602060002090810190612dac9190612daf565b50565b80821115612deb5760008082556001820180546001600160a01b0319169055612ddb6002830182612def565b5060006003820155600401612daf565b5090565b508054612dfb90613657565b6000825580601f10612e0b575050565b601f016020900490600052602060002090810190612dac91905b80821115612deb5760008155600101612e25565b6000815180845260005b81811015612e5f57602081850181015186830182015201612e43565b506000602082860101526020601f19601f83011685010191505092915050565b6000610140825184526020830151612ea260208601826001600160a01b03169052565b506040830151816040860152612eba82860182612e39565b91505060608301518482036060860152612ed48282612e39565b91505060808301518482036080860152612eee8282612e39565b91505060a083015160a085015260c083015160c085015260e083015184820360e0860152612f1c8282612e39565b91505061010080840151818601525061012080840151612f3f8287018215159052565b5090949350505050565b6000602080830181845280855180835260408601915060408160051b870101925083870160005b82811015612f9e57603f19888603018452612f8c858351612e7f565b94509285019290850190600101612f70565b5092979650505050505050565b600060208284031215612fbd57600080fd5b5035919050565b6001600160a01b0381168114612dac57600080fd5b8035612fe481612fc4565b919050565b600080600060608486031215612ffe57600080fd5b833561300981612fc4565b9250602084013561301981612fc4565b929592945050506040919091013590565b8015158114612dac57600080fd5b8035612fe48161302a565b6000806000806080858703121561305957600080fd5b843561306481612fc4565b9350602085013561307481612fc4565b925060408501359150606085013561308b8161302a565b939692955090935050565b600080604083850312156130a957600080fd5b82356130b481612fc4565b915060208301356130c481612fc4565b809150509250929050565b6020815260006130e26020830184612e7f565b9392505050565b6000602082840312156130fb57600080fd5b81356130e281612fc4565b6020808252825182820181905260009190848201906040850190845b8181101561313e57835183529284019291840191600101613122565b50909695505050505050565b6020808252825182820181905260009190848201906040850190845b8181101561313e5783516001600160a01b031683529284019291840191600101613166565b60006020808301818452808551808352604092508286019150828160051b87010184880160005b8381101561321457888303603f19018552815180518452878101516001600160a01b031688850152868101516080888601819052906131f382870182612e39565b606093840151969093019590955250948701949250908601906001016131b2565b509098975050505050505050565b634e487b7160e01b600052604160045260246000fd5b600082601f83011261324957600080fd5b813567ffffffffffffffff8082111561326457613264613222565b604051601f8301601f19908116603f0116810190828211818310171561328c5761328c613222565b816040528381528660208588010111156132a557600080fd5b836020870160208301376000602085830101528094505050505092915050565b600080600080600080600080610100898b0312156132e257600080fd5b6132eb89612fd9565b97506132f960208a01612fd9565b9650604089013567ffffffffffffffff8082111561331657600080fd5b6133228c838d01613238565b975060608b013591508082111561333857600080fd5b6133448c838d01613238565b965060808b013591508082111561335a57600080fd5b6133668c838d01613238565b955060a08b0135945060c08b0135935060e08b013591508082111561338a57600080fd5b506133978b828c01613238565b9150509295985092959890939650565b600080600080600060a086880312156133bf57600080fd5b85356133ca81612fc4565b945060208601356133da81612fc4565b935060408601356133ea81612fc4565b94979396509394606081013594506080013592915050565b6000806040838503121561341557600080fd5b50508035926020909101359150565b8481526001600160a01b038416602082015260806040820181905260009061344e90830185612e39565b905082606083015295945050505050565b6000806040838503121561347257600080fd5b82359150602083013567ffffffffffffffff81111561349057600080fd5b61349c85828601613238565b9150509250929050565b600080604083850312156134b957600080fd5b82356134c481612fc4565b946020939093013593505050565b602080825282518282018190526000919060409081850190868401855b8281101561354957815180516001600160a01b0390811686528782015116878601528581015186860152606080820151908601526080808201519086015260a0908101519085015260c090930192908501906001016134ef565b5091979650505050505050565b600080600080600080600060e0888a03121561357157600080fd5b873561357c81612fc4565b9650602088013561358c81612fc4565b955060408801359450606088013560ff811681146135a957600080fd5b9350608088013567ffffffffffffffff808211156135c657600080fd5b6135d28b838c01613238565b945060a08a01359150808211156135e857600080fd5b506135f58a828b01613238565b92505061360460c08901613038565b905092959891949750929550565b634e487b7160e01b600052601160045260246000fd5b60006001820161363a5761363a613612565b5060010190565b634e487b7160e01b600052603260045260246000fd5b600181811c9082168061366b57607f821691505b60208210810361368b57634e487b7160e01b600052602260045260246000fd5b50919050565b60208082526026908201527f50726f6475637420646f6573206e6f74206578697374206f72206973206e6f74604082015265081d985b1a5960d21b606082015260800190565b81810381811115610b9b57610b9b613612565b634e487b7160e01b600052603160045260246000fd5b60006020828403121561371257600080fd5b81516130e281612fc4565b60006020828403121561372f57600080fd5b81516130e28161302a565b60006020828403121561374c57600080fd5b5051919050565b80820180821115610b9b57610b9b613612565b601f82111561082e57600081815260208120601f850160051c8101602086101561378d5750805b601f850160051c820191505b81811015610b1f57828155600101613799565b815167ffffffffffffffff8111156137c6576137c6613222565b6137da816137d48454613657565b84613766565b602080601f83116001811461380f57600084156137f75750858301515b600019600386901b1c1916600185901b178555610b1f565b600085815260208120601f198616915b8281101561383e5788860151825594840194600190910190840161381f565b508582101561385c5787850151600019600388901b60f8161c191681555b5050505050600190811b01905550565b8082028115828204841417610b9b57610b9b613612565b6000600160ff1b820161389857613898613612565b5060000390565b6001600160a01b03949094168452602084019290925260ff16604083015260c060608301819052600090830181905260e060808401819052830152151560a08201526101000190565b60018060a01b038716815285602082015260ff8516604082015260c06060820152600061391860c0830186612e39565b828103608084015261392a8186612e39565b91505082151560a083015297965050505050505056fea2646970667358221220ca14b579b92228ba3f26952696659402ac99887accd4b90d6eb90b2bad7c9f0364736f6c63430008140033",
  "linkReferences": {},
  "deployedLinkReferences": {}
}