{
  "_format": "hh-sol-artifact-1",
  "contractName": "UserList",
  "sourceName": "contracts/fleaMarket.sol",
  "abi": [
    {
      "inputs": [
        {
          "internalType": "address",
          "name": "_ProductList",
          "type": "address"
        },
        {
          "internalType": "string",
          "name": "userName",
          "type": "string"
        },
        {
          "internalType": "string",
          "name": "password",
          "type": "string"
        },
        {
          "internalType": "bool",
          "name": "gender",
          "type": "bool"
        },
        {
          "internalType": "string",
          "name": "phone",
          "type": "string"
        }
      ],
      "name": "createUser",
      "outputs": [],
      "stateMutability": "nonpayable",
      "type": "function"
    },
    {
      "inputs": [
        {
          "internalType": "address",
          "name": "",
          "type": "address"
        }
      ],
      "name": "creatorOwnerMap",
      "outputs": [
        {
          "internalType": "address",
          "name": "",
          "type": "address"
        }
      ],
      "stateMutability": "view",
      "type": "function"
    },
    {
      "inputs": [],
      "name": "getCarownerList",
      "outputs": [
        {
          "internalType": "address[]",
          "name": "",
          "type": "address[]"
        }
      ],
      "stateMutability": "view",
      "type": "function"
    },
    {
      "inputs": [
        {
          "internalType": "string",
          "name": "userName",
          "type": "string"
        }
      ],
      "name": "getPasswordHashByUsername",
      "outputs": [
        {
          "internalType": "string",
          "name": "",
          "type": "string"
        }
      ],
      "stateMutability": "view",
      "type": "function"
    },
    {
      "inputs": [
        {
          "internalType": "address",
          "name": "_address",
          "type": "address"
        }
      ],
      "name": "getUserAddress",
      "outputs": [
        {
          "internalType": "address",
          "name": "",
          "type": "address"
        }
      ],
      "stateMutability": "view",
      "type": "function"
    },
    {
      "inputs": [
        {
          "internalType": "address",
          "name": "account",
          "type": "address"
        }
      ],
      "name": "isNotRegistered",
      "outputs": [
        {
          "internalType": "bool",
          "name": "",
          "type": "bool"
        }
      ],
      "stateMutability": "view",
      "type": "function"
    },
    {
      "inputs": [
        {
          "internalType": "address",
          "name": "ownerAddr",
          "type": "address"
        }
      ],
      "name": "isUser",
      "outputs": [
        {
          "internalType": "bool",
          "name": "",
          "type": "bool"
        }
      ],
      "stateMutability": "view",
      "type": "function"
    },
    {
      "inputs": [
        {
          "internalType": "uint256",
          "name": "",
          "type": "uint256"
        }
      ],
      "name": "userList",
      "outputs": [
        {
          "internalType": "address",
          "name": "",
          "type": "address"
        }
      ],
      "stateMutability": "view",
      "type": "function"
    },
    {
      "inputs": [
        {
          "internalType": "string",
          "name": "userName",
          "type": "string"
        },
        {
          "internalType": "string",
          "name": "password",
          "type": "string"
        }
      ],
      "name": "verifyPwd",
      "outputs": [
        {
          "internalType": "bool",
          "name": "",
          "type": "bool"
        }
      ],
      "stateMutability": "view",
      "type": "function"
    }
  ],
  "bytecode": "0x608060405234801561001057600080fd5b50611b68806100206000396000f3fe60806040523480156200001157600080fd5b50600436106200009f5760003560e01c80639e31a3ee116200006e5780639e31a3ee146200016a5780639f4216e81462000181578063b3c09a1d1462000198578063cb00285614620001b1578063d8c251b514620001ca57600080fd5b80634209fff114620000a457806349c1b61714620000d05780634d6849d214620000f65780634e48c0a4146200013e575b600080fd5b620000bb620000b536600462000798565b620001fa565b60405190151581526020015b60405180910390f35b620000e7620000e13660046200088e565b62000266565b604051620000c791906200091b565b620001256200010736600462000798565b6001600160a01b039081166000908152600160205260409020541690565b6040516001600160a01b039091168152602001620000c7565b620001256200014f36600462000798565b6001602052600090815260409020546001600160a01b031681565b620000bb6200017b36600462000930565b620003e1565b62000125620001923660046200099b565b62000569565b620001a262000594565b604051620000c79190620009b5565b620001c8620001c236600462000a16565b620005f8565b005b620000bb620001db36600462000798565b6001600160a01b03908116600090815260016020526040902054161590565b6000805b6000548110156200025d57600081815481106200021f576200021f62000ad2565b6000918252602090912001546001600160a01b0390811690841603620002485750600192915050565b80620002548162000ae8565b915050620001fe565b50600092915050565b606060005b600054811015620003a25760008082815481106200028d576200028d62000ad2565b6000918252602082200154604080516370019b3560e01b815290516001600160a01b039092169350620003159284926370019b359260048082019392918290030181865afa158015620002e4573d6000803e3d6000fd5b505050506040513d6000823e601f3d908101601f191682016040526200030e919081019062000b10565b8562000710565b156200038c57806001600160a01b031663047cced36040518163ffffffff1660e01b8152600401600060405180830381865afa1580156200035a573d6000803e3d6000fd5b505050506040513d6000823e601f3d908101601f1916820160405262000384919081019062000b10565b949350505050565b5080620003998162000ae8565b9150506200026b565b5060405162461bcd60e51b815260206004820152600e60248201526d155cd95c881b9bdd08199bdd5b9960921b60448201526064015b60405180910390fd5b336000818152600160205260408120549091906001600160a01b0316620004565760405162461bcd60e51b815260206004820152602260248201527f43616c6c6572206e6f74207265676973746572656420617320636172206f776e60448201526132b960f11b6064820152608401620003d8565b6001600160a01b038082166000908152600160205260408082205481516370019b3560e01b815291519316928392620004e59284926370019b35926004808401939192918290030181865afa158015620004b4573d6000803e3d6000fd5b505050506040513d6000823e601f3d908101601f19168201604052620004de919081019062000b10565b8762000710565b80156200055f575060405163b2f0651760e01b81526001600160a01b0382169063b2f06517906200051b9088906004016200091b565b602060405180830381865afa15801562000539573d6000803e3d6000fd5b505050506040513d601f19601f820116820180604052508101906200055f919062000b90565b9695505050505050565b600081815481106200057a57600080fd5b6000918252602090912001546001600160a01b0316905081565b60606000805480602002602001604051908101604052809291908181526020018280548015620005ee57602002820191906000526020600020905b81546001600160a01b03168152600190910190602001808311620005cf575b5050505050905090565b336000818152600160205260409020546001600160a01b031615620006605760405162461bcd60e51b815260206004820152601a60248201527f4163636f756e7420616c726561647920726567697374657265640000000000006044820152606401620003d8565b600086828787878760405162000676906200076d565b620006879695949392919062000bb0565b604051809103906000f080158015620006a4573d6000803e3d6000fd5b5060008054600181810183557f290decd9548b62a8d60345a988386fc84ba6bc95484008f6362f93160ef3e56390910180546001600160a01b039485166001600160a01b0319918216811790925595909316825260205260409020805490931617909155505050505050565b60008160405160200162000725919062000c1d565b60405160208183030381529060405280519060200120836040516020016200074e919062000c1d565b6040516020818303038152906040528051906020012014905092915050565b610ef78062000c3c83390190565b80356001600160a01b03811681146200079357600080fd5b919050565b600060208284031215620007ab57600080fd5b620007b6826200077b565b9392505050565b634e487b7160e01b600052604160045260246000fd5b604051601f8201601f1916810167ffffffffffffffff81118282101715620007ff57620007ff620007bd565b604052919050565b600067ffffffffffffffff821115620008245762000824620007bd565b50601f01601f191660200190565b600082601f8301126200084457600080fd5b81356200085b620008558262000807565b620007d3565b8181528460208386010111156200087157600080fd5b816020850160208301376000918101602001919091529392505050565b600060208284031215620008a157600080fd5b813567ffffffffffffffff811115620008b957600080fd5b620003848482850162000832565b60005b83811015620008e4578181015183820152602001620008ca565b50506000910152565b6000815180845262000907816020860160208601620008c7565b601f01601f19169290920160200192915050565b602081526000620007b66020830184620008ed565b600080604083850312156200094457600080fd5b823567ffffffffffffffff808211156200095d57600080fd5b6200096b8683870162000832565b935060208501359150808211156200098257600080fd5b50620009918582860162000832565b9150509250929050565b600060208284031215620009ae57600080fd5b5035919050565b6020808252825182820181905260009190848201906040850190845b81811015620009f85783516001600160a01b031683529284019291840191600101620009d1565b50909695505050505050565b801515811462000a1357600080fd5b50565b600080600080600060a0868803121562000a2f57600080fd5b62000a3a866200077b565b9450602086013567ffffffffffffffff8082111562000a5857600080fd5b62000a6689838a0162000832565b9550604088013591508082111562000a7d57600080fd5b62000a8b89838a0162000832565b94506060880135915062000a9f8262000a04565b9092506080870135908082111562000ab657600080fd5b5062000ac58882890162000832565b9150509295509295909350565b634e487b7160e01b600052603260045260246000fd5b60006001820162000b0957634e487b7160e01b600052601160045260246000fd5b5060010190565b60006020828403121562000b2357600080fd5b815167ffffffffffffffff81111562000b3b57600080fd5b8201601f8101841362000b4d57600080fd5b805162000b5e620008558262000807565b81815285602083850101111562000b7457600080fd5b62000b87826020830160208601620008c7565b95945050505050565b60006020828403121562000ba357600080fd5b8151620007b68162000a04565b6001600160a01b0387811682528616602082015260c06040820181905260009062000bde90830187620008ed565b828103606084015262000bf28187620008ed565b9050841515608084015282810360a084015262000c108185620008ed565b9998505050505050505050565b6000825162000c31818460208701620008c7565b919091019291505056fe60806040523480156200001157600080fd5b5060405162000ef738038062000ef7833981016040819052620000349162000193565b600080546001600160a01b038088166001600160a01b03199283161790925560018054928916929091169190911790556002620000728582620002f2565b506003620000818482620002f2565b506127106004556005805460ff19168315151790556006620000a48282620002f2565b50505050505050620003be565b80516001600160a01b0381168114620000c957600080fd5b919050565b634e487b7160e01b600052604160045260246000fd5b600082601f830112620000f657600080fd5b81516001600160401b0380821115620001135762000113620000ce565b604051601f8301601f19908116603f011681019082821181831017156200013e576200013e620000ce565b816040528381526020925086838588010111156200015b57600080fd5b600091505b838210156200017f578582018301518183018401529082019062000160565b600093810190920192909252949350505050565b60008060008060008060c08789031215620001ad57600080fd5b620001b887620000b1565b9550620001c860208801620000b1565b60408801519095506001600160401b0380821115620001e657600080fd5b620001f48a838b01620000e4565b955060608901519150808211156200020b57600080fd5b620002198a838b01620000e4565b94506080890151915081151582146200023157600080fd5b60a0890151919350808211156200024757600080fd5b506200025689828a01620000e4565b9150509295509295509295565b600181811c908216806200027857607f821691505b6020821081036200029957634e487b7160e01b600052602260045260246000fd5b50919050565b601f821115620002ed57600081815260208120601f850160051c81016020861015620002c85750805b601f850160051c820191505b81811015620002e957828155600101620002d4565b5050505b505050565b81516001600160401b038111156200030e576200030e620000ce565b62000326816200031f845462000263565b846200029f565b602080601f8311600181146200035e5760008415620003455750858301515b600019600386901b1c1916600185901b178555620002e9565b600085815260208120601f198616915b828110156200038f578886015182559484019460019091019084016200036e565b5085821015620003ae5787850151600019600388901b60f8161c191681555b5050505050600190811b01905550565b610b2980620003ce6000396000f3fe608060405234801561001057600080fd5b50600436106100cf5760003560e01c806379caad861161008c5780639284f497116100665780639284f497146101a4578063b2f06517146101ac578063b30d7c99146101bf578063facf8323146101d257600080fd5b806379caad8614610163578063893d20e8146101805780638da5cb5b1461019157600080fd5b8063047cced3146100d45780630f5fb3d4146100f257806312065fe01461011d578063171b0188146101335780634afb08a61461014857806370019b351461015b575b600080fd5b6100dc6101e9565b6040516100e99190610685565b60405180910390f35b600154610105906001600160a01b031681565b6040516001600160a01b0390911681526020016100e9565b61012561027b565b6040519081526020016100e9565b61014661014136600461069f565b6102cb565b005b61014661015636600461075b565b610373565b6100dc6103ad565b6005546101709060ff1681565b60405190151581526020016100e9565b6000546001600160a01b0316610105565b600054610105906001600160a01b031681565b6100dc61043b565b6101706101ba36600461075b565b610448565b6101466101cd366004610798565b6104a1565b6101da6104f8565b6040516100e993929190610815565b6060600380546101f89061084c565b80601f01602080910402602001604051908101604052809291908181526020018280546102249061084c565b80156102715780601f1061024657610100808354040283529160200191610271565b820191906000526020600020905b81548152906001019060200180831161025457829003601f168201915b5050505050905090565b600080546001600160a01b031633148061029f57506001546001600160a01b031633145b6102c45760405162461bcd60e51b81526004016102bb90610886565b60405180910390fd5b5060045490565b6000546001600160a01b03163314806102ee57506001546001600160a01b031633145b61030a5760405162461bcd60e51b81526004016102bb90610886565b60008160045461031a91906108db565b121561035f5760405162461bcd60e51b8152602060048201526014602482015273496e73756666696369656e742062616c616e636560601b60448201526064016102bb565b8060045461036d91906108db565b60045550565b6000546001600160a01b0316331461039d5760405162461bcd60e51b81526004016102bb90610911565b60036103a982826109a1565b5050565b600280546103ba9061084c565b80601f01602080910402602001604051908101604052809291908181526020018280546103e69061084c565b80156104335780601f1061040857610100808354040283529160200191610433565b820191906000526020600020905b81548152906001019060200180831161041657829003601f168201915b505050505081565b600680546103ba9061084c565b6000600360405160200161045c9190610a61565b60405160208183030381529060405280519060200120826040516020016104839190610ad7565b60405160208183030381529060405280519060200120149050919050565b6000546001600160a01b031633146104cb5760405162461bcd60e51b81526004016102bb90610911565b60026104d784826109a1565b506005805460ff191683151517905560066104f282826109a1565b50505050565b6060600060606002600560009054906101000a900460ff16600682805461051e9061084c565b80601f016020809104026020016040519081016040528092919081815260200182805461054a9061084c565b80156105975780601f1061056c57610100808354040283529160200191610597565b820191906000526020600020905b81548152906001019060200180831161057a57829003601f168201915b505050505092508080546105aa9061084c565b80601f01602080910402602001604051908101604052809291908181526020018280546105d69061084c565b80156106235780601f106105f857610100808354040283529160200191610623565b820191906000526020600020905b81548152906001019060200180831161060657829003601f168201915b50505050509050925092509250909192565b60005b83811015610650578181015183820152602001610638565b50506000910152565b60008151808452610671816020860160208601610635565b601f01601f19169290920160200192915050565b6020815260006106986020830184610659565b9392505050565b6000602082840312156106b157600080fd5b5035919050565b634e487b7160e01b600052604160045260246000fd5b600082601f8301126106df57600080fd5b813567ffffffffffffffff808211156106fa576106fa6106b8565b604051601f8301601f19908116603f01168101908282118183101715610722576107226106b8565b8160405283815286602085880101111561073b57600080fd5b836020870160208301376000602085830101528094505050505092915050565b60006020828403121561076d57600080fd5b813567ffffffffffffffff81111561078457600080fd5b610790848285016106ce565b949350505050565b6000806000606084860312156107ad57600080fd5b833567ffffffffffffffff808211156107c557600080fd5b6107d1878388016106ce565b94506020860135915081151582146107e857600080fd5b909250604085013590808211156107fe57600080fd5b5061080b868287016106ce565b9150509250925092565b6060815260006108286060830186610659565b841515602084015282810360408401526108428185610659565b9695505050505050565b600181811c9082168061086057607f821691505b60208210810361088057634e487b7160e01b600052602260045260246000fd5b50919050565b60208082526035908201527f4f6e6c79206f776e6572206f722073797374656d20636f6e747261637473206360408201527430b71031b0b636103a3434b990333ab731ba34b7b760591b606082015260800190565b808201828112600083128015821682158216171561090957634e487b7160e01b600052601160045260246000fd5b505092915050565b60208082526021908201527f4f6e6c79206f776e65722063616e2063616c6c20746869732066756e6374696f6040820152603760f91b606082015260800190565b601f82111561099c57600081815260208120601f850160051c810160208610156109795750805b601f850160051c820191505b8181101561099857828155600101610985565b5050505b505050565b815167ffffffffffffffff8111156109bb576109bb6106b8565b6109cf816109c9845461084c565b84610952565b602080601f831160018114610a0457600084156109ec5750858301515b600019600386901b1c1916600185901b178555610998565b600085815260208120601f198616915b82811015610a3357888601518255948401946001909101908401610a14565b5085821015610a515787850151600019600388901b60f8161c191681555b5050505050600190811b01905550565b6000808354610a6f8161084c565b60018281168015610a875760018114610a9c57610acb565b60ff1984168752821515830287019450610acb565b8760005260208060002060005b85811015610ac25781548a820152908401908201610aa9565b50505082870194505b50929695505050505050565b60008251610ae9818460208701610635565b919091019291505056fea264697066735822122050baa53604bb6ab92e77b9388fa903be2e2481a77a3c062c3df6ec3c80f6420f64736f6c63430008140033a2646970667358221220ef70af527177cf7ddc13eec0212d048361a0b0a38d1e96ff1a19f60090f0294664736f6c63430008140033",
  "linkReferences": {},
  "deployedLinkReferences": {}
}