{"contracts/fleaMarket.sol":{"User":{"abi":[{"inputs":[{"internalType":"address","name":"_ProductList","type":"address"},{"internalType":"address","name":"_owner","type":"address"},{"internalType":"string","name":"_userName","type":"string"},{"internalType":"string","name":"_pwd","type":"string"},{"internalType":"bool","name":"_gender","type":"bool"},{"internalType":"string","name":"_phone","type":"string"}],"stateMutability":"nonpayable","type":"constructor"},{"inputs":[],"name":"gender","outputs":[{"internalType":"bool","name":"","type":"bool"}],"stateMutability":"view","type":"function"},{"inputs":[],"name":"getBalance","outputs":[{"internalType":"uint256","name":"","type":"uint256"}],"stateMutability":"view","type":"function"},{"inputs":[],"name":"getOwner","outputs":[{"internalType":"address","name":"","type":"address"}],"stateMutability":"view","type":"function"},{"inputs":[],"name":"getOwnerInfo","outputs":[{"internalType":"string","name":"","type":"string"},{"internalType":"bool","name":"","type":"bool"},{"internalType":"string","name":"","type":"string"}],"stateMutability":"view","type":"function"},{"inputs":[],"name":"getPasswordHash","outputs":[{"internalType":"string","name":"","type":"string"}],"stateMutability":"view","type":"function"},{"inputs":[{"internalType":"string","name":"_userName","type":"string"},{"internalType":"bool","name":"_gender","type":"bool"},{"internalType":"string","name":"_phone","type":"string"}],"name":"modifyOwnerInfo","outputs":[],"stateMutability":"nonpayable","type":"function"},{"inputs":[],"name":"owner","outputs":[{"internalType":"address","name":"","type":"address"}],"stateMutability":"view","type":"function"},{"inputs":[],"name":"phone","outputs":[{"internalType":"string","name":"","type":"string"}],"stateMutability":"view","type":"function"},{"inputs":[],"name":"productList","outputs":[{"internalType":"address","name":"","type":"address"}],"stateMutability":"view","type":"function"},{"inputs":[{"internalType":"string","name":"_pwd","type":"string"}],"name":"pwdRight","outputs":[{"internalType":"bool","name":"","type":"bool"}],"stateMutability":"view","type":"function"},{"inputs":[{"internalType":"int256","name":"increment","type":"int256"}],"name":"updateBalance","outputs":[],"stateMutability":"nonpayable","type":"function"},{"inputs":[{"internalType":"string","name":"newPwd","type":"string"}],"name":"updatePassword","outputs":[],"stateMutability":"nonpayable","type":"function"},{"inputs":[],"name":"userName","outputs":[{"internalType":"string","name":"","type":"string"}],"stateMutability":"view","type":"function"}],"evm":{"bytecode":{"linkReferences":{},"object":"60806040523480156200001157600080fd5b5060405162000ef738038062000ef7833981016040819052620000349162000193565b600080546001600160a01b038088166001600160a01b03199283161790925560018054928916929091169190911790556002620000728582620002f2565b506003620000818482620002f2565b506127106004556005805460ff19168315151790556006620000a48282620002f2565b50505050505050620003be565b80516001600160a01b0381168114620000c957600080fd5b919050565b634e487b7160e01b600052604160045260246000fd5b600082601f830112620000f657600080fd5b81516001600160401b0380821115620001135762000113620000ce565b604051601f8301601f19908116603f011681019082821181831017156200013e576200013e620000ce565b816040528381526020925086838588010111156200015b57600080fd5b600091505b838210156200017f578582018301518183018401529082019062000160565b600093810190920192909252949350505050565b60008060008060008060c08789031215620001ad57600080fd5b620001b887620000b1565b9550620001c860208801620000b1565b60408801519095506001600160401b0380821115620001e657600080fd5b620001f48a838b01620000e4565b955060608901519150808211156200020b57600080fd5b620002198a838b01620000e4565b94506080890151915081151582146200023157600080fd5b60a0890151919350808211156200024757600080fd5b506200025689828a01620000e4565b9150509295509295509295565b600181811c908216806200027857607f821691505b6020821081036200029957634e487b7160e01b600052602260045260246000fd5b50919050565b601f821115620002ed57600081815260208120601f850160051c81016020861015620002c85750805b601f850160051c820191505b81811015620002e957828155600101620002d4565b5050505b505050565b81516001600160401b038111156200030e576200030e620000ce565b62000326816200031f845462000263565b846200029f565b602080601f8311600181146200035e5760008415620003455750858301515b600019600386901b1c1916600185901b178555620002e9565b600085815260208120601f198616915b828110156200038f578886015182559484019460019091019084016200036e565b5085821015620003ae5787850151600019600388901b60f8161c191681555b5050505050600190811b01905550565b610b2980620003ce6000396000f3fe608060405234801561001057600080fd5b50600436106100cf5760003560e01c806379caad861161008c5780639284f497116100665780639284f497146101a4578063b2f06517146101ac578063b30d7c99146101bf578063facf8323146101d257600080fd5b806379caad8614610163578063893d20e8146101805780638da5cb5b1461019157600080fd5b8063047cced3146100d45780630f5fb3d4146100f257806312065fe01461011d578063171b0188146101335780634afb08a61461014857806370019b351461015b575b600080fd5b6100dc6101e9565b6040516100e99190610685565b60405180910390f35b600154610105906001600160a01b031681565b6040516001600160a01b0390911681526020016100e9565b61012561027b565b6040519081526020016100e9565b61014661014136600461069f565b6102cb565b005b61014661015636600461075b565b610373565b6100dc6103ad565b6005546101709060ff1681565b60405190151581526020016100e9565b6000546001600160a01b0316610105565b600054610105906001600160a01b031681565b6100dc61043b565b6101706101ba36600461075b565b610448565b6101466101cd366004610798565b6104a1565b6101da6104f8565b6040516100e993929190610815565b6060600380546101f89061084c565b80601f01602080910402602001604051908101604052809291908181526020018280546102249061084c565b80156102715780601f1061024657610100808354040283529160200191610271565b820191906000526020600020905b81548152906001019060200180831161025457829003601f168201915b5050505050905090565b600080546001600160a01b031633148061029f57506001546001600160a01b031633145b6102c45760405162461bcd60e51b81526004016102bb90610886565b60405180910390fd5b5060045490565b6000546001600160a01b03163314806102ee57506001546001600160a01b031633145b61030a5760405162461bcd60e51b81526004016102bb90610886565b60008160045461031a91906108db565b121561035f5760405162461bcd60e51b8152602060048201526014602482015273496e73756666696369656e742062616c616e636560601b60448201526064016102bb565b8060045461036d91906108db565b60045550565b6000546001600160a01b0316331461039d5760405162461bcd60e51b81526004016102bb90610911565b60036103a982826109a1565b5050565b600280546103ba9061084c565b80601f01602080910402602001604051908101604052809291908181526020018280546103e69061084c565b80156104335780601f1061040857610100808354040283529160200191610433565b820191906000526020600020905b81548152906001019060200180831161041657829003601f168201915b505050505081565b600680546103ba9061084c565b6000600360405160200161045c9190610a61565b60405160208183030381529060405280519060200120826040516020016104839190610ad7565b60405160208183030381529060405280519060200120149050919050565b6000546001600160a01b031633146104cb5760405162461bcd60e51b81526004016102bb90610911565b60026104d784826109a1565b506005805460ff191683151517905560066104f282826109a1565b50505050565b6060600060606002600560009054906101000a900460ff16600682805461051e9061084c565b80601f016020809104026020016040519081016040528092919081815260200182805461054a9061084c565b80156105975780601f1061056c57610100808354040283529160200191610597565b820191906000526020600020905b81548152906001019060200180831161057a57829003601f168201915b505050505092508080546105aa9061084c565b80601f01602080910402602001604051908101604052809291908181526020018280546105d69061084c565b80156106235780601f106105f857610100808354040283529160200191610623565b820191906000526020600020905b81548152906001019060200180831161060657829003601f168201915b50505050509050925092509250909192565b60005b83811015610650578181015183820152602001610638565b50506000910152565b60008151808452610671816020860160208601610635565b601f01601f19169290920160200192915050565b6020815260006106986020830184610659565b9392505050565b6000602082840312156106b157600080fd5b5035919050565b634e487b7160e01b600052604160045260246000fd5b600082601f8301126106df57600080fd5b813567ffffffffffffffff808211156106fa576106fa6106b8565b604051601f8301601f19908116603f01168101908282118183101715610722576107226106b8565b8160405283815286602085880101111561073b57600080fd5b836020870160208301376000602085830101528094505050505092915050565b60006020828403121561076d57600080fd5b813567ffffffffffffffff81111561078457600080fd5b610790848285016106ce565b949350505050565b6000806000606084860312156107ad57600080fd5b833567ffffffffffffffff808211156107c557600080fd5b6107d1878388016106ce565b94506020860135915081151582146107e857600080fd5b909250604085013590808211156107fe57600080fd5b5061080b868287016106ce565b9150509250925092565b6060815260006108286060830186610659565b841515602084015282810360408401526108428185610659565b9695505050505050565b600181811c9082168061086057607f821691505b60208210810361088057634e487b7160e01b600052602260045260246000fd5b50919050565b60208082526035908201527f4f6e6c79206f776e6572206f722073797374656d20636f6e747261637473206360408201527430b71031b0b636103a3434b990333ab731ba34b7b760591b606082015260800190565b808201828112600083128015821682158216171561090957634e487b7160e01b600052601160045260246000fd5b505092915050565b60208082526021908201527f4f6e6c79206f776e65722063616e2063616c6c20746869732066756e6374696f6040820152603760f91b606082015260800190565b601f82111561099c57600081815260208120601f850160051c810160208610156109795750805b601f850160051c820191505b8181101561099857828155600101610985565b5050505b505050565b815167ffffffffffffffff8111156109bb576109bb6106b8565b6109cf816109c9845461084c565b84610952565b602080601f831160018114610a0457600084156109ec5750858301515b600019600386901b1c1916600185901b178555610998565b600085815260208120601f198616915b82811015610a3357888601518255948401946001909101908401610a14565b5085821015610a515787850151600019600388901b60f8161c191681555b5050505050600190811b01905550565b6000808354610a6f8161084c565b60018281168015610a875760018114610a9c57610acb565b60ff1984168752821515830287019450610acb565b8760005260208060002060005b85811015610ac25781548a820152908401908201610aa9565b50505082870194505b50929695505050505050565b60008251610ae9818460208701610635565b919091019291505056fea264697066735822122050baa53604bb6ab92e77b9388fa903be2e2481a77a3c062c3df6ec3c80f6420f64736f6c63430008140033","opcodes":"PUSH1 0x80 PUSH1 0x40 MSTORE CALLVALUE DUP1 ISZERO PUSH3 0x11 JUMPI PUSH1 0x0 DUP1 REVERT JUMPDEST POP PUSH1 0x40 MLOAD PUSH3 0xEF7 CODESIZE SUB DUP1 PUSH3 0xEF7 DUP4 CODECOPY DUP2 ADD PUSH1 0x40 DUP2 SWAP1 MSTORE PUSH3 0x34 SWAP2 PUSH3 0x193 JUMP JUMPDEST PUSH1 0x0 DUP1 SLOAD PUSH1 0x1 PUSH1 0x1 PUSH1 0xA0 SHL SUB DUP1 DUP9 AND PUSH1 0x1 PUSH1 0x1 PUSH1 0xA0 SHL SUB NOT SWAP3 DUP4 AND OR SWAP1 SWAP3 SSTORE PUSH1 0x1 DUP1 SLOAD SWAP3 DUP10 AND SWAP3 SWAP1 SWAP2 AND SWAP2 SWAP1 SWAP2 OR SWAP1 SSTORE PUSH1 0x2 PUSH3 0x72 DUP6 DUP3 PUSH3 0x2F2 JUMP JUMPDEST POP PUSH1 0x3 PUSH3 0x81 DUP5 DUP3 PUSH3 0x2F2 JUMP JUMPDEST POP PUSH2 0x2710 PUSH1 0x4 SSTORE PUSH1 0x5 DUP1 SLOAD PUSH1 0xFF NOT AND DUP4 ISZERO ISZERO OR SWAP1 SSTORE PUSH1 0x6 PUSH3 0xA4 DUP3 DUP3 PUSH3 0x2F2 JUMP JUMPDEST POP POP POP POP POP POP POP PUSH3 0x3BE JUMP JUMPDEST DUP1 MLOAD PUSH1 0x1 PUSH1 0x1 PUSH1 0xA0 SHL SUB DUP2 AND DUP2 EQ PUSH3 0xC9 JUMPI PUSH1 0x0 DUP1 REVERT JUMPDEST SWAP2 SWAP1 POP JUMP JUMPDEST PUSH4 0x4E487B71 PUSH1 0xE0 SHL PUSH1 0x0 MSTORE PUSH1 0x41 PUSH1 0x4 MSTORE PUSH1 0x24 PUSH1 0x0 REVERT JUMPDEST PUSH1 0x0 DUP3 PUSH1 0x1F DUP4 ADD SLT PUSH3 0xF6 JUMPI PUSH1 0x0 DUP1 REVERT JUMPDEST DUP2 MLOAD PUSH1 0x1 PUSH1 0x1 PUSH1 0x40 SHL SUB DUP1 DUP3 GT ISZERO PUSH3 0x113 JUMPI PUSH3 0x113 PUSH3 0xCE JUMP JUMPDEST PUSH1 0x40 MLOAD PUSH1 0x1F DUP4 ADD PUSH1 0x1F NOT SWAP1 DUP2 AND PUSH1 0x3F ADD AND DUP2 ADD SWAP1 DUP3 DUP3 GT DUP2 DUP4 LT OR ISZERO PUSH3 0x13E JUMPI PUSH3 0x13E PUSH3 0xCE JUMP JUMPDEST DUP2 PUSH1 0x40 MSTORE DUP4 DUP2 MSTORE PUSH1 0x20 SWAP3 POP DUP7 DUP4 DUP6 DUP9 ADD ADD GT ISZERO PUSH3 0x15B JUMPI PUSH1 0x0 DUP1 REVERT JUMPDEST PUSH1 0x0 SWAP2 POP JUMPDEST DUP4 DUP3 LT ISZERO PUSH3 0x17F JUMPI DUP6 DUP3 ADD DUP4 ADD MLOAD DUP2 DUP4 ADD DUP5 ADD MSTORE SWAP1 DUP3 ADD SWAP1 PUSH3 0x160 JUMP JUMPDEST PUSH1 0x0 SWAP4 DUP2 ADD SWAP1 SWAP3 ADD SWAP3 SWAP1 SWAP3 MSTORE SWAP5 SWAP4 POP POP POP POP JUMP JUMPDEST PUSH1 0x0 DUP1 PUSH1 0x0 DUP1 PUSH1 0x0 DUP1 PUSH1 0xC0 DUP8 DUP10 SUB SLT ISZERO PUSH3 0x1AD JUMPI PUSH1 0x0 DUP1 REVERT JUMPDEST PUSH3 0x1B8 DUP8 PUSH3 0xB1 JUMP JUMPDEST SWAP6 POP PUSH3 0x1C8 PUSH1 0x20 DUP9 ADD PUSH3 0xB1 JUMP JUMPDEST PUSH1 0x40 DUP9 ADD MLOAD SWAP1 SWAP6 POP PUSH1 0x1 PUSH1 0x1 PUSH1 0x40 SHL SUB DUP1 DUP3 GT ISZERO PUSH3 0x1E6 JUMPI PUSH1 0x0 DUP1 REVERT JUMPDEST PUSH3 0x1F4 DUP11 DUP4 DUP12 ADD PUSH3 0xE4 JUMP JUMPDEST SWAP6 POP PUSH1 0x60 DUP10 ADD MLOAD SWAP2 POP DUP1 DUP3 GT ISZERO PUSH3 0x20B JUMPI PUSH1 0x0 DUP1 REVERT JUMPDEST PUSH3 0x219 DUP11 DUP4 DUP12 ADD PUSH3 0xE4 JUMP JUMPDEST SWAP5 POP PUSH1 0x80 DUP10 ADD MLOAD SWAP2 POP DUP2 ISZERO ISZERO DUP3 EQ PUSH3 0x231 JUMPI PUSH1 0x0 DUP1 REVERT JUMPDEST PUSH1 0xA0 DUP10 ADD MLOAD SWAP2 SWAP4 POP DUP1 DUP3 GT ISZERO PUSH3 0x247 JUMPI PUSH1 0x0 DUP1 REVERT JUMPDEST POP PUSH3 0x256 DUP10 DUP3 DUP11 ADD PUSH3 0xE4 JUMP JUMPDEST SWAP2 POP POP SWAP3 SWAP6 POP SWAP3 SWAP6 POP SWAP3 SWAP6 JUMP JUMPDEST PUSH1 0x1 DUP2 DUP2 SHR SWAP1 DUP3 AND DUP1 PUSH3 0x278 JUMPI PUSH1 0x7F DUP3 AND SWAP2 POP JUMPDEST PUSH1 0x20 DUP3 LT DUP2 SUB PUSH3 0x299 JUMPI PUSH4 0x4E487B71 PUSH1 0xE0 SHL PUSH1 0x0 MSTORE PUSH1 0x22 PUSH1 0x4 MSTORE PUSH1 0x24 PUSH1 0x0 REVERT JUMPDEST POP SWAP2 SWAP1 POP JUMP JUMPDEST PUSH1 0x1F DUP3 GT ISZERO PUSH3 0x2ED JUMPI PUSH1 0x0 DUP2 DUP2 MSTORE PUSH1 0x20 DUP2 KECCAK256 PUSH1 0x1F DUP6 ADD PUSH1 0x5 SHR DUP2 ADD PUSH1 0x20 DUP7 LT ISZERO PUSH3 0x2C8 JUMPI POP DUP1 JUMPDEST PUSH1 0x1F DUP6 ADD PUSH1 0x5 SHR DUP3 ADD SWAP2 POP JUMPDEST DUP2 DUP2 LT ISZERO PUSH3 0x2E9 JUMPI DUP3 DUP2 SSTORE PUSH1 0x1 ADD PUSH3 0x2D4 JUMP JUMPDEST POP POP POP JUMPDEST POP POP POP JUMP JUMPDEST DUP2 MLOAD PUSH1 0x1 PUSH1 0x1 PUSH1 0x40 SHL SUB DUP2 GT ISZERO PUSH3 0x30E JUMPI PUSH3 0x30E PUSH3 0xCE JUMP JUMPDEST PUSH3 0x326 DUP2 PUSH3 0x31F DUP5 SLOAD PUSH3 0x263 JUMP JUMPDEST DUP5 PUSH3 0x29F JUMP JUMPDEST PUSH1 0x20 DUP1 PUSH1 0x1F DUP4 GT PUSH1 0x1 DUP2 EQ PUSH3 0x35E JUMPI PUSH1 0x0 DUP5 ISZERO PUSH3 0x345 JUMPI POP DUP6 DUP4 ADD MLOAD JUMPDEST PUSH1 0x0 NOT PUSH1 0x3 DUP7 SWAP1 SHL SHR NOT AND PUSH1 0x1 DUP6 SWAP1 SHL OR DUP6 SSTORE PUSH3 0x2E9 JUMP JUMPDEST PUSH1 0x0 DUP6 DUP2 MSTORE PUSH1 0x20 DUP2 KECCAK256 PUSH1 0x1F NOT DUP7 AND SWAP2 JUMPDEST DUP3 DUP2 LT ISZERO PUSH3 0x38F JUMPI DUP9 DUP7 ADD MLOAD DUP3 SSTORE SWAP5 DUP5 ADD SWAP5 PUSH1 0x1 SWAP1 SWAP2 ADD SWAP1 DUP5 ADD PUSH3 0x36E JUMP JUMPDEST POP DUP6 DUP3 LT ISZERO PUSH3 0x3AE JUMPI DUP8 DUP6 ADD MLOAD PUSH1 0x0 NOT PUSH1 0x3 DUP9 SWAP1 SHL PUSH1 0xF8 AND SHR NOT AND DUP2 SSTORE JUMPDEST POP POP POP POP POP PUSH1 0x1 SWAP1 DUP2 SHL ADD SWAP1 SSTORE POP JUMP JUMPDEST PUSH2 0xB29 DUP1 PUSH3 0x3CE PUSH1 0x0 CODECOPY PUSH1 0x0 RETURN INVALID PUSH1 0x80 PUSH1 0x40 MSTORE CALLVALUE DUP1 ISZERO PUSH2 0x10 JUMPI PUSH1 0x0 DUP1 REVERT JUMPDEST POP PUSH1 0x4 CALLDATASIZE LT PUSH2 0xCF JUMPI PUSH1 0x0 CALLDATALOAD PUSH1 0xE0 SHR DUP1 PUSH4 0x79CAAD86 GT PUSH2 0x8C JUMPI DUP1 PUSH4 0x9284F497 GT PUSH2 0x66 JUMPI DUP1 PUSH4 0x9284F497 EQ PUSH2 0x1A4 JUMPI DUP1 PUSH4 0xB2F06517 EQ PUSH2 0x1AC JUMPI DUP1 PUSH4 0xB30D7C99 EQ PUSH2 0x1BF JUMPI DUP1 PUSH4 0xFACF8323 EQ PUSH2 0x1D2 JUMPI PUSH1 0x0 DUP1 REVERT JUMPDEST DUP1 PUSH4 0x79CAAD86 EQ PUSH2 0x163 JUMPI DUP1 PUSH4 0x893D20E8 EQ PUSH2 0x180 JUMPI DUP1 PUSH4 0x8DA5CB5B EQ PUSH2 0x191 JUMPI PUSH1 0x0 DUP1 REVERT JUMPDEST DUP1 PUSH4 0x47CCED3 EQ PUSH2 0xD4 JUMPI DUP1 PUSH4 0xF5FB3D4 EQ PUSH2 0xF2 JUMPI DUP1 PUSH4 0x12065FE0 EQ PUSH2 0x11D JUMPI DUP1 PUSH4 0x171B0188 EQ PUSH2 0x133 JUMPI DUP1 PUSH4 0x4AFB08A6 EQ PUSH2 0x148 JUMPI DUP1 PUSH4 0x70019B35 EQ PUSH2 0x15B JUMPI JUMPDEST PUSH1 0x0 DUP1 REVERT JUMPDEST PUSH2 0xDC PUSH2 0x1E9 JUMP JUMPDEST PUSH1 0x40 MLOAD PUSH2 0xE9 SWAP2 SWAP1 PUSH2 0x685 JUMP JUMPDEST PUSH1 0x40 MLOAD DUP1 SWAP2 SUB SWAP1 RETURN JUMPDEST PUSH1 0x1 SLOAD PUSH2 0x105 SWAP1 PUSH1 0x1 PUSH1 0x1 PUSH1 0xA0 SHL SUB AND DUP2 JUMP JUMPDEST PUSH1 0x40 MLOAD PUSH1 0x1 PUSH1 0x1 PUSH1 0xA0 SHL SUB SWAP1 SWAP2 AND DUP2 MSTORE PUSH1 0x20 ADD PUSH2 0xE9 JUMP JUMPDEST PUSH2 0x125 PUSH2 0x27B JUMP JUMPDEST PUSH1 0x40 MLOAD SWAP1 DUP2 MSTORE PUSH1 0x20 ADD PUSH2 0xE9 JUMP JUMPDEST PUSH2 0x146 PUSH2 0x141 CALLDATASIZE PUSH1 0x4 PUSH2 0x69F JUMP JUMPDEST PUSH2 0x2CB JUMP JUMPDEST STOP JUMPDEST PUSH2 0x146 PUSH2 0x156 CALLDATASIZE PUSH1 0x4 PUSH2 0x75B JUMP JUMPDEST PUSH2 0x373 JUMP JUMPDEST PUSH2 0xDC PUSH2 0x3AD JUMP JUMPDEST PUSH1 0x5 SLOAD PUSH2 0x170 SWAP1 PUSH1 0xFF AND DUP2 JUMP JUMPDEST PUSH1 0x40 MLOAD SWAP1 ISZERO ISZERO DUP2 MSTORE PUSH1 0x20 ADD PUSH2 0xE9 JUMP JUMPDEST PUSH1 0x0 SLOAD PUSH1 0x1 PUSH1 0x1 PUSH1 0xA0 SHL SUB AND PUSH2 0x105 JUMP JUMPDEST PUSH1 0x0 SLOAD PUSH2 0x105 SWAP1 PUSH1 0x1 PUSH1 0x1 PUSH1 0xA0 SHL SUB AND DUP2 JUMP JUMPDEST PUSH2 0xDC PUSH2 0x43B JUMP JUMPDEST PUSH2 0x170 PUSH2 0x1BA CALLDATASIZE PUSH1 0x4 PUSH2 0x75B JUMP JUMPDEST PUSH2 0x448 JUMP JUMPDEST PUSH2 0x146 PUSH2 0x1CD CALLDATASIZE PUSH1 0x4 PUSH2 0x798 JUMP JUMPDEST PUSH2 0x4A1 JUMP JUMPDEST PUSH2 0x1DA PUSH2 0x4F8 JUMP JUMPDEST PUSH1 0x40 MLOAD PUSH2 0xE9 SWAP4 SWAP3 SWAP2 SWAP1 PUSH2 0x815 JUMP JUMPDEST PUSH1 0x60 PUSH1 0x3 DUP1 SLOAD PUSH2 0x1F8 SWAP1 PUSH2 0x84C JUMP JUMPDEST DUP1 PUSH1 0x1F ADD PUSH1 0x20 DUP1 SWAP2 DIV MUL PUSH1 0x20 ADD PUSH1 0x40 MLOAD SWAP1 DUP2 ADD PUSH1 0x40 MSTORE DUP1 SWAP3 SWAP2 SWAP1 DUP2 DUP2 MSTORE PUSH1 0x20 ADD DUP3 DUP1 SLOAD PUSH2 0x224 SWAP1 PUSH2 0x84C JUMP JUMPDEST DUP1 ISZERO PUSH2 0x271 JUMPI DUP1 PUSH1 0x1F LT PUSH2 0x246 JUMPI PUSH2 0x100 DUP1 DUP4 SLOAD DIV MUL DUP4 MSTORE SWAP2 PUSH1 0x20 ADD SWAP2 PUSH2 0x271 JUMP JUMPDEST DUP3 ADD SWAP2 SWAP1 PUSH1 0x0 MSTORE PUSH1 0x20 PUSH1 0x0 KECCAK256 SWAP1 JUMPDEST DUP2 SLOAD DUP2 MSTORE SWAP1 PUSH1 0x1 ADD SWAP1 PUSH1 0x20 ADD DUP1 DUP4 GT PUSH2 0x254 JUMPI DUP3 SWAP1 SUB PUSH1 0x1F AND DUP3 ADD SWAP2 JUMPDEST POP POP POP POP POP SWAP1 POP SWAP1 JUMP JUMPDEST PUSH1 0x0 DUP1 SLOAD PUSH1 0x1 PUSH1 0x1 PUSH1 0xA0 SHL SUB AND CALLER EQ DUP1 PUSH2 0x29F JUMPI POP PUSH1 0x1 SLOAD PUSH1 0x1 PUSH1 0x1 PUSH1 0xA0 SHL SUB AND CALLER EQ JUMPDEST PUSH2 0x2C4 JUMPI PUSH1 0x40 MLOAD PUSH3 0x461BCD PUSH1 0xE5 SHL DUP2 MSTORE PUSH1 0x4 ADD PUSH2 0x2BB SWAP1 PUSH2 0x886 JUMP JUMPDEST PUSH1 0x40 MLOAD DUP1 SWAP2 SUB SWAP1 REVERT JUMPDEST POP PUSH1 0x4 SLOAD SWAP1 JUMP JUMPDEST PUSH1 0x0 SLOAD PUSH1 0x1 PUSH1 0x1 PUSH1 0xA0 SHL SUB AND CALLER EQ DUP1 PUSH2 0x2EE JUMPI POP PUSH1 0x1 SLOAD PUSH1 0x1 PUSH1 0x1 PUSH1 0xA0 SHL SUB AND CALLER EQ JUMPDEST PUSH2 0x30A JUMPI PUSH1 0x40 MLOAD PUSH3 0x461BCD PUSH1 0xE5 SHL DUP2 MSTORE PUSH1 0x4 ADD PUSH2 0x2BB SWAP1 PUSH2 0x886 JUMP JUMPDEST PUSH1 0x0 DUP2 PUSH1 0x4 SLOAD PUSH2 0x31A SWAP2 SWAP1 PUSH2 0x8DB JUMP JUMPDEST SLT ISZERO PUSH2 0x35F JUMPI PUSH1 0x40 MLOAD PUSH3 0x461BCD PUSH1 0xE5 SHL DUP2 MSTORE PUSH1 0x20 PUSH1 0x4 DUP3 ADD MSTORE PUSH1 0x14 PUSH1 0x24 DUP3 ADD MSTORE PUSH20 0x496E73756666696369656E742062616C616E6365 PUSH1 0x60 SHL PUSH1 0x44 DUP3 ADD MSTORE PUSH1 0x64 ADD PUSH2 0x2BB JUMP JUMPDEST DUP1 PUSH1 0x4 SLOAD PUSH2 0x36D SWAP2 SWAP1 PUSH2 0x8DB JUMP JUMPDEST PUSH1 0x4 SSTORE POP JUMP JUMPDEST PUSH1 0x0 SLOAD PUSH1 0x1 PUSH1 0x1 PUSH1 0xA0 SHL SUB AND CALLER EQ PUSH2 0x39D JUMPI PUSH1 0x40 MLOAD PUSH3 0x461BCD PUSH1 0xE5 SHL DUP2 MSTORE PUSH1 0x4 ADD PUSH2 0x2BB SWAP1 PUSH2 0x911 JUMP JUMPDEST PUSH1 0x3 PUSH2 0x3A9 DUP3 DUP3 PUSH2 0x9A1 JUMP JUMPDEST POP POP JUMP JUMPDEST PUSH1 0x2 DUP1 SLOAD PUSH2 0x3BA SWAP1 PUSH2 0x84C JUMP JUMPDEST DUP1 PUSH1 0x1F ADD PUSH1 0x20 DUP1 SWAP2 DIV MUL PUSH1 0x20 ADD PUSH1 0x40 MLOAD SWAP1 DUP2 ADD PUSH1 0x40 MSTORE DUP1 SWAP3 SWAP2 SWAP1 DUP2 DUP2 MSTORE PUSH1 0x20 ADD DUP3 DUP1 SLOAD PUSH2 0x3E6 SWAP1 PUSH2 0x84C JUMP JUMPDEST DUP1 ISZERO PUSH2 0x433 JUMPI DUP1 PUSH1 0x1F LT PUSH2 0x408 JUMPI PUSH2 0x100 DUP1 DUP4 SLOAD DIV MUL DUP4 MSTORE SWAP2 PUSH1 0x20 ADD SWAP2 PUSH2 0x433 JUMP JUMPDEST DUP3 ADD SWAP2 SWAP1 PUSH1 0x0 MSTORE PUSH1 0x20 PUSH1 0x0 KECCAK256 SWAP1 JUMPDEST DUP2 SLOAD DUP2 MSTORE SWAP1 PUSH1 0x1 ADD SWAP1 PUSH1 0x20 ADD DUP1 DUP4 GT PUSH2 0x416 JUMPI DUP3 SWAP1 SUB PUSH1 0x1F AND DUP3 ADD SWAP2 JUMPDEST POP POP POP POP POP DUP2 JUMP JUMPDEST PUSH1 0x6 DUP1 SLOAD PUSH2 0x3BA SWAP1 PUSH2 0x84C JUMP JUMPDEST PUSH1 0x0 PUSH1 0x3 PUSH1 0x40 MLOAD PUSH1 0x20 ADD PUSH2 0x45C SWAP2 SWAP1 PUSH2 0xA61 JUMP JUMPDEST PUSH1 0x40 MLOAD PUSH1 0x20 DUP2 DUP4 SUB SUB DUP2 MSTORE SWAP1 PUSH1 0x40 MSTORE DUP1 MLOAD SWAP1 PUSH1 0x20 ADD KECCAK256 DUP3 PUSH1 0x40 MLOAD PUSH1 0x20 ADD PUSH2 0x483 SWAP2 SWAP1 PUSH2 0xAD7 JUMP JUMPDEST PUSH1 0x40 MLOAD PUSH1 0x20 DUP2 DUP4 SUB SUB DUP2 MSTORE SWAP1 PUSH1 0x40 MSTORE DUP1 MLOAD SWAP1 PUSH1 0x20 ADD KECCAK256 EQ SWAP1 POP SWAP2 SWAP1 POP JUMP JUMPDEST PUSH1 0x0 SLOAD PUSH1 0x1 PUSH1 0x1 PUSH1 0xA0 SHL SUB AND CALLER EQ PUSH2 0x4CB JUMPI PUSH1 0x40 MLOAD PUSH3 0x461BCD PUSH1 0xE5 SHL DUP2 MSTORE PUSH1 0x4 ADD PUSH2 0x2BB SWAP1 PUSH2 0x911 JUMP JUMPDEST PUSH1 0x2 PUSH2 0x4D7 DUP5 DUP3 PUSH2 0x9A1 JUMP JUMPDEST POP PUSH1 0x5 DUP1 SLOAD PUSH1 0xFF NOT AND DUP4 ISZERO ISZERO OR SWAP1 SSTORE PUSH1 0x6 PUSH2 0x4F2 DUP3 DUP3 PUSH2 0x9A1 JUMP JUMPDEST POP POP POP POP JUMP JUMPDEST PUSH1 0x60 PUSH1 0x0 PUSH1 0x60 PUSH1 0x2 PUSH1 0x5 PUSH1 0x0 SWAP1 SLOAD SWAP1 PUSH2 0x100 EXP SWAP1 DIV PUSH1 0xFF AND PUSH1 0x6 DUP3 DUP1 SLOAD PUSH2 0x51E SWAP1 PUSH2 0x84C JUMP JUMPDEST DUP1 PUSH1 0x1F ADD PUSH1 0x20 DUP1 SWAP2 DIV MUL PUSH1 0x20 ADD PUSH1 0x40 MLOAD SWAP1 DUP2 ADD PUSH1 0x40 MSTORE DUP1 SWAP3 SWAP2 SWAP1 DUP2 DUP2 MSTORE PUSH1 0x20 ADD DUP3 DUP1 SLOAD PUSH2 0x54A SWAP1 PUSH2 0x84C JUMP JUMPDEST DUP1 ISZERO PUSH2 0x597 JUMPI DUP1 PUSH1 0x1F LT PUSH2 0x56C JUMPI PUSH2 0x100 DUP1 DUP4 SLOAD DIV MUL DUP4 MSTORE SWAP2 PUSH1 0x20 ADD SWAP2 PUSH2 0x597 JUMP JUMPDEST DUP3 ADD SWAP2 SWAP1 PUSH1 0x0 MSTORE PUSH1 0x20 PUSH1 0x0 KECCAK256 SWAP1 JUMPDEST DUP2 SLOAD DUP2 MSTORE SWAP1 PUSH1 0x1 ADD SWAP1 PUSH1 0x20 ADD DUP1 DUP4 GT PUSH2 0x57A JUMPI DUP3 SWAP1 SUB PUSH1 0x1F AND DUP3 ADD SWAP2 JUMPDEST POP POP POP POP POP SWAP3 POP DUP1 DUP1 SLOAD PUSH2 0x5AA SWAP1 PUSH2 0x84C JUMP JUMPDEST DUP1 PUSH1 0x1F ADD PUSH1 0x20 DUP1 SWAP2 DIV MUL PUSH1 0x20 ADD PUSH1 0x40 MLOAD SWAP1 DUP2 ADD PUSH1 0x40 MSTORE DUP1 SWAP3 SWAP2 SWAP1 DUP2 DUP2 MSTORE PUSH1 0x20 ADD DUP3 DUP1 SLOAD PUSH2 0x5D6 SWAP1 PUSH2 0x84C JUMP JUMPDEST DUP1 ISZERO PUSH2 0x623 JUMPI DUP1 PUSH1 0x1F LT PUSH2 0x5F8 JUMPI PUSH2 0x100 DUP1 DUP4 SLOAD DIV MUL DUP4 MSTORE SWAP2 PUSH1 0x20 ADD SWAP2 PUSH2 0x623 JUMP JUMPDEST DUP3 ADD SWAP2 SWAP1 PUSH1 0x0 MSTORE PUSH1 0x20 PUSH1 0x0 KECCAK256 SWAP1 JUMPDEST DUP2 SLOAD DUP2 MSTORE SWAP1 PUSH1 0x1 ADD SWAP1 PUSH1 0x20 ADD DUP1 DUP4 GT PUSH2 0x606 JUMPI DUP3 SWAP1 SUB PUSH1 0x1F AND DUP3 ADD SWAP2 JUMPDEST POP POP POP POP POP SWAP1 POP SWAP3 POP SWAP3 POP SWAP3 POP SWAP1 SWAP2 SWAP3 JUMP JUMPDEST PUSH1 0x0 JUMPDEST DUP4 DUP2 LT ISZERO PUSH2 0x650 JUMPI DUP2 DUP2 ADD MLOAD DUP4 DUP3 ADD MSTORE PUSH1 0x20 ADD PUSH2 0x638 JUMP JUMPDEST POP POP PUSH1 0x0 SWAP2 ADD MSTORE JUMP JUMPDEST PUSH1 0x0 DUP2 MLOAD DUP1 DUP5 MSTORE PUSH2 0x671 DUP2 PUSH1 0x20 DUP7 ADD PUSH1 0x20 DUP7 ADD PUSH2 0x635 JUMP JUMPDEST PUSH1 0x1F ADD PUSH1 0x1F NOT AND SWAP3 SWAP1 SWAP3 ADD PUSH1 0x20 ADD SWAP3 SWAP2 POP POP JUMP JUMPDEST PUSH1 0x20 DUP2 MSTORE PUSH1 0x0 PUSH2 0x698 PUSH1 0x20 DUP4 ADD DUP5 PUSH2 0x659 JUMP JUMPDEST SWAP4 SWAP3 POP POP POP JUMP JUMPDEST PUSH1 0x0 PUSH1 0x20 DUP3 DUP5 SUB SLT ISZERO PUSH2 0x6B1 JUMPI PUSH1 0x0 DUP1 REVERT JUMPDEST POP CALLDATALOAD SWAP2 SWAP1 POP JUMP JUMPDEST PUSH4 0x4E487B71 PUSH1 0xE0 SHL PUSH1 0x0 MSTORE PUSH1 0x41 PUSH1 0x4 MSTORE PUSH1 0x24 PUSH1 0x0 REVERT JUMPDEST PUSH1 0x0 DUP3 PUSH1 0x1F DUP4 ADD SLT PUSH2 0x6DF JUMPI PUSH1 0x0 DUP1 REVERT JUMPDEST DUP2 CALLDATALOAD PUSH8 0xFFFFFFFFFFFFFFFF DUP1 DUP3 GT ISZERO PUSH2 0x6FA JUMPI PUSH2 0x6FA PUSH2 0x6B8 JUMP JUMPDEST PUSH1 0x40 MLOAD PUSH1 0x1F DUP4 ADD PUSH1 0x1F NOT SWAP1 DUP2 AND PUSH1 0x3F ADD AND DUP2 ADD SWAP1 DUP3 DUP3 GT DUP2 DUP4 LT OR ISZERO PUSH2 0x722 JUMPI PUSH2 0x722 PUSH2 0x6B8 JUMP JUMPDEST DUP2 PUSH1 0x40 MSTORE DUP4 DUP2 MSTORE DUP7 PUSH1 0x20 DUP6 DUP9 ADD ADD GT ISZERO PUSH2 0x73B JUMPI PUSH1 0x0 DUP1 REVERT JUMPDEST DUP4 PUSH1 0x20 DUP8 ADD PUSH1 0x20 DUP4 ADD CALLDATACOPY PUSH1 0x0 PUSH1 0x20 DUP6 DUP4 ADD ADD MSTORE DUP1 SWAP5 POP POP POP POP POP SWAP3 SWAP2 POP POP JUMP JUMPDEST PUSH1 0x0 PUSH1 0x20 DUP3 DUP5 SUB SLT ISZERO PUSH2 0x76D JUMPI PUSH1 0x0 DUP1 REVERT JUMPDEST DUP2 CALLDATALOAD PUSH8 0xFFFFFFFFFFFFFFFF DUP2 GT ISZERO PUSH2 0x784 JUMPI PUSH1 0x0 DUP1 REVERT JUMPDEST PUSH2 0x790 DUP5 DUP3 DUP6 ADD PUSH2 0x6CE JUMP JUMPDEST SWAP5 SWAP4 POP POP POP POP JUMP JUMPDEST PUSH1 0x0 DUP1 PUSH1 0x0 PUSH1 0x60 DUP5 DUP7 SUB SLT ISZERO PUSH2 0x7AD JUMPI PUSH1 0x0 DUP1 REVERT JUMPDEST DUP4 CALLDATALOAD PUSH8 0xFFFFFFFFFFFFFFFF DUP1 DUP3 GT ISZERO PUSH2 0x7C5 JUMPI PUSH1 0x0 DUP1 REVERT JUMPDEST PUSH2 0x7D1 DUP8 DUP4 DUP9 ADD PUSH2 0x6CE JUMP JUMPDEST SWAP5 POP PUSH1 0x20 DUP7 ADD CALLDATALOAD SWAP2 POP DUP2 ISZERO ISZERO DUP3 EQ PUSH2 0x7E8 JUMPI PUSH1 0x0 DUP1 REVERT JUMPDEST SWAP1 SWAP3 POP PUSH1 0x40 DUP6 ADD CALLDATALOAD SWAP1 DUP1 DUP3 GT ISZERO PUSH2 0x7FE JUMPI PUSH1 0x0 DUP1 REVERT JUMPDEST POP PUSH2 0x80B DUP7 DUP3 DUP8 ADD PUSH2 0x6CE JUMP JUMPDEST SWAP2 POP POP SWAP3 POP SWAP3 POP SWAP3 JUMP JUMPDEST PUSH1 0x60 DUP2 MSTORE PUSH1 0x0 PUSH2 0x828 PUSH1 0x60 DUP4 ADD DUP7 PUSH2 0x659 JUMP JUMPDEST DUP5 ISZERO ISZERO PUSH1 0x20 DUP5 ADD MSTORE DUP3 DUP2 SUB PUSH1 0x40 DUP5 ADD MSTORE PUSH2 0x842 DUP2 DUP6 PUSH2 0x659 JUMP JUMPDEST SWAP7 SWAP6 POP POP POP POP POP POP JUMP JUMPDEST PUSH1 0x1 DUP2 DUP2 SHR SWAP1 DUP3 AND DUP1 PUSH2 0x860 JUMPI PUSH1 0x7F DUP3 AND SWAP2 POP JUMPDEST PUSH1 0x20 DUP3 LT DUP2 SUB PUSH2 0x880 JUMPI PUSH4 0x4E487B71 PUSH1 0xE0 SHL PUSH1 0x0 MSTORE PUSH1 0x22 PUSH1 0x4 MSTORE PUSH1 0x24 PUSH1 0x0 REVERT JUMPDEST POP SWAP2 SWAP1 POP JUMP JUMPDEST PUSH1 0x20 DUP1 DUP3 MSTORE PUSH1 0x35 SWAP1 DUP3 ADD MSTORE PUSH32 0x4F6E6C79206F776E6572206F722073797374656D20636F6E7472616374732063 PUSH1 0x40 DUP3 ADD MSTORE PUSH21 0x30B71031B0B636103A3434B990333AB731BA34B7B7 PUSH1 0x59 SHL PUSH1 0x60 DUP3 ADD MSTORE PUSH1 0x80 ADD SWAP1 JUMP JUMPDEST DUP1 DUP3 ADD DUP3 DUP2 SLT PUSH1 0x0 DUP4 SLT DUP1 ISZERO DUP3 AND DUP3 ISZERO DUP3 AND OR ISZERO PUSH2 0x909 JUMPI PUSH4 0x4E487B71 PUSH1 0xE0 SHL PUSH1 0x0 MSTORE PUSH1 0x11 PUSH1 0x4 MSTORE PUSH1 0x24 PUSH1 0x0 REVERT JUMPDEST POP POP SWAP3 SWAP2 POP POP JUMP JUMPDEST PUSH1 0x20 DUP1 DUP3 MSTORE PUSH1 0x21 SWAP1 DUP3 ADD MSTORE PUSH32 0x4F6E6C79206F776E65722063616E2063616C6C20746869732066756E6374696F PUSH1 0x40 DUP3 ADD MSTORE PUSH1 0x37 PUSH1 0xF9 SHL PUSH1 0x60 DUP3 ADD MSTORE PUSH1 0x80 ADD SWAP1 JUMP JUMPDEST PUSH1 0x1F DUP3 GT ISZERO PUSH2 0x99C JUMPI PUSH1 0x0 DUP2 DUP2 MSTORE PUSH1 0x20 DUP2 KECCAK256 PUSH1 0x1F DUP6 ADD PUSH1 0x5 SHR DUP2 ADD PUSH1 0x20 DUP7 LT ISZERO PUSH2 0x979 JUMPI POP DUP1 JUMPDEST PUSH1 0x1F DUP6 ADD PUSH1 0x5 SHR DUP3 ADD SWAP2 POP JUMPDEST DUP2 DUP2 LT ISZERO PUSH2 0x998 JUMPI DUP3 DUP2 SSTORE PUSH1 0x1 ADD PUSH2 0x985 JUMP JUMPDEST POP POP POP JUMPDEST POP POP POP JUMP JUMPDEST DUP2 MLOAD PUSH8 0xFFFFFFFFFFFFFFFF DUP2 GT ISZERO PUSH2 0x9BB JUMPI PUSH2 0x9BB PUSH2 0x6B8 JUMP JUMPDEST PUSH2 0x9CF DUP2 PUSH2 0x9C9 DUP5 SLOAD PUSH2 0x84C JUMP JUMPDEST DUP5 PUSH2 0x952 JUMP JUMPDEST PUSH1 0x20 DUP1 PUSH1 0x1F DUP4 GT PUSH1 0x1 DUP2 EQ PUSH2 0xA04 JUMPI PUSH1 0x0 DUP5 ISZERO PUSH2 0x9EC JUMPI POP DUP6 DUP4 ADD MLOAD JUMPDEST PUSH1 0x0 NOT PUSH1 0x3 DUP7 SWAP1 SHL SHR NOT AND PUSH1 0x1 DUP6 SWAP1 SHL OR DUP6 SSTORE PUSH2 0x998 JUMP JUMPDEST PUSH1 0x0 DUP6 DUP2 MSTORE PUSH1 0x20 DUP2 KECCAK256 PUSH1 0x1F NOT DUP7 AND SWAP2 JUMPDEST DUP3 DUP2 LT ISZERO PUSH2 0xA33 JUMPI DUP9 DUP7 ADD MLOAD DUP3 SSTORE SWAP5 DUP5 ADD SWAP5 PUSH1 0x1 SWAP1 SWAP2 ADD SWAP1 DUP5 ADD PUSH2 0xA14 JUMP JUMPDEST POP DUP6 DUP3 LT ISZERO PUSH2 0xA51 JUMPI DUP8 DUP6 ADD MLOAD PUSH1 0x0 NOT PUSH1 0x3 DUP9 SWAP1 SHL PUSH1 0xF8 AND SHR NOT AND DUP2 SSTORE JUMPDEST POP POP POP POP POP PUSH1 0x1 SWAP1 DUP2 SHL ADD SWAP1 SSTORE POP JUMP JUMPDEST PUSH1 0x0 DUP1 DUP4 SLOAD PUSH2 0xA6F DUP2 PUSH2 0x84C JUMP JUMPDEST PUSH1 0x1 DUP3 DUP2 AND DUP1 ISZERO PUSH2 0xA87 JUMPI PUSH1 0x1 DUP2 EQ PUSH2 0xA9C JUMPI PUSH2 0xACB JUMP JUMPDEST PUSH1 0xFF NOT DUP5 AND DUP8 MSTORE DUP3 ISZERO ISZERO DUP4 MUL DUP8 ADD SWAP5 POP PUSH2 0xACB JUMP JUMPDEST DUP8 PUSH1 0x0 MSTORE PUSH1 0x20 DUP1 PUSH1 0x0 KECCAK256 PUSH1 0x0 JUMPDEST DUP6 DUP2 LT ISZERO PUSH2 0xAC2 JUMPI DUP2 SLOAD DUP11 DUP3 ADD MSTORE SWAP1 DUP5 ADD SWAP1 DUP3 ADD PUSH2 0xAA9 JUMP JUMPDEST POP POP POP DUP3 DUP8 ADD SWAP5 POP JUMPDEST POP SWAP3 SWAP7 SWAP6 POP POP POP POP POP POP JUMP JUMPDEST PUSH1 0x0 DUP3 MLOAD PUSH2 0xAE9 DUP2 DUP5 PUSH1 0x20 DUP8 ADD PUSH2 0x635 JUMP JUMPDEST SWAP2 SWAP1 SWAP2 ADD SWAP3 SWAP2 POP POP JUMP INVALID LOG2 PUSH5 0x6970667358 0x22 SLT KECCAK256 POP 0xBA 0xA5 CALLDATASIZE DIV 0xBB PUSH11 0xB92E77B9388FA903BE2E24 DUP2 0xA7 PUSH27 0x3C062C3DF6EC3C80F6420F64736F6C634300081400330000000000 "},"methodIdentifiers":{"gender()":"79caad86","getBalance()":"12065fe0","getOwner()":"893d20e8","getOwnerInfo()":"facf8323","getPasswordHash()":"047cced3","modifyOwnerInfo(string,bool,string)":"b30d7c99","owner()":"8da5cb5b","phone()":"9284f497","productList()":"0f5fb3d4","pwdRight(string)":"b2f06517","updateBalance(int256)":"171b0188","updatePassword(string)":"4afb08a6","userName()":"70019b35"}}}}}