{"contracts/fleaMarket.sol":{"UserList":{"abi":[{"inputs":[{"internalType":"address","name":"_ProductList","type":"address"},{"internalType":"string","name":"userName","type":"string"},{"internalType":"string","name":"password","type":"string"},{"internalType":"bool","name":"gender","type":"bool"},{"internalType":"string","name":"phone","type":"string"}],"name":"createUser","outputs":[],"stateMutability":"nonpayable","type":"function"},{"inputs":[{"internalType":"address","name":"","type":"address"}],"name":"creatorOwnerMap","outputs":[{"internalType":"address","name":"","type":"address"}],"stateMutability":"view","type":"function"},{"inputs":[],"name":"getCarownerList","outputs":[{"internalType":"address[]","name":"","type":"address[]"}],"stateMutability":"view","type":"function"},{"inputs":[{"internalType":"string","name":"userName","type":"string"}],"name":"getPasswordHashByUsername","outputs":[{"internalType":"string","name":"","type":"string"}],"stateMutability":"view","type":"function"},{"inputs":[{"internalType":"address","name":"_address","type":"address"}],"name":"getUserAddress","outputs":[{"internalType":"address","name":"","type":"address"}],"stateMutability":"view","type":"function"},{"inputs":[{"internalType":"address","name":"account","type":"address"}],"name":"isNotRegistered","outputs":[{"internalType":"bool","name":"","type":"bool"}],"stateMutability":"view","type":"function"},{"inputs":[{"internalType":"address","name":"ownerAddr","type":"address"}],"name":"isUser","outputs":[{"internalType":"bool","name":"","type":"bool"}],"stateMutability":"view","type":"function"},{"inputs":[{"internalType":"uint256","name":"","type":"uint256"}],"name":"userList","outputs":[{"internalType":"address","name":"","type":"address"}],"stateMutability":"view","type":"function"},{"inputs":[{"internalType":"string","name":"userName","type":"string"},{"internalType":"string","name":"password","type":"string"}],"name":"verifyPwd","outputs":[{"internalType":"bool","name":"","type":"bool"}],"stateMutability":"view","type":"function"}],"evm":{"bytecode":{"linkReferences":{},"object":"608060405234801561001057600080fd5b50611b68806100206000396000f3fe60806040523480156200001157600080fd5b50600436106200009f5760003560e01c80639e31a3ee116200006e5780639e31a3ee146200016a5780639f4216e81462000181578063b3c09a1d1462000198578063cb00285614620001b1578063d8c251b514620001ca57600080fd5b80634209fff114620000a457806349c1b61714620000d05780634d6849d214620000f65780634e48c0a4146200013e575b600080fd5b620000bb620000b536600462000798565b620001fa565b60405190151581526020015b60405180910390f35b620000e7620000e13660046200088e565b62000266565b604051620000c791906200091b565b620001256200010736600462000798565b6001600160a01b039081166000908152600160205260409020541690565b6040516001600160a01b039091168152602001620000c7565b620001256200014f36600462000798565b6001602052600090815260409020546001600160a01b031681565b620000bb6200017b36600462000930565b620003e1565b62000125620001923660046200099b565b62000569565b620001a262000594565b604051620000c79190620009b5565b620001c8620001c236600462000a16565b620005f8565b005b620000bb620001db36600462000798565b6001600160a01b03908116600090815260016020526040902054161590565b6000805b6000548110156200025d57600081815481106200021f576200021f62000ad2565b6000918252602090912001546001600160a01b0390811690841603620002485750600192915050565b80620002548162000ae8565b915050620001fe565b50600092915050565b606060005b600054811015620003a25760008082815481106200028d576200028d62000ad2565b6000918252602082200154604080516370019b3560e01b815290516001600160a01b039092169350620003159284926370019b359260048082019392918290030181865afa158015620002e4573d6000803e3d6000fd5b505050506040513d6000823e601f3d908101601f191682016040526200030e919081019062000b10565b8562000710565b156200038c57806001600160a01b031663047cced36040518163ffffffff1660e01b8152600401600060405180830381865afa1580156200035a573d6000803e3d6000fd5b505050506040513d6000823e601f3d908101601f1916820160405262000384919081019062000b10565b949350505050565b5080620003998162000ae8565b9150506200026b565b5060405162461bcd60e51b815260206004820152600e60248201526d155cd95c881b9bdd08199bdd5b9960921b60448201526064015b60405180910390fd5b336000818152600160205260408120549091906001600160a01b0316620004565760405162461bcd60e51b815260206004820152602260248201527f43616c6c6572206e6f74207265676973746572656420617320636172206f776e60448201526132b960f11b6064820152608401620003d8565b6001600160a01b038082166000908152600160205260408082205481516370019b3560e01b815291519316928392620004e59284926370019b35926004808401939192918290030181865afa158015620004b4573d6000803e3d6000fd5b505050506040513d6000823e601f3d908101601f19168201604052620004de919081019062000b10565b8762000710565b80156200055f575060405163b2f0651760e01b81526001600160a01b0382169063b2f06517906200051b9088906004016200091b565b602060405180830381865afa15801562000539573d6000803e3d6000fd5b505050506040513d601f19601f820116820180604052508101906200055f919062000b90565b9695505050505050565b600081815481106200057a57600080fd5b6000918252602090912001546001600160a01b0316905081565b60606000805480602002602001604051908101604052809291908181526020018280548015620005ee57602002820191906000526020600020905b81546001600160a01b03168152600190910190602001808311620005cf575b5050505050905090565b336000818152600160205260409020546001600160a01b031615620006605760405162461bcd60e51b815260206004820152601a60248201527f4163636f756e7420616c726561647920726567697374657265640000000000006044820152606401620003d8565b600086828787878760405162000676906200076d565b620006879695949392919062000bb0565b604051809103906000f080158015620006a4573d6000803e3d6000fd5b5060008054600181810183557f290decd9548b62a8d60345a988386fc84ba6bc95484008f6362f93160ef3e56390910180546001600160a01b039485166001600160a01b0319918216811790925595909316825260205260409020805490931617909155505050505050565b60008160405160200162000725919062000c1d565b60405160208183030381529060405280519060200120836040516020016200074e919062000c1d565b6040516020818303038152906040528051906020012014905092915050565b610ef78062000c3c83390190565b80356001600160a01b03811681146200079357600080fd5b919050565b600060208284031215620007ab57600080fd5b620007b6826200077b565b9392505050565b634e487b7160e01b600052604160045260246000fd5b604051601f8201601f1916810167ffffffffffffffff81118282101715620007ff57620007ff620007bd565b604052919050565b600067ffffffffffffffff821115620008245762000824620007bd565b50601f01601f191660200190565b600082601f8301126200084457600080fd5b81356200085b620008558262000807565b620007d3565b8181528460208386010111156200087157600080fd5b816020850160208301376000918101602001919091529392505050565b600060208284031215620008a157600080fd5b813567ffffffffffffffff811115620008b957600080fd5b620003848482850162000832565b60005b83811015620008e4578181015183820152602001620008ca565b50506000910152565b6000815180845262000907816020860160208601620008c7565b601f01601f19169290920160200192915050565b602081526000620007b66020830184620008ed565b600080604083850312156200094457600080fd5b823567ffffffffffffffff808211156200095d57600080fd5b6200096b8683870162000832565b935060208501359150808211156200098257600080fd5b50620009918582860162000832565b9150509250929050565b600060208284031215620009ae57600080fd5b5035919050565b6020808252825182820181905260009190848201906040850190845b81811015620009f85783516001600160a01b031683529284019291840191600101620009d1565b50909695505050505050565b801515811462000a1357600080fd5b50565b600080600080600060a0868803121562000a2f57600080fd5b62000a3a866200077b565b9450602086013567ffffffffffffffff8082111562000a5857600080fd5b62000a6689838a0162000832565b9550604088013591508082111562000a7d57600080fd5b62000a8b89838a0162000832565b94506060880135915062000a9f8262000a04565b9092506080870135908082111562000ab657600080fd5b5062000ac58882890162000832565b9150509295509295909350565b634e487b7160e01b600052603260045260246000fd5b60006001820162000b0957634e487b7160e01b600052601160045260246000fd5b5060010190565b60006020828403121562000b2357600080fd5b815167ffffffffffffffff81111562000b3b57600080fd5b8201601f8101841362000b4d57600080fd5b805162000b5e620008558262000807565b81815285602083850101111562000b7457600080fd5b62000b87826020830160208601620008c7565b95945050505050565b60006020828403121562000ba357600080fd5b8151620007b68162000a04565b6001600160a01b0387811682528616602082015260c06040820181905260009062000bde90830187620008ed565b828103606084015262000bf28187620008ed565b9050841515608084015282810360a084015262000c108185620008ed565b9998505050505050505050565b6000825162000c31818460208701620008c7565b919091019291505056fe60806040523480156200001157600080fd5b5060405162000ef738038062000ef7833981016040819052620000349162000193565b600080546001600160a01b038088166001600160a01b03199283161790925560018054928916929091169190911790556002620000728582620002f2565b506003620000818482620002f2565b506127106004556005805460ff19168315151790556006620000a48282620002f2565b50505050505050620003be565b80516001600160a01b0381168114620000c957600080fd5b919050565b634e487b7160e01b600052604160045260246000fd5b600082601f830112620000f657600080fd5b81516001600160401b0380821115620001135762000113620000ce565b604051601f8301601f19908116603f011681019082821181831017156200013e576200013e620000ce565b816040528381526020925086838588010111156200015b57600080fd5b600091505b838210156200017f578582018301518183018401529082019062000160565b600093810190920192909252949350505050565b60008060008060008060c08789031215620001ad57600080fd5b620001b887620000b1565b9550620001c860208801620000b1565b60408801519095506001600160401b0380821115620001e657600080fd5b620001f48a838b01620000e4565b955060608901519150808211156200020b57600080fd5b620002198a838b01620000e4565b94506080890151915081151582146200023157600080fd5b60a0890151919350808211156200024757600080fd5b506200025689828a01620000e4565b9150509295509295509295565b600181811c908216806200027857607f821691505b6020821081036200029957634e487b7160e01b600052602260045260246000fd5b50919050565b601f821115620002ed57600081815260208120601f850160051c81016020861015620002c85750805b601f850160051c820191505b81811015620002e957828155600101620002d4565b5050505b505050565b81516001600160401b038111156200030e576200030e620000ce565b62000326816200031f845462000263565b846200029f565b602080601f8311600181146200035e5760008415620003455750858301515b600019600386901b1c1916600185901b178555620002e9565b600085815260208120601f198616915b828110156200038f578886015182559484019460019091019084016200036e565b5085821015620003ae5787850151600019600388901b60f8161c191681555b5050505050600190811b01905550565b610b2980620003ce6000396000f3fe608060405234801561001057600080fd5b50600436106100cf5760003560e01c806379caad861161008c5780639284f497116100665780639284f497146101a4578063b2f06517146101ac578063b30d7c99146101bf578063facf8323146101d257600080fd5b806379caad8614610163578063893d20e8146101805780638da5cb5b1461019157600080fd5b8063047cced3146100d45780630f5fb3d4146100f257806312065fe01461011d578063171b0188146101335780634afb08a61461014857806370019b351461015b575b600080fd5b6100dc6101e9565b6040516100e99190610685565b60405180910390f35b600154610105906001600160a01b031681565b6040516001600160a01b0390911681526020016100e9565b61012561027b565b6040519081526020016100e9565b61014661014136600461069f565b6102cb565b005b61014661015636600461075b565b610373565b6100dc6103ad565b6005546101709060ff1681565b60405190151581526020016100e9565b6000546001600160a01b0316610105565b600054610105906001600160a01b031681565b6100dc61043b565b6101706101ba36600461075b565b610448565b6101466101cd366004610798565b6104a1565b6101da6104f8565b6040516100e993929190610815565b6060600380546101f89061084c565b80601f01602080910402602001604051908101604052809291908181526020018280546102249061084c565b80156102715780601f1061024657610100808354040283529160200191610271565b820191906000526020600020905b81548152906001019060200180831161025457829003601f168201915b5050505050905090565b600080546001600160a01b031633148061029f57506001546001600160a01b031633145b6102c45760405162461bcd60e51b81526004016102bb90610886565b60405180910390fd5b5060045490565b6000546001600160a01b03163314806102ee57506001546001600160a01b031633145b61030a5760405162461bcd60e51b81526004016102bb90610886565b60008160045461031a91906108db565b121561035f5760405162461bcd60e51b8152602060048201526014602482015273496e73756666696369656e742062616c616e636560601b60448201526064016102bb565b8060045461036d91906108db565b60045550565b6000546001600160a01b0316331461039d5760405162461bcd60e51b81526004016102bb90610911565b60036103a982826109a1565b5050565b600280546103ba9061084c565b80601f01602080910402602001604051908101604052809291908181526020018280546103e69061084c565b80156104335780601f1061040857610100808354040283529160200191610433565b820191906000526020600020905b81548152906001019060200180831161041657829003601f168201915b505050505081565b600680546103ba9061084c565b6000600360405160200161045c9190610a61565b60405160208183030381529060405280519060200120826040516020016104839190610ad7565b60405160208183030381529060405280519060200120149050919050565b6000546001600160a01b031633146104cb5760405162461bcd60e51b81526004016102bb90610911565b60026104d784826109a1565b506005805460ff191683151517905560066104f282826109a1565b50505050565b6060600060606002600560009054906101000a900460ff16600682805461051e9061084c565b80601f016020809104026020016040519081016040528092919081815260200182805461054a9061084c565b80156105975780601f1061056c57610100808354040283529160200191610597565b820191906000526020600020905b81548152906001019060200180831161057a57829003601f168201915b505050505092508080546105aa9061084c565b80601f01602080910402602001604051908101604052809291908181526020018280546105d69061084c565b80156106235780601f106105f857610100808354040283529160200191610623565b820191906000526020600020905b81548152906001019060200180831161060657829003601f168201915b50505050509050925092509250909192565b60005b83811015610650578181015183820152602001610638565b50506000910152565b60008151808452610671816020860160208601610635565b601f01601f19169290920160200192915050565b6020815260006106986020830184610659565b9392505050565b6000602082840312156106b157600080fd5b5035919050565b634e487b7160e01b600052604160045260246000fd5b600082601f8301126106df57600080fd5b813567ffffffffffffffff808211156106fa576106fa6106b8565b604051601f8301601f19908116603f01168101908282118183101715610722576107226106b8565b8160405283815286602085880101111561073b57600080fd5b836020870160208301376000602085830101528094505050505092915050565b60006020828403121561076d57600080fd5b813567ffffffffffffffff81111561078457600080fd5b610790848285016106ce565b949350505050565b6000806000606084860312156107ad57600080fd5b833567ffffffffffffffff808211156107c557600080fd5b6107d1878388016106ce565b94506020860135915081151582146107e857600080fd5b909250604085013590808211156107fe57600080fd5b5061080b868287016106ce565b9150509250925092565b6060815260006108286060830186610659565b841515602084015282810360408401526108428185610659565b9695505050505050565b600181811c9082168061086057607f821691505b60208210810361088057634e487b7160e01b600052602260045260246000fd5b50919050565b60208082526035908201527f4f6e6c79206f776e6572206f722073797374656d20636f6e747261637473206360408201527430b71031b0b636103a3434b990333ab731ba34b7b760591b606082015260800190565b808201828112600083128015821682158216171561090957634e487b7160e01b600052601160045260246000fd5b505092915050565b60208082526021908201527f4f6e6c79206f776e65722063616e2063616c6c20746869732066756e6374696f6040820152603760f91b606082015260800190565b601f82111561099c57600081815260208120601f850160051c810160208610156109795750805b601f850160051c820191505b8181101561099857828155600101610985565b5050505b505050565b815167ffffffffffffffff8111156109bb576109bb6106b8565b6109cf816109c9845461084c565b84610952565b602080601f831160018114610a0457600084156109ec5750858301515b600019600386901b1c1916600185901b178555610998565b600085815260208120601f198616915b82811015610a3357888601518255948401946001909101908401610a14565b5085821015610a515787850151600019600388901b60f8161c191681555b5050505050600190811b01905550565b6000808354610a6f8161084c565b60018281168015610a875760018114610a9c57610acb565b60ff1984168752821515830287019450610acb565b8760005260208060002060005b85811015610ac25781548a820152908401908201610aa9565b50505082870194505b50929695505050505050565b60008251610ae9818460208701610635565b919091019291505056fea264697066735822122050baa53604bb6ab92e77b9388fa903be2e2481a77a3c062c3df6ec3c80f6420f64736f6c63430008140033a2646970667358221220ef70af527177cf7ddc13eec0212d048361a0b0a38d1e96ff1a19f60090f0294664736f6c63430008140033","opcodes":"PUSH1 0x80 PUSH1 0x40 MSTORE CALLVALUE DUP1 ISZERO PUSH2 0x10 JUMPI PUSH1 0x0 DUP1 REVERT JUMPDEST POP PUSH2 0x1B68 DUP1 PUSH2 0x20 PUSH1 0x0 CODECOPY PUSH1 0x0 RETURN INVALID PUSH1 0x80 PUSH1 0x40 MSTORE CALLVALUE DUP1 ISZERO PUSH3 0x11 JUMPI PUSH1 0x0 DUP1 REVERT JUMPDEST POP PUSH1 0x4 CALLDATASIZE LT PUSH3 0x9F JUMPI PUSH1 0x0 CALLDATALOAD PUSH1 0xE0 SHR DUP1 PUSH4 0x9E31A3EE GT PUSH3 0x6E JUMPI DUP1 PUSH4 0x9E31A3EE EQ PUSH3 0x16A JUMPI DUP1 PUSH4 0x9F4216E8 EQ PUSH3 0x181 JUMPI DUP1 PUSH4 0xB3C09A1D EQ PUSH3 0x198 JUMPI DUP1 PUSH4 0xCB002856 EQ PUSH3 0x1B1 JUMPI DUP1 PUSH4 0xD8C251B5 EQ PUSH3 0x1CA JUMPI PUSH1 0x0 DUP1 REVERT JUMPDEST DUP1 PUSH4 0x4209FFF1 EQ PUSH3 0xA4 JUMPI DUP1 PUSH4 0x49C1B617 EQ PUSH3 0xD0 JUMPI DUP1 PUSH4 0x4D6849D2 EQ PUSH3 0xF6 JUMPI DUP1 PUSH4 0x4E48C0A4 EQ PUSH3 0x13E JUMPI JUMPDEST PUSH1 0x0 DUP1 REVERT JUMPDEST PUSH3 0xBB PUSH3 0xB5 CALLDATASIZE PUSH1 0x4 PUSH3 0x798 JUMP JUMPDEST PUSH3 0x1FA JUMP JUMPDEST PUSH1 0x40 MLOAD SWAP1 ISZERO ISZERO DUP2 MSTORE PUSH1 0x20 ADD JUMPDEST PUSH1 0x40 MLOAD DUP1 SWAP2 SUB SWAP1 RETURN JUMPDEST PUSH3 0xE7 PUSH3 0xE1 CALLDATASIZE PUSH1 0x4 PUSH3 0x88E JUMP JUMPDEST PUSH3 0x266 JUMP JUMPDEST PUSH1 0x40 MLOAD PUSH3 0xC7 SWAP2 SWAP1 PUSH3 0x91B JUMP JUMPDEST PUSH3 0x125 PUSH3 0x107 CALLDATASIZE PUSH1 0x4 PUSH3 0x798 JUMP JUMPDEST PUSH1 0x1 PUSH1 0x1 PUSH1 0xA0 SHL SUB SWAP1 DUP2 AND PUSH1 0x0 SWAP1 DUP2 MSTORE PUSH1 0x1 PUSH1 0x20 MSTORE PUSH1 0x40 SWAP1 KECCAK256 SLOAD AND SWAP1 JUMP JUMPDEST PUSH1 0x40 MLOAD PUSH1 0x1 PUSH1 0x1 PUSH1 0xA0 SHL SUB SWAP1 SWAP2 AND DUP2 MSTORE PUSH1 0x20 ADD PUSH3 0xC7 JUMP JUMPDEST PUSH3 0x125 PUSH3 0x14F CALLDATASIZE PUSH1 0x4 PUSH3 0x798 JUMP JUMPDEST PUSH1 0x1 PUSH1 0x20 MSTORE PUSH1 0x0 SWAP1 DUP2 MSTORE PUSH1 0x40 SWAP1 KECCAK256 SLOAD PUSH1 0x1 PUSH1 0x1 PUSH1 0xA0 SHL SUB AND DUP2 JUMP JUMPDEST PUSH3 0xBB PUSH3 0x17B CALLDATASIZE PUSH1 0x4 PUSH3 0x930 JUMP JUMPDEST PUSH3 0x3E1 JUMP JUMPDEST PUSH3 0x125 PUSH3 0x192 CALLDATASIZE PUSH1 0x4 PUSH3 0x99B JUMP JUMPDEST PUSH3 0x569 JUMP JUMPDEST PUSH3 0x1A2 PUSH3 0x594 JUMP JUMPDEST PUSH1 0x40 MLOAD PUSH3 0xC7 SWAP2 SWAP1 PUSH3 0x9B5 JUMP JUMPDEST PUSH3 0x1C8 PUSH3 0x1C2 CALLDATASIZE PUSH1 0x4 PUSH3 0xA16 JUMP JUMPDEST PUSH3 0x5F8 JUMP JUMPDEST STOP JUMPDEST PUSH3 0xBB PUSH3 0x1DB CALLDATASIZE PUSH1 0x4 PUSH3 0x798 JUMP JUMPDEST PUSH1 0x1 PUSH1 0x1 PUSH1 0xA0 SHL SUB SWAP1 DUP2 AND PUSH1 0x0 SWAP1 DUP2 MSTORE PUSH1 0x1 PUSH1 0x20 MSTORE PUSH1 0x40 SWAP1 KECCAK256 SLOAD AND ISZERO SWAP1 JUMP JUMPDEST PUSH1 0x0 DUP1 JUMPDEST PUSH1 0x0 SLOAD DUP2 LT ISZERO PUSH3 0x25D JUMPI PUSH1 0x0 DUP2 DUP2 SLOAD DUP2 LT PUSH3 0x21F JUMPI PUSH3 0x21F PUSH3 0xAD2 JUMP JUMPDEST PUSH1 0x0 SWAP2 DUP3 MSTORE PUSH1 0x20 SWAP1 SWAP2 KECCAK256 ADD SLOAD PUSH1 0x1 PUSH1 0x1 PUSH1 0xA0 SHL SUB SWAP1 DUP2 AND SWAP1 DUP5 AND SUB PUSH3 0x248 JUMPI POP PUSH1 0x1 SWAP3 SWAP2 POP POP JUMP JUMPDEST DUP1 PUSH3 0x254 DUP2 PUSH3 0xAE8 JUMP JUMPDEST SWAP2 POP POP PUSH3 0x1FE JUMP JUMPDEST POP PUSH1 0x0 SWAP3 SWAP2 POP POP JUMP JUMPDEST PUSH1 0x60 PUSH1 0x0 JUMPDEST PUSH1 0x0 SLOAD DUP2 LT ISZERO PUSH3 0x3A2 JUMPI PUSH1 0x0 DUP1 DUP3 DUP2 SLOAD DUP2 LT PUSH3 0x28D JUMPI PUSH3 0x28D PUSH3 0xAD2 JUMP JUMPDEST PUSH1 0x0 SWAP2 DUP3 MSTORE PUSH1 0x20 DUP3 KECCAK256 ADD SLOAD PUSH1 0x40 DUP1 MLOAD PUSH4 0x70019B35 PUSH1 0xE0 SHL DUP2 MSTORE SWAP1 MLOAD PUSH1 0x1 PUSH1 0x1 PUSH1 0xA0 SHL SUB SWAP1 SWAP3 AND SWAP4 POP PUSH3 0x315 SWAP3 DUP5 SWAP3 PUSH4 0x70019B35 SWAP3 PUSH1 0x4 DUP1 DUP3 ADD SWAP4 SWAP3 SWAP2 DUP3 SWAP1 SUB ADD DUP2 DUP7 GAS STATICCALL ISZERO DUP1 ISZERO PUSH3 0x2E4 JUMPI RETURNDATASIZE PUSH1 0x0 DUP1 RETURNDATACOPY RETURNDATASIZE PUSH1 0x0 REVERT JUMPDEST POP POP POP POP PUSH1 0x40 MLOAD RETURNDATASIZE PUSH1 0x0 DUP3 RETURNDATACOPY PUSH1 0x1F RETURNDATASIZE SWAP1 DUP2 ADD PUSH1 0x1F NOT AND DUP3 ADD PUSH1 0x40 MSTORE PUSH3 0x30E SWAP2 SWAP1 DUP2 ADD SWAP1 PUSH3 0xB10 JUMP JUMPDEST DUP6 PUSH3 0x710 JUMP JUMPDEST ISZERO PUSH3 0x38C JUMPI DUP1 PUSH1 0x1 PUSH1 0x1 PUSH1 0xA0 SHL SUB AND PUSH4 0x47CCED3 PUSH1 0x40 MLOAD DUP2 PUSH4 0xFFFFFFFF AND PUSH1 0xE0 SHL DUP2 MSTORE PUSH1 0x4 ADD PUSH1 0x0 PUSH1 0x40 MLOAD DUP1 DUP4 SUB DUP2 DUP7 GAS STATICCALL ISZERO DUP1 ISZERO PUSH3 0x35A JUMPI RETURNDATASIZE PUSH1 0x0 DUP1 RETURNDATACOPY RETURNDATASIZE PUSH1 0x0 REVERT JUMPDEST POP POP POP POP PUSH1 0x40 MLOAD RETURNDATASIZE PUSH1 0x0 DUP3 RETURNDATACOPY PUSH1 0x1F RETURNDATASIZE SWAP1 DUP2 ADD PUSH1 0x1F NOT AND DUP3 ADD PUSH1 0x40 MSTORE PUSH3 0x384 SWAP2 SWAP1 DUP2 ADD SWAP1 PUSH3 0xB10 JUMP JUMPDEST SWAP5 SWAP4 POP POP POP POP JUMP JUMPDEST POP DUP1 PUSH3 0x399 DUP2 PUSH3 0xAE8 JUMP JUMPDEST SWAP2 POP POP PUSH3 0x26B JUMP JUMPDEST POP PUSH1 0x40 MLOAD PUSH3 0x461BCD PUSH1 0xE5 SHL DUP2 MSTORE PUSH1 0x20 PUSH1 0x4 DUP3 ADD MSTORE PUSH1 0xE PUSH1 0x24 DUP3 ADD MSTORE PUSH14 0x155CD95C881B9BDD08199BDD5B99 PUSH1 0x92 SHL PUSH1 0x44 DUP3 ADD MSTORE PUSH1 0x64 ADD JUMPDEST PUSH1 0x40 MLOAD DUP1 SWAP2 SUB SWAP1 REVERT JUMPDEST CALLER PUSH1 0x0 DUP2 DUP2 MSTORE PUSH1 0x1 PUSH1 0x20 MSTORE PUSH1 0x40 DUP2 KECCAK256 SLOAD SWAP1 SWAP2 SWAP1 PUSH1 0x1 PUSH1 0x1 PUSH1 0xA0 SHL SUB AND PUSH3 0x456 JUMPI PUSH1 0x40 MLOAD PUSH3 0x461BCD PUSH1 0xE5 SHL DUP2 MSTORE PUSH1 0x20 PUSH1 0x4 DUP3 ADD MSTORE PUSH1 0x22 PUSH1 0x24 DUP3 ADD MSTORE PUSH32 0x43616C6C6572206E6F74207265676973746572656420617320636172206F776E PUSH1 0x44 DUP3 ADD MSTORE PUSH2 0x32B9 PUSH1 0xF1 SHL PUSH1 0x64 DUP3 ADD MSTORE PUSH1 0x84 ADD PUSH3 0x3D8 JUMP JUMPDEST PUSH1 0x1 PUSH1 0x1 PUSH1 0xA0 SHL SUB DUP1 DUP3 AND PUSH1 0x0 SWAP1 DUP2 MSTORE PUSH1 0x1 PUSH1 0x20 MSTORE PUSH1 0x40 DUP1 DUP3 KECCAK256 SLOAD DUP2 MLOAD PUSH4 0x70019B35 PUSH1 0xE0 SHL DUP2 MSTORE SWAP2 MLOAD SWAP4 AND SWAP3 DUP4 SWAP3 PUSH3 0x4E5 SWAP3 DUP5 SWAP3 PUSH4 0x70019B35 SWAP3 PUSH1 0x4 DUP1 DUP5 ADD SWAP4 SWAP2 SWAP3 SWAP2 DUP3 SWAP1 SUB ADD DUP2 DUP7 GAS STATICCALL ISZERO DUP1 ISZERO PUSH3 0x4B4 JUMPI RETURNDATASIZE PUSH1 0x0 DUP1 RETURNDATACOPY RETURNDATASIZE PUSH1 0x0 REVERT JUMPDEST POP POP POP POP PUSH1 0x40 MLOAD RETURNDATASIZE PUSH1 0x0 DUP3 RETURNDATACOPY PUSH1 0x1F RETURNDATASIZE SWAP1 DUP2 ADD PUSH1 0x1F NOT AND DUP3 ADD PUSH1 0x40 MSTORE PUSH3 0x4DE SWAP2 SWAP1 DUP2 ADD SWAP1 PUSH3 0xB10 JUMP JUMPDEST DUP8 PUSH3 0x710 JUMP JUMPDEST DUP1 ISZERO PUSH3 0x55F JUMPI POP PUSH1 0x40 MLOAD PUSH4 0xB2F06517 PUSH1 0xE0 SHL DUP2 MSTORE PUSH1 0x1 PUSH1 0x1 PUSH1 0xA0 SHL SUB DUP3 AND SWAP1 PUSH4 0xB2F06517 SWAP1 PUSH3 0x51B SWAP1 DUP9 SWAP1 PUSH1 0x4 ADD PUSH3 0x91B JUMP JUMPDEST PUSH1 0x20 PUSH1 0x40 MLOAD DUP1 DUP4 SUB DUP2 DUP7 GAS STATICCALL ISZERO DUP1 ISZERO PUSH3 0x539 JUMPI RETURNDATASIZE PUSH1 0x0 DUP1 RETURNDATACOPY RETURNDATASIZE PUSH1 0x0 REVERT JUMPDEST POP POP POP POP PUSH1 0x40 MLOAD RETURNDATASIZE PUSH1 0x1F NOT PUSH1 0x1F DUP3 ADD AND DUP3 ADD DUP1 PUSH1 0x40 MSTORE POP DUP2 ADD SWAP1 PUSH3 0x55F SWAP2 SWAP1 PUSH3 0xB90 JUMP JUMPDEST SWAP7 SWAP6 POP POP POP POP POP POP JUMP JUMPDEST PUSH1 0x0 DUP2 DUP2 SLOAD DUP2 LT PUSH3 0x57A JUMPI PUSH1 0x0 DUP1 REVERT JUMPDEST PUSH1 0x0 SWAP2 DUP3 MSTORE PUSH1 0x20 SWAP1 SWAP2 KECCAK256 ADD SLOAD PUSH1 0x1 PUSH1 0x1 PUSH1 0xA0 SHL SUB AND SWAP1 POP DUP2 JUMP JUMPDEST PUSH1 0x60 PUSH1 0x0 DUP1 SLOAD DUP1 PUSH1 0x20 MUL PUSH1 0x20 ADD PUSH1 0x40 MLOAD SWAP1 DUP2 ADD PUSH1 0x40 MSTORE DUP1 SWAP3 SWAP2 SWAP1 DUP2 DUP2 MSTORE PUSH1 0x20 ADD DUP3 DUP1 SLOAD DUP1 ISZERO PUSH3 0x5EE JUMPI PUSH1 0x20 MUL DUP3 ADD SWAP2 SWAP1 PUSH1 0x0 MSTORE PUSH1 0x20 PUSH1 0x0 KECCAK256 SWAP1 JUMPDEST DUP2 SLOAD PUSH1 0x1 PUSH1 0x1 PUSH1 0xA0 SHL SUB AND DUP2 MSTORE PUSH1 0x1 SWAP1 SWAP2 ADD SWAP1 PUSH1 0x20 ADD DUP1 DUP4 GT PUSH3 0x5CF JUMPI JUMPDEST POP POP POP POP POP SWAP1 POP SWAP1 JUMP JUMPDEST CALLER PUSH1 0x0 DUP2 DUP2 MSTORE PUSH1 0x1 PUSH1 0x20 MSTORE PUSH1 0x40 SWAP1 KECCAK256 SLOAD PUSH1 0x1 PUSH1 0x1 PUSH1 0xA0 SHL SUB AND ISZERO PUSH3 0x660 JUMPI PUSH1 0x40 MLOAD PUSH3 0x461BCD PUSH1 0xE5 SHL DUP2 MSTORE PUSH1 0x20 PUSH1 0x4 DUP3 ADD MSTORE PUSH1 0x1A PUSH1 0x24 DUP3 ADD MSTORE PUSH32 0x4163636F756E7420616C72656164792072656769737465726564000000000000 PUSH1 0x44 DUP3 ADD MSTORE PUSH1 0x64 ADD PUSH3 0x3D8 JUMP JUMPDEST PUSH1 0x0 DUP7 DUP3 DUP8 DUP8 DUP8 DUP8 PUSH1 0x40 MLOAD PUSH3 0x676 SWAP1 PUSH3 0x76D JUMP JUMPDEST PUSH3 0x687 SWAP7 SWAP6 SWAP5 SWAP4 SWAP3 SWAP2 SWAP1 PUSH3 0xBB0 JUMP JUMPDEST PUSH1 0x40 MLOAD DUP1 SWAP2 SUB SWAP1 PUSH1 0x0 CREATE DUP1 ISZERO DUP1 ISZERO PUSH3 0x6A4 JUMPI RETURNDATASIZE PUSH1 0x0 DUP1 RETURNDATACOPY RETURNDATASIZE PUSH1 0x0 REVERT JUMPDEST POP PUSH1 0x0 DUP1 SLOAD PUSH1 0x1 DUP2 DUP2 ADD DUP4 SSTORE PUSH32 0x290DECD9548B62A8D60345A988386FC84BA6BC95484008F6362F93160EF3E563 SWAP1 SWAP2 ADD DUP1 SLOAD PUSH1 0x1 PUSH1 0x1 PUSH1 0xA0 SHL SUB SWAP5 DUP6 AND PUSH1 0x1 PUSH1 0x1 PUSH1 0xA0 SHL SUB NOT SWAP2 DUP3 AND DUP2 OR SWAP1 SWAP3 SSTORE SWAP6 SWAP1 SWAP4 AND DUP3 MSTORE PUSH1 0x20 MSTORE PUSH1 0x40 SWAP1 KECCAK256 DUP1 SLOAD SWAP1 SWAP4 AND OR SWAP1 SWAP2 SSTORE POP POP POP POP POP POP JUMP JUMPDEST PUSH1 0x0 DUP2 PUSH1 0x40 MLOAD PUSH1 0x20 ADD PUSH3 0x725 SWAP2 SWAP1 PUSH3 0xC1D JUMP JUMPDEST PUSH1 0x40 MLOAD PUSH1 0x20 DUP2 DUP4 SUB SUB DUP2 MSTORE SWAP1 PUSH1 0x40 MSTORE DUP1 MLOAD SWAP1 PUSH1 0x20 ADD KECCAK256 DUP4 PUSH1 0x40 MLOAD PUSH1 0x20 ADD PUSH3 0x74E SWAP2 SWAP1 PUSH3 0xC1D JUMP JUMPDEST PUSH1 0x40 MLOAD PUSH1 0x20 DUP2 DUP4 SUB SUB DUP2 MSTORE SWAP1 PUSH1 0x40 MSTORE DUP1 MLOAD SWAP1 PUSH1 0x20 ADD KECCAK256 EQ SWAP1 POP SWAP3 SWAP2 POP POP JUMP JUMPDEST PUSH2 0xEF7 DUP1 PUSH3 0xC3C DUP4 CODECOPY ADD SWAP1 JUMP JUMPDEST DUP1 CALLDATALOAD PUSH1 0x1 PUSH1 0x1 PUSH1 0xA0 SHL SUB DUP2 AND DUP2 EQ PUSH3 0x793 JUMPI PUSH1 0x0 DUP1 REVERT JUMPDEST SWAP2 SWAP1 POP JUMP JUMPDEST PUSH1 0x0 PUSH1 0x20 DUP3 DUP5 SUB SLT ISZERO PUSH3 0x7AB JUMPI PUSH1 0x0 DUP1 REVERT JUMPDEST PUSH3 0x7B6 DUP3 PUSH3 0x77B JUMP JUMPDEST SWAP4 SWAP3 POP POP POP JUMP JUMPDEST PUSH4 0x4E487B71 PUSH1 0xE0 SHL PUSH1 0x0 MSTORE PUSH1 0x41 PUSH1 0x4 MSTORE PUSH1 0x24 PUSH1 0x0 REVERT JUMPDEST PUSH1 0x40 MLOAD PUSH1 0x1F DUP3 ADD PUSH1 0x1F NOT AND DUP2 ADD PUSH8 0xFFFFFFFFFFFFFFFF DUP2 GT DUP3 DUP3 LT OR ISZERO PUSH3 0x7FF JUMPI PUSH3 0x7FF PUSH3 0x7BD JUMP JUMPDEST PUSH1 0x40 MSTORE SWAP2 SWAP1 POP JUMP JUMPDEST PUSH1 0x0 PUSH8 0xFFFFFFFFFFFFFFFF DUP3 GT ISZERO PUSH3 0x824 JUMPI PUSH3 0x824 PUSH3 0x7BD JUMP JUMPDEST POP PUSH1 0x1F ADD PUSH1 0x1F NOT AND PUSH1 0x20 ADD SWAP1 JUMP JUMPDEST PUSH1 0x0 DUP3 PUSH1 0x1F DUP4 ADD SLT PUSH3 0x844 JUMPI PUSH1 0x0 DUP1 REVERT JUMPDEST DUP2 CALLDATALOAD PUSH3 0x85B PUSH3 0x855 DUP3 PUSH3 0x807 JUMP JUMPDEST PUSH3 0x7D3 JUMP JUMPDEST DUP2 DUP2 MSTORE DUP5 PUSH1 0x20 DUP4 DUP7 ADD ADD GT ISZERO PUSH3 0x871 JUMPI PUSH1 0x0 DUP1 REVERT JUMPDEST DUP2 PUSH1 0x20 DUP6 ADD PUSH1 0x20 DUP4 ADD CALLDATACOPY PUSH1 0x0 SWAP2 DUP2 ADD PUSH1 0x20 ADD SWAP2 SWAP1 SWAP2 MSTORE SWAP4 SWAP3 POP POP POP JUMP JUMPDEST PUSH1 0x0 PUSH1 0x20 DUP3 DUP5 SUB SLT ISZERO PUSH3 0x8A1 JUMPI PUSH1 0x0 DUP1 REVERT JUMPDEST DUP2 CALLDATALOAD PUSH8 0xFFFFFFFFFFFFFFFF DUP2 GT ISZERO PUSH3 0x8B9 JUMPI PUSH1 0x0 DUP1 REVERT JUMPDEST PUSH3 0x384 DUP5 DUP3 DUP6 ADD PUSH3 0x832 JUMP JUMPDEST PUSH1 0x0 JUMPDEST DUP4 DUP2 LT ISZERO PUSH3 0x8E4 JUMPI DUP2 DUP2 ADD MLOAD DUP4 DUP3 ADD MSTORE PUSH1 0x20 ADD PUSH3 0x8CA JUMP JUMPDEST POP POP PUSH1 0x0 SWAP2 ADD MSTORE JUMP JUMPDEST PUSH1 0x0 DUP2 MLOAD DUP1 DUP5 MSTORE PUSH3 0x907 DUP2 PUSH1 0x20 DUP7 ADD PUSH1 0x20 DUP7 ADD PUSH3 0x8C7 JUMP JUMPDEST PUSH1 0x1F ADD PUSH1 0x1F NOT AND SWAP3 SWAP1 SWAP3 ADD PUSH1 0x20 ADD SWAP3 SWAP2 POP POP JUMP JUMPDEST PUSH1 0x20 DUP2 MSTORE PUSH1 0x0 PUSH3 0x7B6 PUSH1 0x20 DUP4 ADD DUP5 PUSH3 0x8ED JUMP JUMPDEST PUSH1 0x0 DUP1 PUSH1 0x40 DUP4 DUP6 SUB SLT ISZERO PUSH3 0x944 JUMPI PUSH1 0x0 DUP1 REVERT JUMPDEST DUP3 CALLDATALOAD PUSH8 0xFFFFFFFFFFFFFFFF DUP1 DUP3 GT ISZERO PUSH3 0x95D JUMPI PUSH1 0x0 DUP1 REVERT JUMPDEST PUSH3 0x96B DUP7 DUP4 DUP8 ADD PUSH3 0x832 JUMP JUMPDEST SWAP4 POP PUSH1 0x20 DUP6 ADD CALLDATALOAD SWAP2 POP DUP1 DUP3 GT ISZERO PUSH3 0x982 JUMPI PUSH1 0x0 DUP1 REVERT JUMPDEST POP PUSH3 0x991 DUP6 DUP3 DUP7 ADD PUSH3 0x832 JUMP JUMPDEST SWAP2 POP POP SWAP3 POP SWAP3 SWAP1 POP JUMP JUMPDEST PUSH1 0x0 PUSH1 0x20 DUP3 DUP5 SUB SLT ISZERO PUSH3 0x9AE JUMPI PUSH1 0x0 DUP1 REVERT JUMPDEST POP CALLDATALOAD SWAP2 SWAP1 POP JUMP JUMPDEST PUSH1 0x20 DUP1 DUP3 MSTORE DUP3 MLOAD DUP3 DUP3 ADD DUP2 SWAP1 MSTORE PUSH1 0x0 SWAP2 SWAP1 DUP5 DUP3 ADD SWAP1 PUSH1 0x40 DUP6 ADD SWAP1 DUP5 JUMPDEST DUP2 DUP2 LT ISZERO PUSH3 0x9F8 JUMPI DUP4 MLOAD PUSH1 0x1 PUSH1 0x1 PUSH1 0xA0 SHL SUB AND DUP4 MSTORE SWAP3 DUP5 ADD SWAP3 SWAP2 DUP5 ADD SWAP2 PUSH1 0x1 ADD PUSH3 0x9D1 JUMP JUMPDEST POP SWAP1 SWAP7 SWAP6 POP POP POP POP POP POP JUMP JUMPDEST DUP1 ISZERO ISZERO DUP2 EQ PUSH3 0xA13 JUMPI PUSH1 0x0 DUP1 REVERT JUMPDEST POP JUMP JUMPDEST PUSH1 0x0 DUP1 PUSH1 0x0 DUP1 PUSH1 0x0 PUSH1 0xA0 DUP7 DUP9 SUB SLT ISZERO PUSH3 0xA2F JUMPI PUSH1 0x0 DUP1 REVERT JUMPDEST PUSH3 0xA3A DUP7 PUSH3 0x77B JUMP JUMPDEST SWAP5 POP PUSH1 0x20 DUP7 ADD CALLDATALOAD PUSH8 0xFFFFFFFFFFFFFFFF DUP1 DUP3 GT ISZERO PUSH3 0xA58 JUMPI PUSH1 0x0 DUP1 REVERT JUMPDEST PUSH3 0xA66 DUP10 DUP4 DUP11 ADD PUSH3 0x832 JUMP JUMPDEST SWAP6 POP PUSH1 0x40 DUP9 ADD CALLDATALOAD SWAP2 POP DUP1 DUP3 GT ISZERO PUSH3 0xA7D JUMPI PUSH1 0x0 DUP1 REVERT JUMPDEST PUSH3 0xA8B DUP10 DUP4 DUP11 ADD PUSH3 0x832 JUMP JUMPDEST SWAP5 POP PUSH1 0x60 DUP9 ADD CALLDATALOAD SWAP2 POP PUSH3 0xA9F DUP3 PUSH3 0xA04 JUMP JUMPDEST SWAP1 SWAP3 POP PUSH1 0x80 DUP8 ADD CALLDATALOAD SWAP1 DUP1 DUP3 GT ISZERO PUSH3 0xAB6 JUMPI PUSH1 0x0 DUP1 REVERT JUMPDEST POP PUSH3 0xAC5 DUP9 DUP3 DUP10 ADD PUSH3 0x832 JUMP JUMPDEST SWAP2 POP POP SWAP3 SWAP6 POP SWAP3 SWAP6 SWAP1 SWAP4 POP JUMP JUMPDEST PUSH4 0x4E487B71 PUSH1 0xE0 SHL PUSH1 0x0 MSTORE PUSH1 0x32 PUSH1 0x4 MSTORE PUSH1 0x24 PUSH1 0x0 REVERT JUMPDEST PUSH1 0x0 PUSH1 0x1 DUP3 ADD PUSH3 0xB09 JUMPI PUSH4 0x4E487B71 PUSH1 0xE0 SHL PUSH1 0x0 MSTORE PUSH1 0x11 PUSH1 0x4 MSTORE PUSH1 0x24 PUSH1 0x0 REVERT JUMPDEST POP PUSH1 0x1 ADD SWAP1 JUMP JUMPDEST PUSH1 0x0 PUSH1 0x20 DUP3 DUP5 SUB SLT ISZERO PUSH3 0xB23 JUMPI PUSH1 0x0 DUP1 REVERT JUMPDEST DUP2 MLOAD PUSH8 0xFFFFFFFFFFFFFFFF DUP2 GT ISZERO PUSH3 0xB3B JUMPI PUSH1 0x0 DUP1 REVERT JUMPDEST DUP3 ADD PUSH1 0x1F DUP2 ADD DUP5 SGT PUSH3 0xB4D JUMPI PUSH1 0x0 DUP1 REVERT JUMPDEST DUP1 MLOAD PUSH3 0xB5E PUSH3 0x855 DUP3 PUSH3 0x807 JUMP JUMPDEST DUP2 DUP2 MSTORE DUP6 PUSH1 0x20 DUP4 DUP6 ADD ADD GT ISZERO PUSH3 0xB74 JUMPI PUSH1 0x0 DUP1 REVERT JUMPDEST PUSH3 0xB87 DUP3 PUSH1 0x20 DUP4 ADD PUSH1 0x20 DUP7 ADD PUSH3 0x8C7 JUMP JUMPDEST SWAP6 SWAP5 POP POP POP POP POP JUMP JUMPDEST PUSH1 0x0 PUSH1 0x20 DUP3 DUP5 SUB SLT ISZERO PUSH3 0xBA3 JUMPI PUSH1 0x0 DUP1 REVERT JUMPDEST DUP2 MLOAD PUSH3 0x7B6 DUP2 PUSH3 0xA04 JUMP JUMPDEST PUSH1 0x1 PUSH1 0x1 PUSH1 0xA0 SHL SUB DUP8 DUP2 AND DUP3 MSTORE DUP7 AND PUSH1 0x20 DUP3 ADD MSTORE PUSH1 0xC0 PUSH1 0x40 DUP3 ADD DUP2 SWAP1 MSTORE PUSH1 0x0 SWAP1 PUSH3 0xBDE SWAP1 DUP4 ADD DUP8 PUSH3 0x8ED JUMP JUMPDEST DUP3 DUP2 SUB PUSH1 0x60 DUP5 ADD MSTORE PUSH3 0xBF2 DUP2 DUP8 PUSH3 0x8ED JUMP JUMPDEST SWAP1 POP DUP5 ISZERO ISZERO PUSH1 0x80 DUP5 ADD MSTORE DUP3 DUP2 SUB PUSH1 0xA0 DUP5 ADD MSTORE PUSH3 0xC10 DUP2 DUP6 PUSH3 0x8ED JUMP JUMPDEST SWAP10 SWAP9 POP POP POP POP POP POP POP POP POP JUMP JUMPDEST PUSH1 0x0 DUP3 MLOAD PUSH3 0xC31 DUP2 DUP5 PUSH1 0x20 DUP8 ADD PUSH3 0x8C7 JUMP JUMPDEST SWAP2 SWAP1 SWAP2 ADD SWAP3 SWAP2 POP POP JUMP INVALID PUSH1 0x80 PUSH1 0x40 MSTORE CALLVALUE DUP1 ISZERO PUSH3 0x11 JUMPI PUSH1 0x0 DUP1 REVERT JUMPDEST POP PUSH1 0x40 MLOAD PUSH3 0xEF7 CODESIZE SUB DUP1 PUSH3 0xEF7 DUP4 CODECOPY DUP2 ADD PUSH1 0x40 DUP2 SWAP1 MSTORE PUSH3 0x34 SWAP2 PUSH3 0x193 JUMP JUMPDEST PUSH1 0x0 DUP1 SLOAD PUSH1 0x1 PUSH1 0x1 PUSH1 0xA0 SHL SUB DUP1 DUP9 AND PUSH1 0x1 PUSH1 0x1 PUSH1 0xA0 SHL SUB NOT SWAP3 DUP4 AND OR SWAP1 SWAP3 SSTORE PUSH1 0x1 DUP1 SLOAD SWAP3 DUP10 AND SWAP3 SWAP1 SWAP2 AND SWAP2 SWAP1 SWAP2 OR SWAP1 SSTORE PUSH1 0x2 PUSH3 0x72 DUP6 DUP3 PUSH3 0x2F2 JUMP JUMPDEST POP PUSH1 0x3 PUSH3 0x81 DUP5 DUP3 PUSH3 0x2F2 JUMP JUMPDEST POP PUSH2 0x2710 PUSH1 0x4 SSTORE PUSH1 0x5 DUP1 SLOAD PUSH1 0xFF NOT AND DUP4 ISZERO ISZERO OR SWAP1 SSTORE PUSH1 0x6 PUSH3 0xA4 DUP3 DUP3 PUSH3 0x2F2 JUMP JUMPDEST POP POP POP POP POP POP POP PUSH3 0x3BE JUMP JUMPDEST DUP1 MLOAD PUSH1 0x1 PUSH1 0x1 PUSH1 0xA0 SHL SUB DUP2 AND DUP2 EQ PUSH3 0xC9 JUMPI PUSH1 0x0 DUP1 REVERT JUMPDEST SWAP2 SWAP1 POP JUMP JUMPDEST PUSH4 0x4E487B71 PUSH1 0xE0 SHL PUSH1 0x0 MSTORE PUSH1 0x41 PUSH1 0x4 MSTORE PUSH1 0x24 PUSH1 0x0 REVERT JUMPDEST PUSH1 0x0 DUP3 PUSH1 0x1F DUP4 ADD SLT PUSH3 0xF6 JUMPI PUSH1 0x0 DUP1 REVERT JUMPDEST DUP2 MLOAD PUSH1 0x1 PUSH1 0x1 PUSH1 0x40 SHL SUB DUP1 DUP3 GT ISZERO PUSH3 0x113 JUMPI PUSH3 0x113 PUSH3 0xCE JUMP JUMPDEST PUSH1 0x40 MLOAD PUSH1 0x1F DUP4 ADD PUSH1 0x1F NOT SWAP1 DUP2 AND PUSH1 0x3F ADD AND DUP2 ADD SWAP1 DUP3 DUP3 GT DUP2 DUP4 LT OR ISZERO PUSH3 0x13E JUMPI PUSH3 0x13E PUSH3 0xCE JUMP JUMPDEST DUP2 PUSH1 0x40 MSTORE DUP4 DUP2 MSTORE PUSH1 0x20 SWAP3 POP DUP7 DUP4 DUP6 DUP9 ADD ADD GT ISZERO PUSH3 0x15B JUMPI PUSH1 0x0 DUP1 REVERT JUMPDEST PUSH1 0x0 SWAP2 POP JUMPDEST DUP4 DUP3 LT ISZERO PUSH3 0x17F JUMPI DUP6 DUP3 ADD DUP4 ADD MLOAD DUP2 DUP4 ADD DUP5 ADD MSTORE SWAP1 DUP3 ADD SWAP1 PUSH3 0x160 JUMP JUMPDEST PUSH1 0x0 SWAP4 DUP2 ADD SWAP1 SWAP3 ADD SWAP3 SWAP1 SWAP3 MSTORE SWAP5 SWAP4 POP POP POP POP JUMP JUMPDEST PUSH1 0x0 DUP1 PUSH1 0x0 DUP1 PUSH1 0x0 DUP1 PUSH1 0xC0 DUP8 DUP10 SUB SLT ISZERO PUSH3 0x1AD JUMPI PUSH1 0x0 DUP1 REVERT JUMPDEST PUSH3 0x1B8 DUP8 PUSH3 0xB1 JUMP JUMPDEST SWAP6 POP PUSH3 0x1C8 PUSH1 0x20 DUP9 ADD PUSH3 0xB1 JUMP JUMPDEST PUSH1 0x40 DUP9 ADD MLOAD SWAP1 SWAP6 POP PUSH1 0x1 PUSH1 0x1 PUSH1 0x40 SHL SUB DUP1 DUP3 GT ISZERO PUSH3 0x1E6 JUMPI PUSH1 0x0 DUP1 REVERT JUMPDEST PUSH3 0x1F4 DUP11 DUP4 DUP12 ADD PUSH3 0xE4 JUMP JUMPDEST SWAP6 POP PUSH1 0x60 DUP10 ADD MLOAD SWAP2 POP DUP1 DUP3 GT ISZERO PUSH3 0x20B JUMPI PUSH1 0x0 DUP1 REVERT JUMPDEST PUSH3 0x219 DUP11 DUP4 DUP12 ADD PUSH3 0xE4 JUMP JUMPDEST SWAP5 POP PUSH1 0x80 DUP10 ADD MLOAD SWAP2 POP DUP2 ISZERO ISZERO DUP3 EQ PUSH3 0x231 JUMPI PUSH1 0x0 DUP1 REVERT JUMPDEST PUSH1 0xA0 DUP10 ADD MLOAD SWAP2 SWAP4 POP DUP1 DUP3 GT ISZERO PUSH3 0x247 JUMPI PUSH1 0x0 DUP1 REVERT JUMPDEST POP PUSH3 0x256 DUP10 DUP3 DUP11 ADD PUSH3 0xE4 JUMP JUMPDEST SWAP2 POP POP SWAP3 SWAP6 POP SWAP3 SWAP6 POP SWAP3 SWAP6 JUMP JUMPDEST PUSH1 0x1 DUP2 DUP2 SHR SWAP1 DUP3 AND DUP1 PUSH3 0x278 JUMPI PUSH1 0x7F DUP3 AND SWAP2 POP JUMPDEST PUSH1 0x20 DUP3 LT DUP2 SUB PUSH3 0x299 JUMPI PUSH4 0x4E487B71 PUSH1 0xE0 SHL PUSH1 0x0 MSTORE PUSH1 0x22 PUSH1 0x4 MSTORE PUSH1 0x24 PUSH1 0x0 REVERT JUMPDEST POP SWAP2 SWAP1 POP JUMP JUMPDEST PUSH1 0x1F DUP3 GT ISZERO PUSH3 0x2ED JUMPI PUSH1 0x0 DUP2 DUP2 MSTORE PUSH1 0x20 DUP2 KECCAK256 PUSH1 0x1F DUP6 ADD PUSH1 0x5 SHR DUP2 ADD PUSH1 0x20 DUP7 LT ISZERO PUSH3 0x2C8 JUMPI POP DUP1 JUMPDEST PUSH1 0x1F DUP6 ADD PUSH1 0x5 SHR DUP3 ADD SWAP2 POP JUMPDEST DUP2 DUP2 LT ISZERO PUSH3 0x2E9 JUMPI DUP3 DUP2 SSTORE PUSH1 0x1 ADD PUSH3 0x2D4 JUMP JUMPDEST POP POP POP JUMPDEST POP POP POP JUMP JUMPDEST DUP2 MLOAD PUSH1 0x1 PUSH1 0x1 PUSH1 0x40 SHL SUB DUP2 GT ISZERO PUSH3 0x30E JUMPI PUSH3 0x30E PUSH3 0xCE JUMP JUMPDEST PUSH3 0x326 DUP2 PUSH3 0x31F DUP5 SLOAD PUSH3 0x263 JUMP JUMPDEST DUP5 PUSH3 0x29F JUMP JUMPDEST PUSH1 0x20 DUP1 PUSH1 0x1F DUP4 GT PUSH1 0x1 DUP2 EQ PUSH3 0x35E JUMPI PUSH1 0x0 DUP5 ISZERO PUSH3 0x345 JUMPI POP DUP6 DUP4 ADD MLOAD JUMPDEST PUSH1 0x0 NOT PUSH1 0x3 DUP7 SWAP1 SHL SHR NOT AND PUSH1 0x1 DUP6 SWAP1 SHL OR DUP6 SSTORE PUSH3 0x2E9 JUMP JUMPDEST PUSH1 0x0 DUP6 DUP2 MSTORE PUSH1 0x20 DUP2 KECCAK256 PUSH1 0x1F NOT DUP7 AND SWAP2 JUMPDEST DUP3 DUP2 LT ISZERO PUSH3 0x38F JUMPI DUP9 DUP7 ADD MLOAD DUP3 SSTORE SWAP5 DUP5 ADD SWAP5 PUSH1 0x1 SWAP1 SWAP2 ADD SWAP1 DUP5 ADD PUSH3 0x36E JUMP JUMPDEST POP DUP6 DUP3 LT ISZERO PUSH3 0x3AE JUMPI DUP8 DUP6 ADD MLOAD PUSH1 0x0 NOT PUSH1 0x3 DUP9 SWAP1 SHL PUSH1 0xF8 AND SHR NOT AND DUP2 SSTORE JUMPDEST POP POP POP POP POP PUSH1 0x1 SWAP1 DUP2 SHL ADD SWAP1 SSTORE POP JUMP JUMPDEST PUSH2 0xB29 DUP1 PUSH3 0x3CE PUSH1 0x0 CODECOPY PUSH1 0x0 RETURN INVALID PUSH1 0x80 PUSH1 0x40 MSTORE CALLVALUE DUP1 ISZERO PUSH2 0x10 JUMPI PUSH1 0x0 DUP1 REVERT JUMPDEST POP PUSH1 0x4 CALLDATASIZE LT PUSH2 0xCF JUMPI PUSH1 0x0 CALLDATALOAD PUSH1 0xE0 SHR DUP1 PUSH4 0x79CAAD86 GT PUSH2 0x8C JUMPI DUP1 PUSH4 0x9284F497 GT PUSH2 0x66 JUMPI DUP1 PUSH4 0x9284F497 EQ PUSH2 0x1A4 JUMPI DUP1 PUSH4 0xB2F06517 EQ PUSH2 0x1AC JUMPI DUP1 PUSH4 0xB30D7C99 EQ PUSH2 0x1BF JUMPI DUP1 PUSH4 0xFACF8323 EQ PUSH2 0x1D2 JUMPI PUSH1 0x0 DUP1 REVERT JUMPDEST DUP1 PUSH4 0x79CAAD86 EQ PUSH2 0x163 JUMPI DUP1 PUSH4 0x893D20E8 EQ PUSH2 0x180 JUMPI DUP1 PUSH4 0x8DA5CB5B EQ PUSH2 0x191 JUMPI PUSH1 0x0 DUP1 REVERT JUMPDEST DUP1 PUSH4 0x47CCED3 EQ PUSH2 0xD4 JUMPI DUP1 PUSH4 0xF5FB3D4 EQ PUSH2 0xF2 JUMPI DUP1 PUSH4 0x12065FE0 EQ PUSH2 0x11D JUMPI DUP1 PUSH4 0x171B0188 EQ PUSH2 0x133 JUMPI DUP1 PUSH4 0x4AFB08A6 EQ PUSH2 0x148 JUMPI DUP1 PUSH4 0x70019B35 EQ PUSH2 0x15B JUMPI JUMPDEST PUSH1 0x0 DUP1 REVERT JUMPDEST PUSH2 0xDC PUSH2 0x1E9 JUMP JUMPDEST PUSH1 0x40 MLOAD PUSH2 0xE9 SWAP2 SWAP1 PUSH2 0x685 JUMP JUMPDEST PUSH1 0x40 MLOAD DUP1 SWAP2 SUB SWAP1 RETURN JUMPDEST PUSH1 0x1 SLOAD PUSH2 0x105 SWAP1 PUSH1 0x1 PUSH1 0x1 PUSH1 0xA0 SHL SUB AND DUP2 JUMP JUMPDEST PUSH1 0x40 MLOAD PUSH1 0x1 PUSH1 0x1 PUSH1 0xA0 SHL SUB SWAP1 SWAP2 AND DUP2 MSTORE PUSH1 0x20 ADD PUSH2 0xE9 JUMP JUMPDEST PUSH2 0x125 PUSH2 0x27B JUMP JUMPDEST PUSH1 0x40 MLOAD SWAP1 DUP2 MSTORE PUSH1 0x20 ADD PUSH2 0xE9 JUMP JUMPDEST PUSH2 0x146 PUSH2 0x141 CALLDATASIZE PUSH1 0x4 PUSH2 0x69F JUMP JUMPDEST PUSH2 0x2CB JUMP JUMPDEST STOP JUMPDEST PUSH2 0x146 PUSH2 0x156 CALLDATASIZE PUSH1 0x4 PUSH2 0x75B JUMP JUMPDEST PUSH2 0x373 JUMP JUMPDEST PUSH2 0xDC PUSH2 0x3AD JUMP JUMPDEST PUSH1 0x5 SLOAD PUSH2 0x170 SWAP1 PUSH1 0xFF AND DUP2 JUMP JUMPDEST PUSH1 0x40 MLOAD SWAP1 ISZERO ISZERO DUP2 MSTORE PUSH1 0x20 ADD PUSH2 0xE9 JUMP JUMPDEST PUSH1 0x0 SLOAD PUSH1 0x1 PUSH1 0x1 PUSH1 0xA0 SHL SUB AND PUSH2 0x105 JUMP JUMPDEST PUSH1 0x0 SLOAD PUSH2 0x105 SWAP1 PUSH1 0x1 PUSH1 0x1 PUSH1 0xA0 SHL SUB AND DUP2 JUMP JUMPDEST PUSH2 0xDC PUSH2 0x43B JUMP JUMPDEST PUSH2 0x170 PUSH2 0x1BA CALLDATASIZE PUSH1 0x4 PUSH2 0x75B JUMP JUMPDEST PUSH2 0x448 JUMP JUMPDEST PUSH2 0x146 PUSH2 0x1CD CALLDATASIZE PUSH1 0x4 PUSH2 0x798 JUMP JUMPDEST PUSH2 0x4A1 JUMP JUMPDEST PUSH2 0x1DA PUSH2 0x4F8 JUMP JUMPDEST PUSH1 0x40 MLOAD PUSH2 0xE9 SWAP4 SWAP3 SWAP2 SWAP1 PUSH2 0x815 JUMP JUMPDEST PUSH1 0x60 PUSH1 0x3 DUP1 SLOAD PUSH2 0x1F8 SWAP1 PUSH2 0x84C JUMP JUMPDEST DUP1 PUSH1 0x1F ADD PUSH1 0x20 DUP1 SWAP2 DIV MUL PUSH1 0x20 ADD PUSH1 0x40 MLOAD SWAP1 DUP2 ADD PUSH1 0x40 MSTORE DUP1 SWAP3 SWAP2 SWAP1 DUP2 DUP2 MSTORE PUSH1 0x20 ADD DUP3 DUP1 SLOAD PUSH2 0x224 SWAP1 PUSH2 0x84C JUMP JUMPDEST DUP1 ISZERO PUSH2 0x271 JUMPI DUP1 PUSH1 0x1F LT PUSH2 0x246 JUMPI PUSH2 0x100 DUP1 DUP4 SLOAD DIV MUL DUP4 MSTORE SWAP2 PUSH1 0x20 ADD SWAP2 PUSH2 0x271 JUMP JUMPDEST DUP3 ADD SWAP2 SWAP1 PUSH1 0x0 MSTORE PUSH1 0x20 PUSH1 0x0 KECCAK256 SWAP1 JUMPDEST DUP2 SLOAD DUP2 MSTORE SWAP1 PUSH1 0x1 ADD SWAP1 PUSH1 0x20 ADD DUP1 DUP4 GT PUSH2 0x254 JUMPI DUP3 SWAP1 SUB PUSH1 0x1F AND DUP3 ADD SWAP2 JUMPDEST POP POP POP POP POP SWAP1 POP SWAP1 JUMP JUMPDEST PUSH1 0x0 DUP1 SLOAD PUSH1 0x1 PUSH1 0x1 PUSH1 0xA0 SHL SUB AND CALLER EQ DUP1 PUSH2 0x29F JUMPI POP PUSH1 0x1 SLOAD PUSH1 0x1 PUSH1 0x1 PUSH1 0xA0 SHL SUB AND CALLER EQ JUMPDEST PUSH2 0x2C4 JUMPI PUSH1 0x40 MLOAD PUSH3 0x461BCD PUSH1 0xE5 SHL DUP2 MSTORE PUSH1 0x4 ADD PUSH2 0x2BB SWAP1 PUSH2 0x886 JUMP JUMPDEST PUSH1 0x40 MLOAD DUP1 SWAP2 SUB SWAP1 REVERT JUMPDEST POP PUSH1 0x4 SLOAD SWAP1 JUMP JUMPDEST PUSH1 0x0 SLOAD PUSH1 0x1 PUSH1 0x1 PUSH1 0xA0 SHL SUB AND CALLER EQ DUP1 PUSH2 0x2EE JUMPI POP PUSH1 0x1 SLOAD PUSH1 0x1 PUSH1 0x1 PUSH1 0xA0 SHL SUB AND CALLER EQ JUMPDEST PUSH2 0x30A JUMPI PUSH1 0x40 MLOAD PUSH3 0x461BCD PUSH1 0xE5 SHL DUP2 MSTORE PUSH1 0x4 ADD PUSH2 0x2BB SWAP1 PUSH2 0x886 JUMP JUMPDEST PUSH1 0x0 DUP2 PUSH1 0x4 SLOAD PUSH2 0x31A SWAP2 SWAP1 PUSH2 0x8DB JUMP JUMPDEST SLT ISZERO PUSH2 0x35F JUMPI PUSH1 0x40 MLOAD PUSH3 0x461BCD PUSH1 0xE5 SHL DUP2 MSTORE PUSH1 0x20 PUSH1 0x4 DUP3 ADD MSTORE PUSH1 0x14 PUSH1 0x24 DUP3 ADD MSTORE PUSH20 0x496E73756666696369656E742062616C616E6365 PUSH1 0x60 SHL PUSH1 0x44 DUP3 ADD MSTORE PUSH1 0x64 ADD PUSH2 0x2BB JUMP JUMPDEST DUP1 PUSH1 0x4 SLOAD PUSH2 0x36D SWAP2 SWAP1 PUSH2 0x8DB JUMP JUMPDEST PUSH1 0x4 SSTORE POP JUMP JUMPDEST PUSH1 0x0 SLOAD PUSH1 0x1 PUSH1 0x1 PUSH1 0xA0 SHL SUB AND CALLER EQ PUSH2 0x39D JUMPI PUSH1 0x40 MLOAD PUSH3 0x461BCD PUSH1 0xE5 SHL DUP2 MSTORE PUSH1 0x4 ADD PUSH2 0x2BB SWAP1 PUSH2 0x911 JUMP JUMPDEST PUSH1 0x3 PUSH2 0x3A9 DUP3 DUP3 PUSH2 0x9A1 JUMP JUMPDEST POP POP JUMP JUMPDEST PUSH1 0x2 DUP1 SLOAD PUSH2 0x3BA SWAP1 PUSH2 0x84C JUMP JUMPDEST DUP1 PUSH1 0x1F ADD PUSH1 0x20 DUP1 SWAP2 DIV MUL PUSH1 0x20 ADD PUSH1 0x40 MLOAD SWAP1 DUP2 ADD PUSH1 0x40 MSTORE DUP1 SWAP3 SWAP2 SWAP1 DUP2 DUP2 MSTORE PUSH1 0x20 ADD DUP3 DUP1 SLOAD PUSH2 0x3E6 SWAP1 PUSH2 0x84C JUMP JUMPDEST DUP1 ISZERO PUSH2 0x433 JUMPI DUP1 PUSH1 0x1F LT PUSH2 0x408 JUMPI PUSH2 0x100 DUP1 DUP4 SLOAD DIV MUL DUP4 MSTORE SWAP2 PUSH1 0x20 ADD SWAP2 PUSH2 0x433 JUMP JUMPDEST DUP3 ADD SWAP2 SWAP1 PUSH1 0x0 MSTORE PUSH1 0x20 PUSH1 0x0 KECCAK256 SWAP1 JUMPDEST DUP2 SLOAD DUP2 MSTORE SWAP1 PUSH1 0x1 ADD SWAP1 PUSH1 0x20 ADD DUP1 DUP4 GT PUSH2 0x416 JUMPI DUP3 SWAP1 SUB PUSH1 0x1F AND DUP3 ADD SWAP2 JUMPDEST POP POP POP POP POP DUP2 JUMP JUMPDEST PUSH1 0x6 DUP1 SLOAD PUSH2 0x3BA SWAP1 PUSH2 0x84C JUMP JUMPDEST PUSH1 0x0 PUSH1 0x3 PUSH1 0x40 MLOAD PUSH1 0x20 ADD PUSH2 0x45C SWAP2 SWAP1 PUSH2 0xA61 JUMP JUMPDEST PUSH1 0x40 MLOAD PUSH1 0x20 DUP2 DUP4 SUB SUB DUP2 MSTORE SWAP1 PUSH1 0x40 MSTORE DUP1 MLOAD SWAP1 PUSH1 0x20 ADD KECCAK256 DUP3 PUSH1 0x40 MLOAD PUSH1 0x20 ADD PUSH2 0x483 SWAP2 SWAP1 PUSH2 0xAD7 JUMP JUMPDEST PUSH1 0x40 MLOAD PUSH1 0x20 DUP2 DUP4 SUB SUB DUP2 MSTORE SWAP1 PUSH1 0x40 MSTORE DUP1 MLOAD SWAP1 PUSH1 0x20 ADD KECCAK256 EQ SWAP1 POP SWAP2 SWAP1 POP JUMP JUMPDEST PUSH1 0x0 SLOAD PUSH1 0x1 PUSH1 0x1 PUSH1 0xA0 SHL SUB AND CALLER EQ PUSH2 0x4CB JUMPI PUSH1 0x40 MLOAD PUSH3 0x461BCD PUSH1 0xE5 SHL DUP2 MSTORE PUSH1 0x4 ADD PUSH2 0x2BB SWAP1 PUSH2 0x911 JUMP JUMPDEST PUSH1 0x2 PUSH2 0x4D7 DUP5 DUP3 PUSH2 0x9A1 JUMP JUMPDEST POP PUSH1 0x5 DUP1 SLOAD PUSH1 0xFF NOT AND DUP4 ISZERO ISZERO OR SWAP1 SSTORE PUSH1 0x6 PUSH2 0x4F2 DUP3 DUP3 PUSH2 0x9A1 JUMP JUMPDEST POP POP POP POP JUMP JUMPDEST PUSH1 0x60 PUSH1 0x0 PUSH1 0x60 PUSH1 0x2 PUSH1 0x5 PUSH1 0x0 SWAP1 SLOAD SWAP1 PUSH2 0x100 EXP SWAP1 DIV PUSH1 0xFF AND PUSH1 0x6 DUP3 DUP1 SLOAD PUSH2 0x51E SWAP1 PUSH2 0x84C JUMP JUMPDEST DUP1 PUSH1 0x1F ADD PUSH1 0x20 DUP1 SWAP2 DIV MUL PUSH1 0x20 ADD PUSH1 0x40 MLOAD SWAP1 DUP2 ADD PUSH1 0x40 MSTORE DUP1 SWAP3 SWAP2 SWAP1 DUP2 DUP2 MSTORE PUSH1 0x20 ADD DUP3 DUP1 SLOAD PUSH2 0x54A SWAP1 PUSH2 0x84C JUMP JUMPDEST DUP1 ISZERO PUSH2 0x597 JUMPI DUP1 PUSH1 0x1F LT PUSH2 0x56C JUMPI PUSH2 0x100 DUP1 DUP4 SLOAD DIV MUL DUP4 MSTORE SWAP2 PUSH1 0x20 ADD SWAP2 PUSH2 0x597 JUMP JUMPDEST DUP3 ADD SWAP2 SWAP1 PUSH1 0x0 MSTORE PUSH1 0x20 PUSH1 0x0 KECCAK256 SWAP1 JUMPDEST DUP2 SLOAD DUP2 MSTORE SWAP1 PUSH1 0x1 ADD SWAP1 PUSH1 0x20 ADD DUP1 DUP4 GT PUSH2 0x57A JUMPI DUP3 SWAP1 SUB PUSH1 0x1F AND DUP3 ADD SWAP2 JUMPDEST POP POP POP POP POP SWAP3 POP DUP1 DUP1 SLOAD PUSH2 0x5AA SWAP1 PUSH2 0x84C JUMP JUMPDEST DUP1 PUSH1 0x1F ADD PUSH1 0x20 DUP1 SWAP2 DIV MUL PUSH1 0x20 ADD PUSH1 0x40 MLOAD SWAP1 DUP2 ADD PUSH1 0x40 MSTORE DUP1 SWAP3 SWAP2 SWAP1 DUP2 DUP2 MSTORE PUSH1 0x20 ADD DUP3 DUP1 SLOAD PUSH2 0x5D6 SWAP1 PUSH2 0x84C JUMP JUMPDEST DUP1 ISZERO PUSH2 0x623 JUMPI DUP1 PUSH1 0x1F LT PUSH2 0x5F8 JUMPI PUSH2 0x100 DUP1 DUP4 SLOAD DIV MUL DUP4 MSTORE SWAP2 PUSH1 0x20 ADD SWAP2 PUSH2 0x623 JUMP JUMPDEST DUP3 ADD SWAP2 SWAP1 PUSH1 0x0 MSTORE PUSH1 0x20 PUSH1 0x0 KECCAK256 SWAP1 JUMPDEST DUP2 SLOAD DUP2 MSTORE SWAP1 PUSH1 0x1 ADD SWAP1 PUSH1 0x20 ADD DUP1 DUP4 GT PUSH2 0x606 JUMPI DUP3 SWAP1 SUB PUSH1 0x1F AND DUP3 ADD SWAP2 JUMPDEST POP POP POP POP POP SWAP1 POP SWAP3 POP SWAP3 POP SWAP3 POP SWAP1 SWAP2 SWAP3 JUMP JUMPDEST PUSH1 0x0 JUMPDEST DUP4 DUP2 LT ISZERO PUSH2 0x650 JUMPI DUP2 DUP2 ADD MLOAD DUP4 DUP3 ADD MSTORE PUSH1 0x20 ADD PUSH2 0x638 JUMP JUMPDEST POP POP PUSH1 0x0 SWAP2 ADD MSTORE JUMP JUMPDEST PUSH1 0x0 DUP2 MLOAD DUP1 DUP5 MSTORE PUSH2 0x671 DUP2 PUSH1 0x20 DUP7 ADD PUSH1 0x20 DUP7 ADD PUSH2 0x635 JUMP JUMPDEST PUSH1 0x1F ADD PUSH1 0x1F NOT AND SWAP3 SWAP1 SWAP3 ADD PUSH1 0x20 ADD SWAP3 SWAP2 POP POP JUMP JUMPDEST PUSH1 0x20 DUP2 MSTORE PUSH1 0x0 PUSH2 0x698 PUSH1 0x20 DUP4 ADD DUP5 PUSH2 0x659 JUMP JUMPDEST SWAP4 SWAP3 POP POP POP JUMP JUMPDEST PUSH1 0x0 PUSH1 0x20 DUP3 DUP5 SUB SLT ISZERO PUSH2 0x6B1 JUMPI PUSH1 0x0 DUP1 REVERT JUMPDEST POP CALLDATALOAD SWAP2 SWAP1 POP JUMP JUMPDEST PUSH4 0x4E487B71 PUSH1 0xE0 SHL PUSH1 0x0 MSTORE PUSH1 0x41 PUSH1 0x4 MSTORE PUSH1 0x24 PUSH1 0x0 REVERT JUMPDEST PUSH1 0x0 DUP3 PUSH1 0x1F DUP4 ADD SLT PUSH2 0x6DF JUMPI PUSH1 0x0 DUP1 REVERT JUMPDEST DUP2 CALLDATALOAD PUSH8 0xFFFFFFFFFFFFFFFF DUP1 DUP3 GT ISZERO PUSH2 0x6FA JUMPI PUSH2 0x6FA PUSH2 0x6B8 JUMP JUMPDEST PUSH1 0x40 MLOAD PUSH1 0x1F DUP4 ADD PUSH1 0x1F NOT SWAP1 DUP2 AND PUSH1 0x3F ADD AND DUP2 ADD SWAP1 DUP3 DUP3 GT DUP2 DUP4 LT OR ISZERO PUSH2 0x722 JUMPI PUSH2 0x722 PUSH2 0x6B8 JUMP JUMPDEST DUP2 PUSH1 0x40 MSTORE DUP4 DUP2 MSTORE DUP7 PUSH1 0x20 DUP6 DUP9 ADD ADD GT ISZERO PUSH2 0x73B JUMPI PUSH1 0x0 DUP1 REVERT JUMPDEST DUP4 PUSH1 0x20 DUP8 ADD PUSH1 0x20 DUP4 ADD CALLDATACOPY PUSH1 0x0 PUSH1 0x20 DUP6 DUP4 ADD ADD MSTORE DUP1 SWAP5 POP POP POP POP POP SWAP3 SWAP2 POP POP JUMP JUMPDEST PUSH1 0x0 PUSH1 0x20 DUP3 DUP5 SUB SLT ISZERO PUSH2 0x76D JUMPI PUSH1 0x0 DUP1 REVERT JUMPDEST DUP2 CALLDATALOAD PUSH8 0xFFFFFFFFFFFFFFFF DUP2 GT ISZERO PUSH2 0x784 JUMPI PUSH1 0x0 DUP1 REVERT JUMPDEST PUSH2 0x790 DUP5 DUP3 DUP6 ADD PUSH2 0x6CE JUMP JUMPDEST SWAP5 SWAP4 POP POP POP POP JUMP JUMPDEST PUSH1 0x0 DUP1 PUSH1 0x0 PUSH1 0x60 DUP5 DUP7 SUB SLT ISZERO PUSH2 0x7AD JUMPI PUSH1 0x0 DUP1 REVERT JUMPDEST DUP4 CALLDATALOAD PUSH8 0xFFFFFFFFFFFFFFFF DUP1 DUP3 GT ISZERO PUSH2 0x7C5 JUMPI PUSH1 0x0 DUP1 REVERT JUMPDEST PUSH2 0x7D1 DUP8 DUP4 DUP9 ADD PUSH2 0x6CE JUMP JUMPDEST SWAP5 POP PUSH1 0x20 DUP7 ADD CALLDATALOAD SWAP2 POP DUP2 ISZERO ISZERO DUP3 EQ PUSH2 0x7E8 JUMPI PUSH1 0x0 DUP1 REVERT JUMPDEST SWAP1 SWAP3 POP PUSH1 0x40 DUP6 ADD CALLDATALOAD SWAP1 DUP1 DUP3 GT ISZERO PUSH2 0x7FE JUMPI PUSH1 0x0 DUP1 REVERT JUMPDEST POP PUSH2 0x80B DUP7 DUP3 DUP8 ADD PUSH2 0x6CE JUMP JUMPDEST SWAP2 POP POP SWAP3 POP SWAP3 POP SWAP3 JUMP JUMPDEST PUSH1 0x60 DUP2 MSTORE PUSH1 0x0 PUSH2 0x828 PUSH1 0x60 DUP4 ADD DUP7 PUSH2 0x659 JUMP JUMPDEST DUP5 ISZERO ISZERO PUSH1 0x20 DUP5 ADD MSTORE DUP3 DUP2 SUB PUSH1 0x40 DUP5 ADD MSTORE PUSH2 0x842 DUP2 DUP6 PUSH2 0x659 JUMP JUMPDEST SWAP7 SWAP6 POP POP POP POP POP POP JUMP JUMPDEST PUSH1 0x1 DUP2 DUP2 SHR SWAP1 DUP3 AND DUP1 PUSH2 0x860 JUMPI PUSH1 0x7F DUP3 AND SWAP2 POP JUMPDEST PUSH1 0x20 DUP3 LT DUP2 SUB PUSH2 0x880 JUMPI PUSH4 0x4E487B71 PUSH1 0xE0 SHL PUSH1 0x0 MSTORE PUSH1 0x22 PUSH1 0x4 MSTORE PUSH1 0x24 PUSH1 0x0 REVERT JUMPDEST POP SWAP2 SWAP1 POP JUMP JUMPDEST PUSH1 0x20 DUP1 DUP3 MSTORE PUSH1 0x35 SWAP1 DUP3 ADD MSTORE PUSH32 0x4F6E6C79206F776E6572206F722073797374656D20636F6E7472616374732063 PUSH1 0x40 DUP3 ADD MSTORE PUSH21 0x30B71031B0B636103A3434B990333AB731BA34B7B7 PUSH1 0x59 SHL PUSH1 0x60 DUP3 ADD MSTORE PUSH1 0x80 ADD SWAP1 JUMP JUMPDEST DUP1 DUP3 ADD DUP3 DUP2 SLT PUSH1 0x0 DUP4 SLT DUP1 ISZERO DUP3 AND DUP3 ISZERO DUP3 AND OR ISZERO PUSH2 0x909 JUMPI PUSH4 0x4E487B71 PUSH1 0xE0 SHL PUSH1 0x0 MSTORE PUSH1 0x11 PUSH1 0x4 MSTORE PUSH1 0x24 PUSH1 0x0 REVERT JUMPDEST POP POP SWAP3 SWAP2 POP POP JUMP JUMPDEST PUSH1 0x20 DUP1 DUP3 MSTORE PUSH1 0x21 SWAP1 DUP3 ADD MSTORE PUSH32 0x4F6E6C79206F776E65722063616E2063616C6C20746869732066756E6374696F PUSH1 0x40 DUP3 ADD MSTORE PUSH1 0x37 PUSH1 0xF9 SHL PUSH1 0x60 DUP3 ADD MSTORE PUSH1 0x80 ADD SWAP1 JUMP JUMPDEST PUSH1 0x1F DUP3 GT ISZERO PUSH2 0x99C JUMPI PUSH1 0x0 DUP2 DUP2 MSTORE PUSH1 0x20 DUP2 KECCAK256 PUSH1 0x1F DUP6 ADD PUSH1 0x5 SHR DUP2 ADD PUSH1 0x20 DUP7 LT ISZERO PUSH2 0x979 JUMPI POP DUP1 JUMPDEST PUSH1 0x1F DUP6 ADD PUSH1 0x5 SHR DUP3 ADD SWAP2 POP JUMPDEST DUP2 DUP2 LT ISZERO PUSH2 0x998 JUMPI DUP3 DUP2 SSTORE PUSH1 0x1 ADD PUSH2 0x985 JUMP JUMPDEST POP POP POP JUMPDEST POP POP POP JUMP JUMPDEST DUP2 MLOAD PUSH8 0xFFFFFFFFFFFFFFFF DUP2 GT ISZERO PUSH2 0x9BB JUMPI PUSH2 0x9BB PUSH2 0x6B8 JUMP JUMPDEST PUSH2 0x9CF DUP2 PUSH2 0x9C9 DUP5 SLOAD PUSH2 0x84C JUMP JUMPDEST DUP5 PUSH2 0x952 JUMP JUMPDEST PUSH1 0x20 DUP1 PUSH1 0x1F DUP4 GT PUSH1 0x1 DUP2 EQ PUSH2 0xA04 JUMPI PUSH1 0x0 DUP5 ISZERO PUSH2 0x9EC JUMPI POP DUP6 DUP4 ADD MLOAD JUMPDEST PUSH1 0x0 NOT PUSH1 0x3 DUP7 SWAP1 SHL SHR NOT AND PUSH1 0x1 DUP6 SWAP1 SHL OR DUP6 SSTORE PUSH2 0x998 JUMP JUMPDEST PUSH1 0x0 DUP6 DUP2 MSTORE PUSH1 0x20 DUP2 KECCAK256 PUSH1 0x1F NOT DUP7 AND SWAP2 JUMPDEST DUP3 DUP2 LT ISZERO PUSH2 0xA33 JUMPI DUP9 DUP7 ADD MLOAD DUP3 SSTORE SWAP5 DUP5 ADD SWAP5 PUSH1 0x1 SWAP1 SWAP2 ADD SWAP1 DUP5 ADD PUSH2 0xA14 JUMP JUMPDEST POP DUP6 DUP3 LT ISZERO PUSH2 0xA51 JUMPI DUP8 DUP6 ADD MLOAD PUSH1 0x0 NOT PUSH1 0x3 DUP9 SWAP1 SHL PUSH1 0xF8 AND SHR NOT AND DUP2 SSTORE JUMPDEST POP POP POP POP POP PUSH1 0x1 SWAP1 DUP2 SHL ADD SWAP1 SSTORE POP JUMP JUMPDEST PUSH1 0x0 DUP1 DUP4 SLOAD PUSH2 0xA6F DUP2 PUSH2 0x84C JUMP JUMPDEST PUSH1 0x1 DUP3 DUP2 AND DUP1 ISZERO PUSH2 0xA87 JUMPI PUSH1 0x1 DUP2 EQ PUSH2 0xA9C JUMPI PUSH2 0xACB JUMP JUMPDEST PUSH1 0xFF NOT DUP5 AND DUP8 MSTORE DUP3 ISZERO ISZERO DUP4 MUL DUP8 ADD SWAP5 POP PUSH2 0xACB JUMP JUMPDEST DUP8 PUSH1 0x0 MSTORE PUSH1 0x20 DUP1 PUSH1 0x0 KECCAK256 PUSH1 0x0 JUMPDEST DUP6 DUP2 LT ISZERO PUSH2 0xAC2 JUMPI DUP2 SLOAD DUP11 DUP3 ADD MSTORE SWAP1 DUP5 ADD SWAP1 DUP3 ADD PUSH2 0xAA9 JUMP JUMPDEST POP POP POP DUP3 DUP8 ADD SWAP5 POP JUMPDEST POP SWAP3 SWAP7 SWAP6 POP POP POP POP POP POP JUMP JUMPDEST PUSH1 0x0 DUP3 MLOAD PUSH2 0xAE9 DUP2 DUP5 PUSH1 0x20 DUP8 ADD PUSH2 0x635 JUMP JUMPDEST SWAP2 SWAP1 SWAP2 ADD SWAP3 SWAP2 POP POP JUMP INVALID LOG2 PUSH5 0x6970667358 0x22 SLT KECCAK256 POP 0xBA 0xA5 CALLDATASIZE DIV 0xBB PUSH11 0xB92E77B9388FA903BE2E24 DUP2 0xA7 PUSH27 0x3C062C3DF6EC3C80F6420F64736F6C63430008140033A264697066 PUSH20 0x58221220EF70AF527177CF7DDC13EEC0212D0483 PUSH2 0xA0B0 LOG3 DUP14 0x1E SWAP7 SELFDESTRUCT BYTE NOT 0xF6 STOP SWAP1 CREATE 0x29 CHAINID PUSH5 0x736F6C6343 STOP ADDMOD EQ STOP CALLER "},"methodIdentifiers":{"createUser(address,string,string,bool,string)":"cb002856","creatorOwnerMap(address)":"4e48c0a4","getCarownerList()":"b3c09a1d","getPasswordHashByUsername(string)":"49c1b617","getUserAddress(address)":"4d6849d2","isNotRegistered(address)":"d8c251b5","isUser(address)":"4209fff1","userList(uint256)":"9f4216e8","verifyPwd(string,string)":"9e31a3ee"}}}}}