{"contracts/fleaMarket.sol":{"AdminList":{"abi":[{"inputs":[{"internalType":"uint256","name":"","type":"uint256"}],"name":"adminList","outputs":[{"internalType":"address","name":"","type":"address"}],"stateMutability":"view","type":"function"},{"inputs":[{"internalType":"string","name":"userName","type":"string"},{"internalType":"string","name":"password","type":"string"},{"internalType":"string","name":"adminNumber","type":"string"},{"internalType":"string","name":"phone","type":"string"},{"internalType":"bool","name":"gender","type":"bool"}],"name":"createAdmin","outputs":[],"stateMutability":"nonpayable","type":"function"},{"inputs":[{"internalType":"address","name":"","type":"address"}],"name":"creatorAdminMap","outputs":[{"internalType":"address","name":"","type":"address"}],"stateMutability":"view","type":"function"},{"inputs":[{"internalType":"address","name":"_address","type":"address"}],"name":"getAdminAddress","outputs":[{"internalType":"address","name":"","type":"address"}],"stateMutability":"view","type":"function"},{"inputs":[],"name":"getAdminList","outputs":[{"internalType":"address[]","name":"","type":"address[]"}],"stateMutability":"view","type":"function"},{"inputs":[{"internalType":"string","name":"userName","type":"string"}],"name":"getPasswordHashByUsername","outputs":[{"internalType":"string","name":"","type":"string"}],"stateMutability":"view","type":"function"},{"inputs":[{"internalType":"address","name":"adminAddr","type":"address"}],"name":"isAdmin","outputs":[{"internalType":"bool","name":"","type":"bool"}],"stateMutability":"view","type":"function"},{"inputs":[{"internalType":"address","name":"account","type":"address"}],"name":"isNotRegistered","outputs":[{"internalType":"bool","name":"","type":"bool"}],"stateMutability":"view","type":"function"},{"inputs":[{"internalType":"string","name":"userName","type":"string"},{"internalType":"string","name":"password","type":"string"}],"name":"verifyPwd","outputs":[{"internalType":"bool","name":"","type":"bool"}],"stateMutability":"view","type":"function"}],"evm":{"bytecode":{"linkReferences":{},"object":"608060405234801561001057600080fd5b50611a4b806100206000396000f3fe60806040523480156200001157600080fd5b50600436106200009f5760003560e01c8063a12bbc3d116200006e578063a12bbc3d146200013d578063ad17fcb51462000156578063d8c251b51462000185578063d9f774fc14620001b5578063e09ce2dc14620001ce57600080fd5b806311117fc814620000a457806324d7806c14620000d857806349c1b61714620001005780639e31a3ee1462000126575b600080fd5b620000bb620000b53660046200076d565b620001fa565b6040516001600160a01b0390911681526020015b60405180910390f35b620000ef620000e936600462000787565b62000225565b6040519015158152602001620000cf565b62000117620001113660046200088a565b62000296565b604051620000cf919062000917565b620000ef620001373660046200092c565b62000412565b620001546200014e366004620009a9565b62000586565b005b620000bb6200016736600462000787565b6001600160a01b039081166000908152600160205260409020541690565b620000ef6200019636600462000787565b6001600160a01b03908116600090815260016020526040902054161590565b620001bf6200069e565b604051620000cf919062000a7a565b620000bb620001df36600462000787565b6001602052600090815260409020546001600160a01b031681565b600081815481106200020b57600080fd5b6000918252602090912001546001600160a01b0316905081565b6000805b6000548110156200028d57826001600160a01b03166000828154811062000254576200025462000ac9565b6000918252602090912001546001600160a01b031603620002785750600192915050565b80620002848162000adf565b91505062000229565b50600092915050565b606060005b600054811015620003d2576000808281548110620002bd57620002bd62000ac9565b6000918252602082200154604080516370019b3560e01b815290516001600160a01b039092169350620003459284926370019b359260048082019392918290030181865afa15801562000314573d6000803e3d6000fd5b505050506040513d6000823e601f3d908101601f191682016040526200033e919081019062000b07565b8562000702565b15620003bc57806001600160a01b031663047cced36040518163ffffffff1660e01b8152600401600060405180830381865afa1580156200038a573d6000803e3d6000fd5b505050506040513d6000823e601f3d908101601f19168201604052620003b4919081019062000b07565b949350505050565b5080620003c98162000adf565b9150506200029b565b5060405162461bcd60e51b815260206004820152600f60248201526e10591b5a5b881b9bdd08199bdd5b99608a1b60448201526064015b60405180910390fd5b336000818152600160205260408120549091906001600160a01b0316620004735760405162461bcd60e51b815260206004820152601460248201527310591b5a5b881b9bdd081c9959da5cdd195c995960621b604482015260640162000409565b6001600160a01b038082166000908152600160205260408082205481516370019b3560e01b815291519316928392620005029284926370019b35926004808401939192918290030181865afa158015620004d1573d6000803e3d6000fd5b505050506040513d6000823e601f3d908101601f19168201604052620004fb919081019062000b07565b8762000702565b80156200057c575060405163b2f0651760e01b81526001600160a01b0382169063b2f06517906200053890889060040162000917565b602060405180830381865afa15801562000556573d6000803e3d6000fd5b505050506040513d601f19601f820116820180604052508101906200057c919062000b87565b9695505050505050565b336000818152600160205260409020546001600160a01b031615620005ee5760405162461bcd60e51b815260206004820152601a60248201527f4163636f756e7420616c72656164792072656769737465726564000000000000604482015260640162000409565b600081878787878760405162000604906200075f565b620006159695949392919062000ba7565b604051809103906000f08015801562000632573d6000803e3d6000fd5b5060008054600181810183557f290decd9548b62a8d60345a988386fc84ba6bc95484008f6362f93160ef3e56390910180546001600160a01b039485166001600160a01b0319918216811790925595909316825260205260409020805490931617909155505050505050565b60606000805480602002602001604051908101604052809291908181526020018280548015620006f857602002820191906000526020600020905b81546001600160a01b03168152600190910190602001808311620006d9575b5050505050905090565b60008160405160200162000717919062000c23565b604051602081830303815290604052805190602001208360405160200162000740919062000c23565b6040516020818303038152906040528051906020012014905092915050565b610dd48062000c4283390190565b6000602082840312156200078057600080fd5b5035919050565b6000602082840312156200079a57600080fd5b81356001600160a01b0381168114620007b257600080fd5b9392505050565b634e487b7160e01b600052604160045260246000fd5b604051601f8201601f1916810167ffffffffffffffff81118282101715620007fb57620007fb620007b9565b604052919050565b600067ffffffffffffffff821115620008205762000820620007b9565b50601f01601f191660200190565b600082601f8301126200084057600080fd5b813562000857620008518262000803565b620007cf565b8181528460208386010111156200086d57600080fd5b816020850160208301376000918101602001919091529392505050565b6000602082840312156200089d57600080fd5b813567ffffffffffffffff811115620008b557600080fd5b620003b4848285016200082e565b60005b83811015620008e0578181015183820152602001620008c6565b50506000910152565b6000815180845262000903816020860160208601620008c3565b601f01601f19169290920160200192915050565b602081526000620007b26020830184620008e9565b600080604083850312156200094057600080fd5b823567ffffffffffffffff808211156200095957600080fd5b62000967868387016200082e565b935060208501359150808211156200097e57600080fd5b506200098d858286016200082e565b9150509250929050565b8015158114620009a657600080fd5b50565b600080600080600060a08688031215620009c257600080fd5b853567ffffffffffffffff80821115620009db57600080fd5b620009e989838a016200082e565b9650602088013591508082111562000a0057600080fd5b62000a0e89838a016200082e565b9550604088013591508082111562000a2557600080fd5b62000a3389838a016200082e565b9450606088013591508082111562000a4a57600080fd5b5062000a59888289016200082e565b925050608086013562000a6c8162000997565b809150509295509295909350565b6020808252825182820181905260009190848201906040850190845b8181101562000abd5783516001600160a01b03168352928401929184019160010162000a96565b50909695505050505050565b634e487b7160e01b600052603260045260246000fd5b60006001820162000b0057634e487b7160e01b600052601160045260246000fd5b5060010190565b60006020828403121562000b1a57600080fd5b815167ffffffffffffffff81111562000b3257600080fd5b8201601f8101841362000b4457600080fd5b805162000b55620008518262000803565b81815285602083850101111562000b6b57600080fd5b62000b7e826020830160208601620008c3565b95945050505050565b60006020828403121562000b9a57600080fd5b8151620007b28162000997565b6001600160a01b038716815260c06020820181905260009062000bcd90830188620008e9565b828103604084015262000be18188620008e9565b9050828103606084015262000bf78187620008e9565b9050828103608084015262000c0d8186620008e9565b91505082151560a0830152979650505050505050565b6000825162000c37818460208701620008c3565b919091019291505056fe60806040523480156200001157600080fd5b5060405162000dd438038062000dd483398101604081905262000034916200019b565b600080546001600160a01b0319166001600160a01b03881617905560016200005d868262000308565b5060026200006c858262000308565b5060036200007b848262000308565b5060046200008a838262000308565b506005805460ff191691151591909117905550620003d49350505050565b80516001600160a01b0381168114620000c057600080fd5b919050565b634e487b7160e01b600052604160045260246000fd5b600082601f830112620000ed57600080fd5b81516001600160401b03808211156200010a576200010a620000c5565b604051601f8301601f19908116603f01168101908282118183101715620001355762000135620000c5565b816040528381526020925086838588010111156200015257600080fd5b600091505b8382101562000176578582018301518183018401529082019062000157565b600093810190920192909252949350505050565b80518015158114620000c057600080fd5b60008060008060008060c08789031215620001b557600080fd5b620001c087620000a8565b60208801519096506001600160401b0380821115620001de57600080fd5b620001ec8a838b01620000db565b965060408901519150808211156200020357600080fd5b620002118a838b01620000db565b955060608901519150808211156200022857600080fd5b620002368a838b01620000db565b945060808901519150808211156200024d57600080fd5b506200025c89828a01620000db565b9250506200026d60a088016200018a565b90509295509295509295565b600181811c908216806200028e57607f821691505b602082108103620002af57634e487b7160e01b600052602260045260246000fd5b50919050565b601f8211156200030357600081815260208120601f850160051c81016020861015620002de5750805b601f850160051c820191505b81811015620002ff57828155600101620002ea565b5050505b505050565b81516001600160401b03811115620003245762000324620000c5565b6200033c8162000335845462000279565b84620002b5565b602080601f8311600181146200037457600084156200035b5750858301515b600019600386901b1c1916600185901b178555620002ff565b600085815260208120601f198616915b82811015620003a55788860151825594840194600190910190840162000384565b5085821015620003c45787850151600019600388901b60f8161c191681555b5050505050600190811b01905550565b6109f080620003e46000396000f3fe608060405234801561001057600080fd5b50600436106100a95760003560e01c80638da5cb5b116100715780638da5cb5b1461012b5780639284f4971461013e578063b2f0651714610146578063c3d5fd3914610159578063dbce14dc14610171578063e78436c01461018457600080fd5b8063047cced3146100ae5780634afb08a6146100cc57806370019b35146100e157806379caad86146100e9578063893d20e814610106575b600080fd5b6100b661018c565b6040516100c391906105da565b60405180910390f35b6100df6100da366004610697565b61021e565b005b6100b6610261565b6005546100f69060ff1681565b60405190151581526020016100c3565b6000546001600160a01b03165b6040516001600160a01b0390911681526020016100c3565b600054610113906001600160a01b031681565b6100b66102ef565b6100f6610154366004610697565b6102fc565b610161610355565b6040516100c394939291906106d4565b6100df61017f366004610721565b610524565b6100b661057d565b60606002805461019b9061079e565b80601f01602080910402602001604051908101604052809291908181526020018280546101c79061079e565b80156102145780601f106101e957610100808354040283529160200191610214565b820191906000526020600020905b8154815290600101906020018083116101f757829003601f168201915b5050505050905090565b6000546001600160a01b031633146102515760405162461bcd60e51b8152600401610248906107d8565b60405180910390fd5b600261025d8282610868565b5050565b6001805461026e9061079e565b80601f016020809104026020016040519081016040528092919081815260200182805461029a9061079e565b80156102e75780601f106102bc576101008083540402835291602001916102e7565b820191906000526020600020905b8154815290600101906020018083116102ca57829003601f168201915b505050505081565b6004805461026e9061079e565b600060026040516020016103109190610928565b6040516020818303038152906040528051906020012082604051602001610337919061099e565b60405160208183030381529060405280519060200120149050919050565b60608060606000600160036004600560009054906101000a900460ff1683805461037e9061079e565b80601f01602080910402602001604051908101604052809291908181526020018280546103aa9061079e565b80156103f75780601f106103cc576101008083540402835291602001916103f7565b820191906000526020600020905b8154815290600101906020018083116103da57829003601f168201915b5050505050935082805461040a9061079e565b80601f01602080910402602001604051908101604052809291908181526020018280546104369061079e565b80156104835780601f1061045857610100808354040283529160200191610483565b820191906000526020600020905b81548152906001019060200180831161046657829003601f168201915b505050505092508180546104969061079e565b80601f01602080910402602001604051908101604052809291908181526020018280546104c29061079e565b801561050f5780601f106104e45761010080835404028352916020019161050f565b820191906000526020600020905b8154815290600101906020018083116104f257829003601f168201915b50505050509150935093509350935090919293565b6000546001600160a01b0316331461054e5760405162461bcd60e51b8152600401610248906107d8565b600161055a8482610868565b5060046105678382610868565b506005805460ff19169115159190911790555050565b6003805461026e9061079e565b60005b838110156105a557818101518382015260200161058d565b50506000910152565b600081518084526105c681602086016020860161058a565b601f01601f19169290920160200192915050565b6020815260006105ed60208301846105ae565b9392505050565b634e487b7160e01b600052604160045260246000fd5b600082601f83011261061b57600080fd5b813567ffffffffffffffff80821115610636576106366105f4565b604051601f8301601f19908116603f0116810190828211818310171561065e5761065e6105f4565b8160405283815286602085880101111561067757600080fd5b836020870160208301376000602085830101528094505050505092915050565b6000602082840312156106a957600080fd5b813567ffffffffffffffff8111156106c057600080fd5b6106cc8482850161060a565b949350505050565b6080815260006106e760808301876105ae565b82810360208401526106f981876105ae565b9050828103604084015261070d81866105ae565b915050821515606083015295945050505050565b60008060006060848603121561073657600080fd5b833567ffffffffffffffff8082111561074e57600080fd5b61075a8783880161060a565b9450602086013591508082111561077057600080fd5b5061077d8682870161060a565b9250506040840135801515811461079357600080fd5b809150509250925092565b600181811c908216806107b257607f821691505b6020821081036107d257634e487b7160e01b600052602260045260246000fd5b50919050565b60208082526021908201527f4f6e6c79206f776e65722063616e2063616c6c20746869732066756e6374696f6040820152603760f91b606082015260800190565b601f82111561086357600081815260208120601f850160051c810160208610156108405750805b601f850160051c820191505b8181101561085f5782815560010161084c565b5050505b505050565b815167ffffffffffffffff811115610882576108826105f4565b61089681610890845461079e565b84610819565b602080601f8311600181146108cb57600084156108b35750858301515b600019600386901b1c1916600185901b17855561085f565b600085815260208120601f198616915b828110156108fa578886015182559484019460019091019084016108db565b50858210156109185787850151600019600388901b60f8161c191681555b5050505050600190811b01905550565b60008083546109368161079e565b6001828116801561094e576001811461096357610992565b60ff1984168752821515830287019450610992565b8760005260208060002060005b858110156109895781548a820152908401908201610970565b50505082870194505b50929695505050505050565b600082516109b081846020870161058a565b919091019291505056fea26469706673582212209a8c1e3bb52191a40b7c800663f6ecb34586fba3f3ae53297ac61b00f961b8eb64736f6c63430008140033a2646970667358221220405c9833bc50e908acd0d2586314187876b777de8a539711d629f49321db3a3864736f6c63430008140033","opcodes":"PUSH1 0x80 PUSH1 0x40 MSTORE CALLVALUE DUP1 ISZERO PUSH2 0x10 JUMPI PUSH1 0x0 DUP1 REVERT JUMPDEST POP PUSH2 0x1A4B DUP1 PUSH2 0x20 PUSH1 0x0 CODECOPY PUSH1 0x0 RETURN INVALID PUSH1 0x80 PUSH1 0x40 MSTORE CALLVALUE DUP1 ISZERO PUSH3 0x11 JUMPI PUSH1 0x0 DUP1 REVERT JUMPDEST POP PUSH1 0x4 CALLDATASIZE LT PUSH3 0x9F JUMPI PUSH1 0x0 CALLDATALOAD PUSH1 0xE0 SHR DUP1 PUSH4 0xA12BBC3D GT PUSH3 0x6E JUMPI DUP1 PUSH4 0xA12BBC3D EQ PUSH3 0x13D JUMPI DUP1 PUSH4 0xAD17FCB5 EQ PUSH3 0x156 JUMPI DUP1 PUSH4 0xD8C251B5 EQ PUSH3 0x185 JUMPI DUP1 PUSH4 0xD9F774FC EQ PUSH3 0x1B5 JUMPI DUP1 PUSH4 0xE09CE2DC EQ PUSH3 0x1CE JUMPI PUSH1 0x0 DUP1 REVERT JUMPDEST DUP1 PUSH4 0x11117FC8 EQ PUSH3 0xA4 JUMPI DUP1 PUSH4 0x24D7806C EQ PUSH3 0xD8 JUMPI DUP1 PUSH4 0x49C1B617 EQ PUSH3 0x100 JUMPI DUP1 PUSH4 0x9E31A3EE EQ PUSH3 0x126 JUMPI JUMPDEST PUSH1 0x0 DUP1 REVERT JUMPDEST PUSH3 0xBB PUSH3 0xB5 CALLDATASIZE PUSH1 0x4 PUSH3 0x76D JUMP JUMPDEST PUSH3 0x1FA JUMP JUMPDEST PUSH1 0x40 MLOAD PUSH1 0x1 PUSH1 0x1 PUSH1 0xA0 SHL SUB SWAP1 SWAP2 AND DUP2 MSTORE PUSH1 0x20 ADD JUMPDEST PUSH1 0x40 MLOAD DUP1 SWAP2 SUB SWAP1 RETURN JUMPDEST PUSH3 0xEF PUSH3 0xE9 CALLDATASIZE PUSH1 0x4 PUSH3 0x787 JUMP JUMPDEST PUSH3 0x225 JUMP JUMPDEST PUSH1 0x40 MLOAD SWAP1 ISZERO ISZERO DUP2 MSTORE PUSH1 0x20 ADD PUSH3 0xCF JUMP JUMPDEST PUSH3 0x117 PUSH3 0x111 CALLDATASIZE PUSH1 0x4 PUSH3 0x88A JUMP JUMPDEST PUSH3 0x296 JUMP JUMPDEST PUSH1 0x40 MLOAD PUSH3 0xCF SWAP2 SWAP1 PUSH3 0x917 JUMP JUMPDEST PUSH3 0xEF PUSH3 0x137 CALLDATASIZE PUSH1 0x4 PUSH3 0x92C JUMP JUMPDEST PUSH3 0x412 JUMP JUMPDEST PUSH3 0x154 PUSH3 0x14E CALLDATASIZE PUSH1 0x4 PUSH3 0x9A9 JUMP JUMPDEST PUSH3 0x586 JUMP JUMPDEST STOP JUMPDEST PUSH3 0xBB PUSH3 0x167 CALLDATASIZE PUSH1 0x4 PUSH3 0x787 JUMP JUMPDEST PUSH1 0x1 PUSH1 0x1 PUSH1 0xA0 SHL SUB SWAP1 DUP2 AND PUSH1 0x0 SWAP1 DUP2 MSTORE PUSH1 0x1 PUSH1 0x20 MSTORE PUSH1 0x40 SWAP1 KECCAK256 SLOAD AND SWAP1 JUMP JUMPDEST PUSH3 0xEF PUSH3 0x196 CALLDATASIZE PUSH1 0x4 PUSH3 0x787 JUMP JUMPDEST PUSH1 0x1 PUSH1 0x1 PUSH1 0xA0 SHL SUB SWAP1 DUP2 AND PUSH1 0x0 SWAP1 DUP2 MSTORE PUSH1 0x1 PUSH1 0x20 MSTORE PUSH1 0x40 SWAP1 KECCAK256 SLOAD AND ISZERO SWAP1 JUMP JUMPDEST PUSH3 0x1BF PUSH3 0x69E JUMP JUMPDEST PUSH1 0x40 MLOAD PUSH3 0xCF SWAP2 SWAP1 PUSH3 0xA7A JUMP JUMPDEST PUSH3 0xBB PUSH3 0x1DF CALLDATASIZE PUSH1 0x4 PUSH3 0x787 JUMP JUMPDEST PUSH1 0x1 PUSH1 0x20 MSTORE PUSH1 0x0 SWAP1 DUP2 MSTORE PUSH1 0x40 SWAP1 KECCAK256 SLOAD PUSH1 0x1 PUSH1 0x1 PUSH1 0xA0 SHL SUB AND DUP2 JUMP JUMPDEST PUSH1 0x0 DUP2 DUP2 SLOAD DUP2 LT PUSH3 0x20B JUMPI PUSH1 0x0 DUP1 REVERT JUMPDEST PUSH1 0x0 SWAP2 DUP3 MSTORE PUSH1 0x20 SWAP1 SWAP2 KECCAK256 ADD SLOAD PUSH1 0x1 PUSH1 0x1 PUSH1 0xA0 SHL SUB AND SWAP1 POP DUP2 JUMP JUMPDEST PUSH1 0x0 DUP1 JUMPDEST PUSH1 0x0 SLOAD DUP2 LT ISZERO PUSH3 0x28D JUMPI DUP3 PUSH1 0x1 PUSH1 0x1 PUSH1 0xA0 SHL SUB AND PUSH1 0x0 DUP3 DUP2 SLOAD DUP2 LT PUSH3 0x254 JUMPI PUSH3 0x254 PUSH3 0xAC9 JUMP JUMPDEST PUSH1 0x0 SWAP2 DUP3 MSTORE PUSH1 0x20 SWAP1 SWAP2 KECCAK256 ADD SLOAD PUSH1 0x1 PUSH1 0x1 PUSH1 0xA0 SHL SUB AND SUB PUSH3 0x278 JUMPI POP PUSH1 0x1 SWAP3 SWAP2 POP POP JUMP JUMPDEST DUP1 PUSH3 0x284 DUP2 PUSH3 0xADF JUMP JUMPDEST SWAP2 POP POP PUSH3 0x229 JUMP JUMPDEST POP PUSH1 0x0 SWAP3 SWAP2 POP POP JUMP JUMPDEST PUSH1 0x60 PUSH1 0x0 JUMPDEST PUSH1 0x0 SLOAD DUP2 LT ISZERO PUSH3 0x3D2 JUMPI PUSH1 0x0 DUP1 DUP3 DUP2 SLOAD DUP2 LT PUSH3 0x2BD JUMPI PUSH3 0x2BD PUSH3 0xAC9 JUMP JUMPDEST PUSH1 0x0 SWAP2 DUP3 MSTORE PUSH1 0x20 DUP3 KECCAK256 ADD SLOAD PUSH1 0x40 DUP1 MLOAD PUSH4 0x70019B35 PUSH1 0xE0 SHL DUP2 MSTORE SWAP1 MLOAD PUSH1 0x1 PUSH1 0x1 PUSH1 0xA0 SHL SUB SWAP1 SWAP3 AND SWAP4 POP PUSH3 0x345 SWAP3 DUP5 SWAP3 PUSH4 0x70019B35 SWAP3 PUSH1 0x4 DUP1 DUP3 ADD SWAP4 SWAP3 SWAP2 DUP3 SWAP1 SUB ADD DUP2 DUP7 GAS STATICCALL ISZERO DUP1 ISZERO PUSH3 0x314 JUMPI RETURNDATASIZE PUSH1 0x0 DUP1 RETURNDATACOPY RETURNDATASIZE PUSH1 0x0 REVERT JUMPDEST POP POP POP POP PUSH1 0x40 MLOAD RETURNDATASIZE PUSH1 0x0 DUP3 RETURNDATACOPY PUSH1 0x1F RETURNDATASIZE SWAP1 DUP2 ADD PUSH1 0x1F NOT AND DUP3 ADD PUSH1 0x40 MSTORE PUSH3 0x33E SWAP2 SWAP1 DUP2 ADD SWAP1 PUSH3 0xB07 JUMP JUMPDEST DUP6 PUSH3 0x702 JUMP JUMPDEST ISZERO PUSH3 0x3BC JUMPI DUP1 PUSH1 0x1 PUSH1 0x1 PUSH1 0xA0 SHL SUB AND PUSH4 0x47CCED3 PUSH1 0x40 MLOAD DUP2 PUSH4 0xFFFFFFFF AND PUSH1 0xE0 SHL DUP2 MSTORE PUSH1 0x4 ADD PUSH1 0x0 PUSH1 0x40 MLOAD DUP1 DUP4 SUB DUP2 DUP7 GAS STATICCALL ISZERO DUP1 ISZERO PUSH3 0x38A JUMPI RETURNDATASIZE PUSH1 0x0 DUP1 RETURNDATACOPY RETURNDATASIZE PUSH1 0x0 REVERT JUMPDEST POP POP POP POP PUSH1 0x40 MLOAD RETURNDATASIZE PUSH1 0x0 DUP3 RETURNDATACOPY PUSH1 0x1F RETURNDATASIZE SWAP1 DUP2 ADD PUSH1 0x1F NOT AND DUP3 ADD PUSH1 0x40 MSTORE PUSH3 0x3B4 SWAP2 SWAP1 DUP2 ADD SWAP1 PUSH3 0xB07 JUMP JUMPDEST SWAP5 SWAP4 POP POP POP POP JUMP JUMPDEST POP DUP1 PUSH3 0x3C9 DUP2 PUSH3 0xADF JUMP JUMPDEST SWAP2 POP POP PUSH3 0x29B JUMP JUMPDEST POP PUSH1 0x40 MLOAD PUSH3 0x461BCD PUSH1 0xE5 SHL DUP2 MSTORE PUSH1 0x20 PUSH1 0x4 DUP3 ADD MSTORE PUSH1 0xF PUSH1 0x24 DUP3 ADD MSTORE PUSH15 0x10591B5A5B881B9BDD08199BDD5B99 PUSH1 0x8A SHL PUSH1 0x44 DUP3 ADD MSTORE PUSH1 0x64 ADD JUMPDEST PUSH1 0x40 MLOAD DUP1 SWAP2 SUB SWAP1 REVERT JUMPDEST CALLER PUSH1 0x0 DUP2 DUP2 MSTORE PUSH1 0x1 PUSH1 0x20 MSTORE PUSH1 0x40 DUP2 KECCAK256 SLOAD SWAP1 SWAP2 SWAP1 PUSH1 0x1 PUSH1 0x1 PUSH1 0xA0 SHL SUB AND PUSH3 0x473 JUMPI PUSH1 0x40 MLOAD PUSH3 0x461BCD PUSH1 0xE5 SHL DUP2 MSTORE PUSH1 0x20 PUSH1 0x4 DUP3 ADD MSTORE PUSH1 0x14 PUSH1 0x24 DUP3 ADD MSTORE PUSH20 0x10591B5A5B881B9BDD081C9959DA5CDD195C9959 PUSH1 0x62 SHL PUSH1 0x44 DUP3 ADD MSTORE PUSH1 0x64 ADD PUSH3 0x409 JUMP JUMPDEST PUSH1 0x1 PUSH1 0x1 PUSH1 0xA0 SHL SUB DUP1 DUP3 AND PUSH1 0x0 SWAP1 DUP2 MSTORE PUSH1 0x1 PUSH1 0x20 MSTORE PUSH1 0x40 DUP1 DUP3 KECCAK256 SLOAD DUP2 MLOAD PUSH4 0x70019B35 PUSH1 0xE0 SHL DUP2 MSTORE SWAP2 MLOAD SWAP4 AND SWAP3 DUP4 SWAP3 PUSH3 0x502 SWAP3 DUP5 SWAP3 PUSH4 0x70019B35 SWAP3 PUSH1 0x4 DUP1 DUP5 ADD SWAP4 SWAP2 SWAP3 SWAP2 DUP3 SWAP1 SUB ADD DUP2 DUP7 GAS STATICCALL ISZERO DUP1 ISZERO PUSH3 0x4D1 JUMPI RETURNDATASIZE PUSH1 0x0 DUP1 RETURNDATACOPY RETURNDATASIZE PUSH1 0x0 REVERT JUMPDEST POP POP POP POP PUSH1 0x40 MLOAD RETURNDATASIZE PUSH1 0x0 DUP3 RETURNDATACOPY PUSH1 0x1F RETURNDATASIZE SWAP1 DUP2 ADD PUSH1 0x1F NOT AND DUP3 ADD PUSH1 0x40 MSTORE PUSH3 0x4FB SWAP2 SWAP1 DUP2 ADD SWAP1 PUSH3 0xB07 JUMP JUMPDEST DUP8 PUSH3 0x702 JUMP JUMPDEST DUP1 ISZERO PUSH3 0x57C JUMPI POP PUSH1 0x40 MLOAD PUSH4 0xB2F06517 PUSH1 0xE0 SHL DUP2 MSTORE PUSH1 0x1 PUSH1 0x1 PUSH1 0xA0 SHL SUB DUP3 AND SWAP1 PUSH4 0xB2F06517 SWAP1 PUSH3 0x538 SWAP1 DUP9 SWAP1 PUSH1 0x4 ADD PUSH3 0x917 JUMP JUMPDEST PUSH1 0x20 PUSH1 0x40 MLOAD DUP1 DUP4 SUB DUP2 DUP7 GAS STATICCALL ISZERO DUP1 ISZERO PUSH3 0x556 JUMPI RETURNDATASIZE PUSH1 0x0 DUP1 RETURNDATACOPY RETURNDATASIZE PUSH1 0x0 REVERT JUMPDEST POP POP POP POP PUSH1 0x40 MLOAD RETURNDATASIZE PUSH1 0x1F NOT PUSH1 0x1F DUP3 ADD AND DUP3 ADD DUP1 PUSH1 0x40 MSTORE POP DUP2 ADD SWAP1 PUSH3 0x57C SWAP2 SWAP1 PUSH3 0xB87 JUMP JUMPDEST SWAP7 SWAP6 POP POP POP POP POP POP JUMP JUMPDEST CALLER PUSH1 0x0 DUP2 DUP2 MSTORE PUSH1 0x1 PUSH1 0x20 MSTORE PUSH1 0x40 SWAP1 KECCAK256 SLOAD PUSH1 0x1 PUSH1 0x1 PUSH1 0xA0 SHL SUB AND ISZERO PUSH3 0x5EE JUMPI PUSH1 0x40 MLOAD PUSH3 0x461BCD PUSH1 0xE5 SHL DUP2 MSTORE PUSH1 0x20 PUSH1 0x4 DUP3 ADD MSTORE PUSH1 0x1A PUSH1 0x24 DUP3 ADD MSTORE PUSH32 0x4163636F756E7420616C72656164792072656769737465726564000000000000 PUSH1 0x44 DUP3 ADD MSTORE PUSH1 0x64 ADD PUSH3 0x409 JUMP JUMPDEST PUSH1 0x0 DUP2 DUP8 DUP8 DUP8 DUP8 DUP8 PUSH1 0x40 MLOAD PUSH3 0x604 SWAP1 PUSH3 0x75F JUMP JUMPDEST PUSH3 0x615 SWAP7 SWAP6 SWAP5 SWAP4 SWAP3 SWAP2 SWAP1 PUSH3 0xBA7 JUMP JUMPDEST PUSH1 0x40 MLOAD DUP1 SWAP2 SUB SWAP1 PUSH1 0x0 CREATE DUP1 ISZERO DUP1 ISZERO PUSH3 0x632 JUMPI RETURNDATASIZE PUSH1 0x0 DUP1 RETURNDATACOPY RETURNDATASIZE PUSH1 0x0 REVERT JUMPDEST POP PUSH1 0x0 DUP1 SLOAD PUSH1 0x1 DUP2 DUP2 ADD DUP4 SSTORE PUSH32 0x290DECD9548B62A8D60345A988386FC84BA6BC95484008F6362F93160EF3E563 SWAP1 SWAP2 ADD DUP1 SLOAD PUSH1 0x1 PUSH1 0x1 PUSH1 0xA0 SHL SUB SWAP5 DUP6 AND PUSH1 0x1 PUSH1 0x1 PUSH1 0xA0 SHL SUB NOT SWAP2 DUP3 AND DUP2 OR SWAP1 SWAP3 SSTORE SWAP6 SWAP1 SWAP4 AND DUP3 MSTORE PUSH1 0x20 MSTORE PUSH1 0x40 SWAP1 KECCAK256 DUP1 SLOAD SWAP1 SWAP4 AND OR SWAP1 SWAP2 SSTORE POP POP POP POP POP POP JUMP JUMPDEST PUSH1 0x60 PUSH1 0x0 DUP1 SLOAD DUP1 PUSH1 0x20 MUL PUSH1 0x20 ADD PUSH1 0x40 MLOAD SWAP1 DUP2 ADD PUSH1 0x40 MSTORE DUP1 SWAP3 SWAP2 SWAP1 DUP2 DUP2 MSTORE PUSH1 0x20 ADD DUP3 DUP1 SLOAD DUP1 ISZERO PUSH3 0x6F8 JUMPI PUSH1 0x20 MUL DUP3 ADD SWAP2 SWAP1 PUSH1 0x0 MSTORE PUSH1 0x20 PUSH1 0x0 KECCAK256 SWAP1 JUMPDEST DUP2 SLOAD PUSH1 0x1 PUSH1 0x1 PUSH1 0xA0 SHL SUB AND DUP2 MSTORE PUSH1 0x1 SWAP1 SWAP2 ADD SWAP1 PUSH1 0x20 ADD DUP1 DUP4 GT PUSH3 0x6D9 JUMPI JUMPDEST POP POP POP POP POP SWAP1 POP SWAP1 JUMP JUMPDEST PUSH1 0x0 DUP2 PUSH1 0x40 MLOAD PUSH1 0x20 ADD PUSH3 0x717 SWAP2 SWAP1 PUSH3 0xC23 JUMP JUMPDEST PUSH1 0x40 MLOAD PUSH1 0x20 DUP2 DUP4 SUB SUB DUP2 MSTORE SWAP1 PUSH1 0x40 MSTORE DUP1 MLOAD SWAP1 PUSH1 0x20 ADD KECCAK256 DUP4 PUSH1 0x40 MLOAD PUSH1 0x20 ADD PUSH3 0x740 SWAP2 SWAP1 PUSH3 0xC23 JUMP JUMPDEST PUSH1 0x40 MLOAD PUSH1 0x20 DUP2 DUP4 SUB SUB DUP2 MSTORE SWAP1 PUSH1 0x40 MSTORE DUP1 MLOAD SWAP1 PUSH1 0x20 ADD KECCAK256 EQ SWAP1 POP SWAP3 SWAP2 POP POP JUMP JUMPDEST PUSH2 0xDD4 DUP1 PUSH3 0xC42 DUP4 CODECOPY ADD SWAP1 JUMP JUMPDEST PUSH1 0x0 PUSH1 0x20 DUP3 DUP5 SUB SLT ISZERO PUSH3 0x780 JUMPI PUSH1 0x0 DUP1 REVERT JUMPDEST POP CALLDATALOAD SWAP2 SWAP1 POP JUMP JUMPDEST PUSH1 0x0 PUSH1 0x20 DUP3 DUP5 SUB SLT ISZERO PUSH3 0x79A JUMPI PUSH1 0x0 DUP1 REVERT JUMPDEST DUP2 CALLDATALOAD PUSH1 0x1 PUSH1 0x1 PUSH1 0xA0 SHL SUB DUP2 AND DUP2 EQ PUSH3 0x7B2 JUMPI PUSH1 0x0 DUP1 REVERT JUMPDEST SWAP4 SWAP3 POP POP POP JUMP JUMPDEST PUSH4 0x4E487B71 PUSH1 0xE0 SHL PUSH1 0x0 MSTORE PUSH1 0x41 PUSH1 0x4 MSTORE PUSH1 0x24 PUSH1 0x0 REVERT JUMPDEST PUSH1 0x40 MLOAD PUSH1 0x1F DUP3 ADD PUSH1 0x1F NOT AND DUP2 ADD PUSH8 0xFFFFFFFFFFFFFFFF DUP2 GT DUP3 DUP3 LT OR ISZERO PUSH3 0x7FB JUMPI PUSH3 0x7FB PUSH3 0x7B9 JUMP JUMPDEST PUSH1 0x40 MSTORE SWAP2 SWAP1 POP JUMP JUMPDEST PUSH1 0x0 PUSH8 0xFFFFFFFFFFFFFFFF DUP3 GT ISZERO PUSH3 0x820 JUMPI PUSH3 0x820 PUSH3 0x7B9 JUMP JUMPDEST POP PUSH1 0x1F ADD PUSH1 0x1F NOT AND PUSH1 0x20 ADD SWAP1 JUMP JUMPDEST PUSH1 0x0 DUP3 PUSH1 0x1F DUP4 ADD SLT PUSH3 0x840 JUMPI PUSH1 0x0 DUP1 REVERT JUMPDEST DUP2 CALLDATALOAD PUSH3 0x857 PUSH3 0x851 DUP3 PUSH3 0x803 JUMP JUMPDEST PUSH3 0x7CF JUMP JUMPDEST DUP2 DUP2 MSTORE DUP5 PUSH1 0x20 DUP4 DUP7 ADD ADD GT ISZERO PUSH3 0x86D JUMPI PUSH1 0x0 DUP1 REVERT JUMPDEST DUP2 PUSH1 0x20 DUP6 ADD PUSH1 0x20 DUP4 ADD CALLDATACOPY PUSH1 0x0 SWAP2 DUP2 ADD PUSH1 0x20 ADD SWAP2 SWAP1 SWAP2 MSTORE SWAP4 SWAP3 POP POP POP JUMP JUMPDEST PUSH1 0x0 PUSH1 0x20 DUP3 DUP5 SUB SLT ISZERO PUSH3 0x89D JUMPI PUSH1 0x0 DUP1 REVERT JUMPDEST DUP2 CALLDATALOAD PUSH8 0xFFFFFFFFFFFFFFFF DUP2 GT ISZERO PUSH3 0x8B5 JUMPI PUSH1 0x0 DUP1 REVERT JUMPDEST PUSH3 0x3B4 DUP5 DUP3 DUP6 ADD PUSH3 0x82E JUMP JUMPDEST PUSH1 0x0 JUMPDEST DUP4 DUP2 LT ISZERO PUSH3 0x8E0 JUMPI DUP2 DUP2 ADD MLOAD DUP4 DUP3 ADD MSTORE PUSH1 0x20 ADD PUSH3 0x8C6 JUMP JUMPDEST POP POP PUSH1 0x0 SWAP2 ADD MSTORE JUMP JUMPDEST PUSH1 0x0 DUP2 MLOAD DUP1 DUP5 MSTORE PUSH3 0x903 DUP2 PUSH1 0x20 DUP7 ADD PUSH1 0x20 DUP7 ADD PUSH3 0x8C3 JUMP JUMPDEST PUSH1 0x1F ADD PUSH1 0x1F NOT AND SWAP3 SWAP1 SWAP3 ADD PUSH1 0x20 ADD SWAP3 SWAP2 POP POP JUMP JUMPDEST PUSH1 0x20 DUP2 MSTORE PUSH1 0x0 PUSH3 0x7B2 PUSH1 0x20 DUP4 ADD DUP5 PUSH3 0x8E9 JUMP JUMPDEST PUSH1 0x0 DUP1 PUSH1 0x40 DUP4 DUP6 SUB SLT ISZERO PUSH3 0x940 JUMPI PUSH1 0x0 DUP1 REVERT JUMPDEST DUP3 CALLDATALOAD PUSH8 0xFFFFFFFFFFFFFFFF DUP1 DUP3 GT ISZERO PUSH3 0x959 JUMPI PUSH1 0x0 DUP1 REVERT JUMPDEST PUSH3 0x967 DUP7 DUP4 DUP8 ADD PUSH3 0x82E JUMP JUMPDEST SWAP4 POP PUSH1 0x20 DUP6 ADD CALLDATALOAD SWAP2 POP DUP1 DUP3 GT ISZERO PUSH3 0x97E JUMPI PUSH1 0x0 DUP1 REVERT JUMPDEST POP PUSH3 0x98D DUP6 DUP3 DUP7 ADD PUSH3 0x82E JUMP JUMPDEST SWAP2 POP POP SWAP3 POP SWAP3 SWAP1 POP JUMP JUMPDEST DUP1 ISZERO ISZERO DUP2 EQ PUSH3 0x9A6 JUMPI PUSH1 0x0 DUP1 REVERT JUMPDEST POP JUMP JUMPDEST PUSH1 0x0 DUP1 PUSH1 0x0 DUP1 PUSH1 0x0 PUSH1 0xA0 DUP7 DUP9 SUB SLT ISZERO PUSH3 0x9C2 JUMPI PUSH1 0x0 DUP1 REVERT JUMPDEST DUP6 CALLDATALOAD PUSH8 0xFFFFFFFFFFFFFFFF DUP1 DUP3 GT ISZERO PUSH3 0x9DB JUMPI PUSH1 0x0 DUP1 REVERT JUMPDEST PUSH3 0x9E9 DUP10 DUP4 DUP11 ADD PUSH3 0x82E JUMP JUMPDEST SWAP7 POP PUSH1 0x20 DUP9 ADD CALLDATALOAD SWAP2 POP DUP1 DUP3 GT ISZERO PUSH3 0xA00 JUMPI PUSH1 0x0 DUP1 REVERT JUMPDEST PUSH3 0xA0E DUP10 DUP4 DUP11 ADD PUSH3 0x82E JUMP JUMPDEST SWAP6 POP PUSH1 0x40 DUP9 ADD CALLDATALOAD SWAP2 POP DUP1 DUP3 GT ISZERO PUSH3 0xA25 JUMPI PUSH1 0x0 DUP1 REVERT JUMPDEST PUSH3 0xA33 DUP10 DUP4 DUP11 ADD PUSH3 0x82E JUMP JUMPDEST SWAP5 POP PUSH1 0x60 DUP9 ADD CALLDATALOAD SWAP2 POP DUP1 DUP3 GT ISZERO PUSH3 0xA4A JUMPI PUSH1 0x0 DUP1 REVERT JUMPDEST POP PUSH3 0xA59 DUP9 DUP3 DUP10 ADD PUSH3 0x82E JUMP JUMPDEST SWAP3 POP POP PUSH1 0x80 DUP7 ADD CALLDATALOAD PUSH3 0xA6C DUP2 PUSH3 0x997 JUMP JUMPDEST DUP1 SWAP2 POP POP SWAP3 SWAP6 POP SWAP3 SWAP6 SWAP1 SWAP4 POP JUMP JUMPDEST PUSH1 0x20 DUP1 DUP3 MSTORE DUP3 MLOAD DUP3 DUP3 ADD DUP2 SWAP1 MSTORE PUSH1 0x0 SWAP2 SWAP1 DUP5 DUP3 ADD SWAP1 PUSH1 0x40 DUP6 ADD SWAP1 DUP5 JUMPDEST DUP2 DUP2 LT ISZERO PUSH3 0xABD JUMPI DUP4 MLOAD PUSH1 0x1 PUSH1 0x1 PUSH1 0xA0 SHL SUB AND DUP4 MSTORE SWAP3 DUP5 ADD SWAP3 SWAP2 DUP5 ADD SWAP2 PUSH1 0x1 ADD PUSH3 0xA96 JUMP JUMPDEST POP SWAP1 SWAP7 SWAP6 POP POP POP POP POP POP JUMP JUMPDEST PUSH4 0x4E487B71 PUSH1 0xE0 SHL PUSH1 0x0 MSTORE PUSH1 0x32 PUSH1 0x4 MSTORE PUSH1 0x24 PUSH1 0x0 REVERT JUMPDEST PUSH1 0x0 PUSH1 0x1 DUP3 ADD PUSH3 0xB00 JUMPI PUSH4 0x4E487B71 PUSH1 0xE0 SHL PUSH1 0x0 MSTORE PUSH1 0x11 PUSH1 0x4 MSTORE PUSH1 0x24 PUSH1 0x0 REVERT JUMPDEST POP PUSH1 0x1 ADD SWAP1 JUMP JUMPDEST PUSH1 0x0 PUSH1 0x20 DUP3 DUP5 SUB SLT ISZERO PUSH3 0xB1A JUMPI PUSH1 0x0 DUP1 REVERT JUMPDEST DUP2 MLOAD PUSH8 0xFFFFFFFFFFFFFFFF DUP2 GT ISZERO PUSH3 0xB32 JUMPI PUSH1 0x0 DUP1 REVERT JUMPDEST DUP3 ADD PUSH1 0x1F DUP2 ADD DUP5 SGT PUSH3 0xB44 JUMPI PUSH1 0x0 DUP1 REVERT JUMPDEST DUP1 MLOAD PUSH3 0xB55 PUSH3 0x851 DUP3 PUSH3 0x803 JUMP JUMPDEST DUP2 DUP2 MSTORE DUP6 PUSH1 0x20 DUP4 DUP6 ADD ADD GT ISZERO PUSH3 0xB6B JUMPI PUSH1 0x0 DUP1 REVERT JUMPDEST PUSH3 0xB7E DUP3 PUSH1 0x20 DUP4 ADD PUSH1 0x20 DUP7 ADD PUSH3 0x8C3 JUMP JUMPDEST SWAP6 SWAP5 POP POP POP POP POP JUMP JUMPDEST PUSH1 0x0 PUSH1 0x20 DUP3 DUP5 SUB SLT ISZERO PUSH3 0xB9A JUMPI PUSH1 0x0 DUP1 REVERT JUMPDEST DUP2 MLOAD PUSH3 0x7B2 DUP2 PUSH3 0x997 JUMP JUMPDEST PUSH1 0x1 PUSH1 0x1 PUSH1 0xA0 SHL SUB DUP8 AND DUP2 MSTORE PUSH1 0xC0 PUSH1 0x20 DUP3 ADD DUP2 SWAP1 MSTORE PUSH1 0x0 SWAP1 PUSH3 0xBCD SWAP1 DUP4 ADD DUP9 PUSH3 0x8E9 JUMP JUMPDEST DUP3 DUP2 SUB PUSH1 0x40 DUP5 ADD MSTORE PUSH3 0xBE1 DUP2 DUP9 PUSH3 0x8E9 JUMP JUMPDEST SWAP1 POP DUP3 DUP2 SUB PUSH1 0x60 DUP5 ADD MSTORE PUSH3 0xBF7 DUP2 DUP8 PUSH3 0x8E9 JUMP JUMPDEST SWAP1 POP DUP3 DUP2 SUB PUSH1 0x80 DUP5 ADD MSTORE PUSH3 0xC0D DUP2 DUP7 PUSH3 0x8E9 JUMP JUMPDEST SWAP2 POP POP DUP3 ISZERO ISZERO PUSH1 0xA0 DUP4 ADD MSTORE SWAP8 SWAP7 POP POP POP POP POP POP POP JUMP JUMPDEST PUSH1 0x0 DUP3 MLOAD PUSH3 0xC37 DUP2 DUP5 PUSH1 0x20 DUP8 ADD PUSH3 0x8C3 JUMP JUMPDEST SWAP2 SWAP1 SWAP2 ADD SWAP3 SWAP2 POP POP JUMP INVALID PUSH1 0x80 PUSH1 0x40 MSTORE CALLVALUE DUP1 ISZERO PUSH3 0x11 JUMPI PUSH1 0x0 DUP1 REVERT JUMPDEST POP PUSH1 0x40 MLOAD PUSH3 0xDD4 CODESIZE SUB DUP1 PUSH3 0xDD4 DUP4 CODECOPY DUP2 ADD PUSH1 0x40 DUP2 SWAP1 MSTORE PUSH3 0x34 SWAP2 PUSH3 0x19B JUMP JUMPDEST PUSH1 0x0 DUP1 SLOAD PUSH1 0x1 PUSH1 0x1 PUSH1 0xA0 SHL SUB NOT AND PUSH1 0x1 PUSH1 0x1 PUSH1 0xA0 SHL SUB DUP9 AND OR SWAP1 SSTORE PUSH1 0x1 PUSH3 0x5D DUP7 DUP3 PUSH3 0x308 JUMP JUMPDEST POP PUSH1 0x2 PUSH3 0x6C DUP6 DUP3 PUSH3 0x308 JUMP JUMPDEST POP PUSH1 0x3 PUSH3 0x7B DUP5 DUP3 PUSH3 0x308 JUMP JUMPDEST POP PUSH1 0x4 PUSH3 0x8A DUP4 DUP3 PUSH3 0x308 JUMP JUMPDEST POP PUSH1 0x5 DUP1 SLOAD PUSH1 0xFF NOT AND SWAP2 ISZERO ISZERO SWAP2 SWAP1 SWAP2 OR SWAP1 SSTORE POP PUSH3 0x3D4 SWAP4 POP POP POP POP JUMP JUMPDEST DUP1 MLOAD PUSH1 0x1 PUSH1 0x1 PUSH1 0xA0 SHL SUB DUP2 AND DUP2 EQ PUSH3 0xC0 JUMPI PUSH1 0x0 DUP1 REVERT JUMPDEST SWAP2 SWAP1 POP JUMP JUMPDEST PUSH4 0x4E487B71 PUSH1 0xE0 SHL PUSH1 0x0 MSTORE PUSH1 0x41 PUSH1 0x4 MSTORE PUSH1 0x24 PUSH1 0x0 REVERT JUMPDEST PUSH1 0x0 DUP3 PUSH1 0x1F DUP4 ADD SLT PUSH3 0xED JUMPI PUSH1 0x0 DUP1 REVERT JUMPDEST DUP2 MLOAD PUSH1 0x1 PUSH1 0x1 PUSH1 0x40 SHL SUB DUP1 DUP3 GT ISZERO PUSH3 0x10A JUMPI PUSH3 0x10A PUSH3 0xC5 JUMP JUMPDEST PUSH1 0x40 MLOAD PUSH1 0x1F DUP4 ADD PUSH1 0x1F NOT SWAP1 DUP2 AND PUSH1 0x3F ADD AND DUP2 ADD SWAP1 DUP3 DUP3 GT DUP2 DUP4 LT OR ISZERO PUSH3 0x135 JUMPI PUSH3 0x135 PUSH3 0xC5 JUMP JUMPDEST DUP2 PUSH1 0x40 MSTORE DUP4 DUP2 MSTORE PUSH1 0x20 SWAP3 POP DUP7 DUP4 DUP6 DUP9 ADD ADD GT ISZERO PUSH3 0x152 JUMPI PUSH1 0x0 DUP1 REVERT JUMPDEST PUSH1 0x0 SWAP2 POP JUMPDEST DUP4 DUP3 LT ISZERO PUSH3 0x176 JUMPI DUP6 DUP3 ADD DUP4 ADD MLOAD DUP2 DUP4 ADD DUP5 ADD MSTORE SWAP1 DUP3 ADD SWAP1 PUSH3 0x157 JUMP JUMPDEST PUSH1 0x0 SWAP4 DUP2 ADD SWAP1 SWAP3 ADD SWAP3 SWAP1 SWAP3 MSTORE SWAP5 SWAP4 POP POP POP POP JUMP JUMPDEST DUP1 MLOAD DUP1 ISZERO ISZERO DUP2 EQ PUSH3 0xC0 JUMPI PUSH1 0x0 DUP1 REVERT JUMPDEST PUSH1 0x0 DUP1 PUSH1 0x0 DUP1 PUSH1 0x0 DUP1 PUSH1 0xC0 DUP8 DUP10 SUB SLT ISZERO PUSH3 0x1B5 JUMPI PUSH1 0x0 DUP1 REVERT JUMPDEST PUSH3 0x1C0 DUP8 PUSH3 0xA8 JUMP JUMPDEST PUSH1 0x20 DUP9 ADD MLOAD SWAP1 SWAP7 POP PUSH1 0x1 PUSH1 0x1 PUSH1 0x40 SHL SUB DUP1 DUP3 GT ISZERO PUSH3 0x1DE JUMPI PUSH1 0x0 DUP1 REVERT JUMPDEST PUSH3 0x1EC DUP11 DUP4 DUP12 ADD PUSH3 0xDB JUMP JUMPDEST SWAP7 POP PUSH1 0x40 DUP10 ADD MLOAD SWAP2 POP DUP1 DUP3 GT ISZERO PUSH3 0x203 JUMPI PUSH1 0x0 DUP1 REVERT JUMPDEST PUSH3 0x211 DUP11 DUP4 DUP12 ADD PUSH3 0xDB JUMP JUMPDEST SWAP6 POP PUSH1 0x60 DUP10 ADD MLOAD SWAP2 POP DUP1 DUP3 GT ISZERO PUSH3 0x228 JUMPI PUSH1 0x0 DUP1 REVERT JUMPDEST PUSH3 0x236 DUP11 DUP4 DUP12 ADD PUSH3 0xDB JUMP JUMPDEST SWAP5 POP PUSH1 0x80 DUP10 ADD MLOAD SWAP2 POP DUP1 DUP3 GT ISZERO PUSH3 0x24D JUMPI PUSH1 0x0 DUP1 REVERT JUMPDEST POP PUSH3 0x25C DUP10 DUP3 DUP11 ADD PUSH3 0xDB JUMP JUMPDEST SWAP3 POP POP PUSH3 0x26D PUSH1 0xA0 DUP9 ADD PUSH3 0x18A JUMP JUMPDEST SWAP1 POP SWAP3 SWAP6 POP SWAP3 SWAP6 POP SWAP3 SWAP6 JUMP JUMPDEST PUSH1 0x1 DUP2 DUP2 SHR SWAP1 DUP3 AND DUP1 PUSH3 0x28E JUMPI PUSH1 0x7F DUP3 AND SWAP2 POP JUMPDEST PUSH1 0x20 DUP3 LT DUP2 SUB PUSH3 0x2AF JUMPI PUSH4 0x4E487B71 PUSH1 0xE0 SHL PUSH1 0x0 MSTORE PUSH1 0x22 PUSH1 0x4 MSTORE PUSH1 0x24 PUSH1 0x0 REVERT JUMPDEST POP SWAP2 SWAP1 POP JUMP JUMPDEST PUSH1 0x1F DUP3 GT ISZERO PUSH3 0x303 JUMPI PUSH1 0x0 DUP2 DUP2 MSTORE PUSH1 0x20 DUP2 KECCAK256 PUSH1 0x1F DUP6 ADD PUSH1 0x5 SHR DUP2 ADD PUSH1 0x20 DUP7 LT ISZERO PUSH3 0x2DE JUMPI POP DUP1 JUMPDEST PUSH1 0x1F DUP6 ADD PUSH1 0x5 SHR DUP3 ADD SWAP2 POP JUMPDEST DUP2 DUP2 LT ISZERO PUSH3 0x2FF JUMPI DUP3 DUP2 SSTORE PUSH1 0x1 ADD PUSH3 0x2EA JUMP JUMPDEST POP POP POP JUMPDEST POP POP POP JUMP JUMPDEST DUP2 MLOAD PUSH1 0x1 PUSH1 0x1 PUSH1 0x40 SHL SUB DUP2 GT ISZERO PUSH3 0x324 JUMPI PUSH3 0x324 PUSH3 0xC5 JUMP JUMPDEST PUSH3 0x33C DUP2 PUSH3 0x335 DUP5 SLOAD PUSH3 0x279 JUMP JUMPDEST DUP5 PUSH3 0x2B5 JUMP JUMPDEST PUSH1 0x20 DUP1 PUSH1 0x1F DUP4 GT PUSH1 0x1 DUP2 EQ PUSH3 0x374 JUMPI PUSH1 0x0 DUP5 ISZERO PUSH3 0x35B JUMPI POP DUP6 DUP4 ADD MLOAD JUMPDEST PUSH1 0x0 NOT PUSH1 0x3 DUP7 SWAP1 SHL SHR NOT AND PUSH1 0x1 DUP6 SWAP1 SHL OR DUP6 SSTORE PUSH3 0x2FF JUMP JUMPDEST PUSH1 0x0 DUP6 DUP2 MSTORE PUSH1 0x20 DUP2 KECCAK256 PUSH1 0x1F NOT DUP7 AND SWAP2 JUMPDEST DUP3 DUP2 LT ISZERO PUSH3 0x3A5 JUMPI DUP9 DUP7 ADD MLOAD DUP3 SSTORE SWAP5 DUP5 ADD SWAP5 PUSH1 0x1 SWAP1 SWAP2 ADD SWAP1 DUP5 ADD PUSH3 0x384 JUMP JUMPDEST POP DUP6 DUP3 LT ISZERO PUSH3 0x3C4 JUMPI DUP8 DUP6 ADD MLOAD PUSH1 0x0 NOT PUSH1 0x3 DUP9 SWAP1 SHL PUSH1 0xF8 AND SHR NOT AND DUP2 SSTORE JUMPDEST POP POP POP POP POP PUSH1 0x1 SWAP1 DUP2 SHL ADD SWAP1 SSTORE POP JUMP JUMPDEST PUSH2 0x9F0 DUP1 PUSH3 0x3E4 PUSH1 0x0 CODECOPY PUSH1 0x0 RETURN INVALID PUSH1 0x80 PUSH1 0x40 MSTORE CALLVALUE DUP1 ISZERO PUSH2 0x10 JUMPI PUSH1 0x0 DUP1 REVERT JUMPDEST POP PUSH1 0x4 CALLDATASIZE LT PUSH2 0xA9 JUMPI PUSH1 0x0 CALLDATALOAD PUSH1 0xE0 SHR DUP1 PUSH4 0x8DA5CB5B GT PUSH2 0x71 JUMPI DUP1 PUSH4 0x8DA5CB5B EQ PUSH2 0x12B JUMPI DUP1 PUSH4 0x9284F497 EQ PUSH2 0x13E JUMPI DUP1 PUSH4 0xB2F06517 EQ PUSH2 0x146 JUMPI DUP1 PUSH4 0xC3D5FD39 EQ PUSH2 0x159 JUMPI DUP1 PUSH4 0xDBCE14DC EQ PUSH2 0x171 JUMPI DUP1 PUSH4 0xE78436C0 EQ PUSH2 0x184 JUMPI PUSH1 0x0 DUP1 REVERT JUMPDEST DUP1 PUSH4 0x47CCED3 EQ PUSH2 0xAE JUMPI DUP1 PUSH4 0x4AFB08A6 EQ PUSH2 0xCC JUMPI DUP1 PUSH4 0x70019B35 EQ PUSH2 0xE1 JUMPI DUP1 PUSH4 0x79CAAD86 EQ PUSH2 0xE9 JUMPI DUP1 PUSH4 0x893D20E8 EQ PUSH2 0x106 JUMPI JUMPDEST PUSH1 0x0 DUP1 REVERT JUMPDEST PUSH2 0xB6 PUSH2 0x18C JUMP JUMPDEST PUSH1 0x40 MLOAD PUSH2 0xC3 SWAP2 SWAP1 PUSH2 0x5DA JUMP JUMPDEST PUSH1 0x40 MLOAD DUP1 SWAP2 SUB SWAP1 RETURN JUMPDEST PUSH2 0xDF PUSH2 0xDA CALLDATASIZE PUSH1 0x4 PUSH2 0x697 JUMP JUMPDEST PUSH2 0x21E JUMP JUMPDEST STOP JUMPDEST PUSH2 0xB6 PUSH2 0x261 JUMP JUMPDEST PUSH1 0x5 SLOAD PUSH2 0xF6 SWAP1 PUSH1 0xFF AND DUP2 JUMP JUMPDEST PUSH1 0x40 MLOAD SWAP1 ISZERO ISZERO DUP2 MSTORE PUSH1 0x20 ADD PUSH2 0xC3 JUMP JUMPDEST PUSH1 0x0 SLOAD PUSH1 0x1 PUSH1 0x1 PUSH1 0xA0 SHL SUB AND JUMPDEST PUSH1 0x40 MLOAD PUSH1 0x1 PUSH1 0x1 PUSH1 0xA0 SHL SUB SWAP1 SWAP2 AND DUP2 MSTORE PUSH1 0x20 ADD PUSH2 0xC3 JUMP JUMPDEST PUSH1 0x0 SLOAD PUSH2 0x113 SWAP1 PUSH1 0x1 PUSH1 0x1 PUSH1 0xA0 SHL SUB AND DUP2 JUMP JUMPDEST PUSH2 0xB6 PUSH2 0x2EF JUMP JUMPDEST PUSH2 0xF6 PUSH2 0x154 CALLDATASIZE PUSH1 0x4 PUSH2 0x697 JUMP JUMPDEST PUSH2 0x2FC JUMP JUMPDEST PUSH2 0x161 PUSH2 0x355 JUMP JUMPDEST PUSH1 0x40 MLOAD PUSH2 0xC3 SWAP5 SWAP4 SWAP3 SWAP2 SWAP1 PUSH2 0x6D4 JUMP JUMPDEST PUSH2 0xDF PUSH2 0x17F CALLDATASIZE PUSH1 0x4 PUSH2 0x721 JUMP JUMPDEST PUSH2 0x524 JUMP JUMPDEST PUSH2 0xB6 PUSH2 0x57D JUMP JUMPDEST PUSH1 0x60 PUSH1 0x2 DUP1 SLOAD PUSH2 0x19B SWAP1 PUSH2 0x79E JUMP JUMPDEST DUP1 PUSH1 0x1F ADD PUSH1 0x20 DUP1 SWAP2 DIV MUL PUSH1 0x20 ADD PUSH1 0x40 MLOAD SWAP1 DUP2 ADD PUSH1 0x40 MSTORE DUP1 SWAP3 SWAP2 SWAP1 DUP2 DUP2 MSTORE PUSH1 0x20 ADD DUP3 DUP1 SLOAD PUSH2 0x1C7 SWAP1 PUSH2 0x79E JUMP JUMPDEST DUP1 ISZERO PUSH2 0x214 JUMPI DUP1 PUSH1 0x1F LT PUSH2 0x1E9 JUMPI PUSH2 0x100 DUP1 DUP4 SLOAD DIV MUL DUP4 MSTORE SWAP2 PUSH1 0x20 ADD SWAP2 PUSH2 0x214 JUMP JUMPDEST DUP3 ADD SWAP2 SWAP1 PUSH1 0x0 MSTORE PUSH1 0x20 PUSH1 0x0 KECCAK256 SWAP1 JUMPDEST DUP2 SLOAD DUP2 MSTORE SWAP1 PUSH1 0x1 ADD SWAP1 PUSH1 0x20 ADD DUP1 DUP4 GT PUSH2 0x1F7 JUMPI DUP3 SWAP1 SUB PUSH1 0x1F AND DUP3 ADD SWAP2 JUMPDEST POP POP POP POP POP SWAP1 POP SWAP1 JUMP JUMPDEST PUSH1 0x0 SLOAD PUSH1 0x1 PUSH1 0x1 PUSH1 0xA0 SHL SUB AND CALLER EQ PUSH2 0x251 JUMPI PUSH1 0x40 MLOAD PUSH3 0x461BCD PUSH1 0xE5 SHL DUP2 MSTORE PUSH1 0x4 ADD PUSH2 0x248 SWAP1 PUSH2 0x7D8 JUMP JUMPDEST PUSH1 0x40 MLOAD DUP1 SWAP2 SUB SWAP1 REVERT JUMPDEST PUSH1 0x2 PUSH2 0x25D DUP3 DUP3 PUSH2 0x868 JUMP JUMPDEST POP POP JUMP JUMPDEST PUSH1 0x1 DUP1 SLOAD PUSH2 0x26E SWAP1 PUSH2 0x79E JUMP JUMPDEST DUP1 PUSH1 0x1F ADD PUSH1 0x20 DUP1 SWAP2 DIV MUL PUSH1 0x20 ADD PUSH1 0x40 MLOAD SWAP1 DUP2 ADD PUSH1 0x40 MSTORE DUP1 SWAP3 SWAP2 SWAP1 DUP2 DUP2 MSTORE PUSH1 0x20 ADD DUP3 DUP1 SLOAD PUSH2 0x29A SWAP1 PUSH2 0x79E JUMP JUMPDEST DUP1 ISZERO PUSH2 0x2E7 JUMPI DUP1 PUSH1 0x1F LT PUSH2 0x2BC JUMPI PUSH2 0x100 DUP1 DUP4 SLOAD DIV MUL DUP4 MSTORE SWAP2 PUSH1 0x20 ADD SWAP2 PUSH2 0x2E7 JUMP JUMPDEST DUP3 ADD SWAP2 SWAP1 PUSH1 0x0 MSTORE PUSH1 0x20 PUSH1 0x0 KECCAK256 SWAP1 JUMPDEST DUP2 SLOAD DUP2 MSTORE SWAP1 PUSH1 0x1 ADD SWAP1 PUSH1 0x20 ADD DUP1 DUP4 GT PUSH2 0x2CA JUMPI DUP3 SWAP1 SUB PUSH1 0x1F AND DUP3 ADD SWAP2 JUMPDEST POP POP POP POP POP DUP2 JUMP JUMPDEST PUSH1 0x4 DUP1 SLOAD PUSH2 0x26E SWAP1 PUSH2 0x79E JUMP JUMPDEST PUSH1 0x0 PUSH1 0x2 PUSH1 0x40 MLOAD PUSH1 0x20 ADD PUSH2 0x310 SWAP2 SWAP1 PUSH2 0x928 JUMP JUMPDEST PUSH1 0x40 MLOAD PUSH1 0x20 DUP2 DUP4 SUB SUB DUP2 MSTORE SWAP1 PUSH1 0x40 MSTORE DUP1 MLOAD SWAP1 PUSH1 0x20 ADD KECCAK256 DUP3 PUSH1 0x40 MLOAD PUSH1 0x20 ADD PUSH2 0x337 SWAP2 SWAP1 PUSH2 0x99E JUMP JUMPDEST PUSH1 0x40 MLOAD PUSH1 0x20 DUP2 DUP4 SUB SUB DUP2 MSTORE SWAP1 PUSH1 0x40 MSTORE DUP1 MLOAD SWAP1 PUSH1 0x20 ADD KECCAK256 EQ SWAP1 POP SWAP2 SWAP1 POP JUMP JUMPDEST PUSH1 0x60 DUP1 PUSH1 0x60 PUSH1 0x0 PUSH1 0x1 PUSH1 0x3 PUSH1 0x4 PUSH1 0x5 PUSH1 0x0 SWAP1 SLOAD SWAP1 PUSH2 0x100 EXP SWAP1 DIV PUSH1 0xFF AND DUP4 DUP1 SLOAD PUSH2 0x37E SWAP1 PUSH2 0x79E JUMP JUMPDEST DUP1 PUSH1 0x1F ADD PUSH1 0x20 DUP1 SWAP2 DIV MUL PUSH1 0x20 ADD PUSH1 0x40 MLOAD SWAP1 DUP2 ADD PUSH1 0x40 MSTORE DUP1 SWAP3 SWAP2 SWAP1 DUP2 DUP2 MSTORE PUSH1 0x20 ADD DUP3 DUP1 SLOAD PUSH2 0x3AA SWAP1 PUSH2 0x79E JUMP JUMPDEST DUP1 ISZERO PUSH2 0x3F7 JUMPI DUP1 PUSH1 0x1F LT PUSH2 0x3CC JUMPI PUSH2 0x100 DUP1 DUP4 SLOAD DIV MUL DUP4 MSTORE SWAP2 PUSH1 0x20 ADD SWAP2 PUSH2 0x3F7 JUMP JUMPDEST DUP3 ADD SWAP2 SWAP1 PUSH1 0x0 MSTORE PUSH1 0x20 PUSH1 0x0 KECCAK256 SWAP1 JUMPDEST DUP2 SLOAD DUP2 MSTORE SWAP1 PUSH1 0x1 ADD SWAP1 PUSH1 0x20 ADD DUP1 DUP4 GT PUSH2 0x3DA JUMPI DUP3 SWAP1 SUB PUSH1 0x1F AND DUP3 ADD SWAP2 JUMPDEST POP POP POP POP POP SWAP4 POP DUP3 DUP1 SLOAD PUSH2 0x40A SWAP1 PUSH2 0x79E JUMP JUMPDEST DUP1 PUSH1 0x1F ADD PUSH1 0x20 DUP1 SWAP2 DIV MUL PUSH1 0x20 ADD PUSH1 0x40 MLOAD SWAP1 DUP2 ADD PUSH1 0x40 MSTORE DUP1 SWAP3 SWAP2 SWAP1 DUP2 DUP2 MSTORE PUSH1 0x20 ADD DUP3 DUP1 SLOAD PUSH2 0x436 SWAP1 PUSH2 0x79E JUMP JUMPDEST DUP1 ISZERO PUSH2 0x483 JUMPI DUP1 PUSH1 0x1F LT PUSH2 0x458 JUMPI PUSH2 0x100 DUP1 DUP4 SLOAD DIV MUL DUP4 MSTORE SWAP2 PUSH1 0x20 ADD SWAP2 PUSH2 0x483 JUMP JUMPDEST DUP3 ADD SWAP2 SWAP1 PUSH1 0x0 MSTORE PUSH1 0x20 PUSH1 0x0 KECCAK256 SWAP1 JUMPDEST DUP2 SLOAD DUP2 MSTORE SWAP1 PUSH1 0x1 ADD SWAP1 PUSH1 0x20 ADD DUP1 DUP4 GT PUSH2 0x466 JUMPI DUP3 SWAP1 SUB PUSH1 0x1F AND DUP3 ADD SWAP2 JUMPDEST POP POP POP POP POP SWAP3 POP DUP2 DUP1 SLOAD PUSH2 0x496 SWAP1 PUSH2 0x79E JUMP JUMPDEST DUP1 PUSH1 0x1F ADD PUSH1 0x20 DUP1 SWAP2 DIV MUL PUSH1 0x20 ADD PUSH1 0x40 MLOAD SWAP1 DUP2 ADD PUSH1 0x40 MSTORE DUP1 SWAP3 SWAP2 SWAP1 DUP2 DUP2 MSTORE PUSH1 0x20 ADD DUP3 DUP1 SLOAD PUSH2 0x4C2 SWAP1 PUSH2 0x79E JUMP JUMPDEST DUP1 ISZERO PUSH2 0x50F JUMPI DUP1 PUSH1 0x1F LT PUSH2 0x4E4 JUMPI PUSH2 0x100 DUP1 DUP4 SLOAD DIV MUL DUP4 MSTORE SWAP2 PUSH1 0x20 ADD SWAP2 PUSH2 0x50F JUMP JUMPDEST DUP3 ADD SWAP2 SWAP1 PUSH1 0x0 MSTORE PUSH1 0x20 PUSH1 0x0 KECCAK256 SWAP1 JUMPDEST DUP2 SLOAD DUP2 MSTORE SWAP1 PUSH1 0x1 ADD SWAP1 PUSH1 0x20 ADD DUP1 DUP4 GT PUSH2 0x4F2 JUMPI DUP3 SWAP1 SUB PUSH1 0x1F AND DUP3 ADD SWAP2 JUMPDEST POP POP POP POP POP SWAP2 POP SWAP4 POP SWAP4 POP SWAP4 POP SWAP4 POP SWAP1 SWAP2 SWAP3 SWAP4 JUMP JUMPDEST PUSH1 0x0 SLOAD PUSH1 0x1 PUSH1 0x1 PUSH1 0xA0 SHL SUB AND CALLER EQ PUSH2 0x54E JUMPI PUSH1 0x40 MLOAD PUSH3 0x461BCD PUSH1 0xE5 SHL DUP2 MSTORE PUSH1 0x4 ADD PUSH2 0x248 SWAP1 PUSH2 0x7D8 JUMP JUMPDEST PUSH1 0x1 PUSH2 0x55A DUP5 DUP3 PUSH2 0x868 JUMP JUMPDEST POP PUSH1 0x4 PUSH2 0x567 DUP4 DUP3 PUSH2 0x868 JUMP JUMPDEST POP PUSH1 0x5 DUP1 SLOAD PUSH1 0xFF NOT AND SWAP2 ISZERO ISZERO SWAP2 SWAP1 SWAP2 OR SWAP1 SSTORE POP POP JUMP JUMPDEST PUSH1 0x3 DUP1 SLOAD PUSH2 0x26E SWAP1 PUSH2 0x79E JUMP JUMPDEST PUSH1 0x0 JUMPDEST DUP4 DUP2 LT ISZERO PUSH2 0x5A5 JUMPI DUP2 DUP2 ADD MLOAD DUP4 DUP3 ADD MSTORE PUSH1 0x20 ADD PUSH2 0x58D JUMP JUMPDEST POP POP PUSH1 0x0 SWAP2 ADD MSTORE JUMP JUMPDEST PUSH1 0x0 DUP2 MLOAD DUP1 DUP5 MSTORE PUSH2 0x5C6 DUP2 PUSH1 0x20 DUP7 ADD PUSH1 0x20 DUP7 ADD PUSH2 0x58A JUMP JUMPDEST PUSH1 0x1F ADD PUSH1 0x1F NOT AND SWAP3 SWAP1 SWAP3 ADD PUSH1 0x20 ADD SWAP3 SWAP2 POP POP JUMP JUMPDEST PUSH1 0x20 DUP2 MSTORE PUSH1 0x0 PUSH2 0x5ED PUSH1 0x20 DUP4 ADD DUP5 PUSH2 0x5AE JUMP JUMPDEST SWAP4 SWAP3 POP POP POP JUMP JUMPDEST PUSH4 0x4E487B71 PUSH1 0xE0 SHL PUSH1 0x0 MSTORE PUSH1 0x41 PUSH1 0x4 MSTORE PUSH1 0x24 PUSH1 0x0 REVERT JUMPDEST PUSH1 0x0 DUP3 PUSH1 0x1F DUP4 ADD SLT PUSH2 0x61B JUMPI PUSH1 0x0 DUP1 REVERT JUMPDEST DUP2 CALLDATALOAD PUSH8 0xFFFFFFFFFFFFFFFF DUP1 DUP3 GT ISZERO PUSH2 0x636 JUMPI PUSH2 0x636 PUSH2 0x5F4 JUMP JUMPDEST PUSH1 0x40 MLOAD PUSH1 0x1F DUP4 ADD PUSH1 0x1F NOT SWAP1 DUP2 AND PUSH1 0x3F ADD AND DUP2 ADD SWAP1 DUP3 DUP3 GT DUP2 DUP4 LT OR ISZERO PUSH2 0x65E JUMPI PUSH2 0x65E PUSH2 0x5F4 JUMP JUMPDEST DUP2 PUSH1 0x40 MSTORE DUP4 DUP2 MSTORE DUP7 PUSH1 0x20 DUP6 DUP9 ADD ADD GT ISZERO PUSH2 0x677 JUMPI PUSH1 0x0 DUP1 REVERT JUMPDEST DUP4 PUSH1 0x20 DUP8 ADD PUSH1 0x20 DUP4 ADD CALLDATACOPY PUSH1 0x0 PUSH1 0x20 DUP6 DUP4 ADD ADD MSTORE DUP1 SWAP5 POP POP POP POP POP SWAP3 SWAP2 POP POP JUMP JUMPDEST PUSH1 0x0 PUSH1 0x20 DUP3 DUP5 SUB SLT ISZERO PUSH2 0x6A9 JUMPI PUSH1 0x0 DUP1 REVERT JUMPDEST DUP2 CALLDATALOAD PUSH8 0xFFFFFFFFFFFFFFFF DUP2 GT ISZERO PUSH2 0x6C0 JUMPI PUSH1 0x0 DUP1 REVERT JUMPDEST PUSH2 0x6CC DUP5 DUP3 DUP6 ADD PUSH2 0x60A JUMP JUMPDEST SWAP5 SWAP4 POP POP POP POP JUMP JUMPDEST PUSH1 0x80 DUP2 MSTORE PUSH1 0x0 PUSH2 0x6E7 PUSH1 0x80 DUP4 ADD DUP8 PUSH2 0x5AE JUMP JUMPDEST DUP3 DUP2 SUB PUSH1 0x20 DUP5 ADD MSTORE PUSH2 0x6F9 DUP2 DUP8 PUSH2 0x5AE JUMP JUMPDEST SWAP1 POP DUP3 DUP2 SUB PUSH1 0x40 DUP5 ADD MSTORE PUSH2 0x70D DUP2 DUP7 PUSH2 0x5AE JUMP JUMPDEST SWAP2 POP POP DUP3 ISZERO ISZERO PUSH1 0x60 DUP4 ADD MSTORE SWAP6 SWAP5 POP POP POP POP POP JUMP JUMPDEST PUSH1 0x0 DUP1 PUSH1 0x0 PUSH1 0x60 DUP5 DUP7 SUB SLT ISZERO PUSH2 0x736 JUMPI PUSH1 0x0 DUP1 REVERT JUMPDEST DUP4 CALLDATALOAD PUSH8 0xFFFFFFFFFFFFFFFF DUP1 DUP3 GT ISZERO PUSH2 0x74E JUMPI PUSH1 0x0 DUP1 REVERT JUMPDEST PUSH2 0x75A DUP8 DUP4 DUP9 ADD PUSH2 0x60A JUMP JUMPDEST SWAP5 POP PUSH1 0x20 DUP7 ADD CALLDATALOAD SWAP2 POP DUP1 DUP3 GT ISZERO PUSH2 0x770 JUMPI PUSH1 0x0 DUP1 REVERT JUMPDEST POP PUSH2 0x77D DUP7 DUP3 DUP8 ADD PUSH2 0x60A JUMP JUMPDEST SWAP3 POP POP PUSH1 0x40 DUP5 ADD CALLDATALOAD DUP1 ISZERO ISZERO DUP2 EQ PUSH2 0x793 JUMPI PUSH1 0x0 DUP1 REVERT JUMPDEST DUP1 SWAP2 POP POP SWAP3 POP SWAP3 POP SWAP3 JUMP JUMPDEST PUSH1 0x1 DUP2 DUP2 SHR SWAP1 DUP3 AND DUP1 PUSH2 0x7B2 JUMPI PUSH1 0x7F DUP3 AND SWAP2 POP JUMPDEST PUSH1 0x20 DUP3 LT DUP2 SUB PUSH2 0x7D2 JUMPI PUSH4 0x4E487B71 PUSH1 0xE0 SHL PUSH1 0x0 MSTORE PUSH1 0x22 PUSH1 0x4 MSTORE PUSH1 0x24 PUSH1 0x0 REVERT JUMPDEST POP SWAP2 SWAP1 POP JUMP JUMPDEST PUSH1 0x20 DUP1 DUP3 MSTORE PUSH1 0x21 SWAP1 DUP3 ADD MSTORE PUSH32 0x4F6E6C79206F776E65722063616E2063616C6C20746869732066756E6374696F PUSH1 0x40 DUP3 ADD MSTORE PUSH1 0x37 PUSH1 0xF9 SHL PUSH1 0x60 DUP3 ADD MSTORE PUSH1 0x80 ADD SWAP1 JUMP JUMPDEST PUSH1 0x1F DUP3 GT ISZERO PUSH2 0x863 JUMPI PUSH1 0x0 DUP2 DUP2 MSTORE PUSH1 0x20 DUP2 KECCAK256 PUSH1 0x1F DUP6 ADD PUSH1 0x5 SHR DUP2 ADD PUSH1 0x20 DUP7 LT ISZERO PUSH2 0x840 JUMPI POP DUP1 JUMPDEST PUSH1 0x1F DUP6 ADD PUSH1 0x5 SHR DUP3 ADD SWAP2 POP JUMPDEST DUP2 DUP2 LT ISZERO PUSH2 0x85F JUMPI DUP3 DUP2 SSTORE PUSH1 0x1 ADD PUSH2 0x84C JUMP JUMPDEST POP POP POP JUMPDEST POP POP POP JUMP JUMPDEST DUP2 MLOAD PUSH8 0xFFFFFFFFFFFFFFFF DUP2 GT ISZERO PUSH2 0x882 JUMPI PUSH2 0x882 PUSH2 0x5F4 JUMP JUMPDEST PUSH2 0x896 DUP2 PUSH2 0x890 DUP5 SLOAD PUSH2 0x79E JUMP JUMPDEST DUP5 PUSH2 0x819 JUMP JUMPDEST PUSH1 0x20 DUP1 PUSH1 0x1F DUP4 GT PUSH1 0x1 DUP2 EQ PUSH2 0x8CB JUMPI PUSH1 0x0 DUP5 ISZERO PUSH2 0x8B3 JUMPI POP DUP6 DUP4 ADD MLOAD JUMPDEST PUSH1 0x0 NOT PUSH1 0x3 DUP7 SWAP1 SHL SHR NOT AND PUSH1 0x1 DUP6 SWAP1 SHL OR DUP6 SSTORE PUSH2 0x85F JUMP JUMPDEST PUSH1 0x0 DUP6 DUP2 MSTORE PUSH1 0x20 DUP2 KECCAK256 PUSH1 0x1F NOT DUP7 AND SWAP2 JUMPDEST DUP3 DUP2 LT ISZERO PUSH2 0x8FA JUMPI DUP9 DUP7 ADD MLOAD DUP3 SSTORE SWAP5 DUP5 ADD SWAP5 PUSH1 0x1 SWAP1 SWAP2 ADD SWAP1 DUP5 ADD PUSH2 0x8DB JUMP JUMPDEST POP DUP6 DUP3 LT ISZERO PUSH2 0x918 JUMPI DUP8 DUP6 ADD MLOAD PUSH1 0x0 NOT PUSH1 0x3 DUP9 SWAP1 SHL PUSH1 0xF8 AND SHR NOT AND DUP2 SSTORE JUMPDEST POP POP POP POP POP PUSH1 0x1 SWAP1 DUP2 SHL ADD SWAP1 SSTORE POP JUMP JUMPDEST PUSH1 0x0 DUP1 DUP4 SLOAD PUSH2 0x936 DUP2 PUSH2 0x79E JUMP JUMPDEST PUSH1 0x1 DUP3 DUP2 AND DUP1 ISZERO PUSH2 0x94E JUMPI PUSH1 0x1 DUP2 EQ PUSH2 0x963 JUMPI PUSH2 0x992 JUMP JUMPDEST PUSH1 0xFF NOT DUP5 AND DUP8 MSTORE DUP3 ISZERO ISZERO DUP4 MUL DUP8 ADD SWAP5 POP PUSH2 0x992 JUMP JUMPDEST DUP8 PUSH1 0x0 MSTORE PUSH1 0x20 DUP1 PUSH1 0x0 KECCAK256 PUSH1 0x0 JUMPDEST DUP6 DUP2 LT ISZERO PUSH2 0x989 JUMPI DUP2 SLOAD DUP11 DUP3 ADD MSTORE SWAP1 DUP5 ADD SWAP1 DUP3 ADD PUSH2 0x970 JUMP JUMPDEST POP POP POP DUP3 DUP8 ADD SWAP5 POP JUMPDEST POP SWAP3 SWAP7 SWAP6 POP POP POP POP POP POP JUMP JUMPDEST PUSH1 0x0 DUP3 MLOAD PUSH2 0x9B0 DUP2 DUP5 PUSH1 0x20 DUP8 ADD PUSH2 0x58A JUMP JUMPDEST SWAP2 SWAP1 SWAP2 ADD SWAP3 SWAP2 POP POP JUMP INVALID LOG2 PUSH5 0x6970667358 0x22 SLT KECCAK256 SWAP11 DUP13 0x1E EXTCODESIZE 0xB5 0x21 SWAP2 LOG4 SIGNEXTEND PUSH29 0x800663F6ECB34586FBA3F3AE53297AC61B00F961B8EB64736F6C634300 ADDMOD EQ STOP CALLER LOG2 PUSH5 0x6970667358 0x22 SLT KECCAK256 BLOCKHASH 0x5C SWAP9 CALLER 0xBC POP 0xE9 ADDMOD 0xAC 0xD0 0xD2 PC PUSH4 0x14187876 0xB7 PUSH24 0xDE8A539711D629F49321DB3A3864736F6C63430008140033 "},"methodIdentifiers":{"adminList(uint256)":"11117fc8","createAdmin(string,string,string,string,bool)":"a12bbc3d","creatorAdminMap(address)":"e09ce2dc","getAdminAddress(address)":"ad17fcb5","getAdminList()":"d9f774fc","getPasswordHashByUsername(string)":"49c1b617","isAdmin(address)":"24d7806c","isNotRegistered(address)":"d8c251b5","verifyPwd(string,string)":"9e31a3ee"}}}}}